:103800000C942A1C0C94621C0C94621C0C94621C78
:103810000C94621C0C94621C0C94621C0C94621C30
:103820000C94621C0C94621C0C94621C0C94621C20
:103830000C94621C0C94621C0C94621C0C94621C10
:103840000C94621C0C94621C0C94621C0C94621C00
:103850000C94621C11241FBECFE5D4E0DEBFCDBFA7
:1038600088E10FB6F89481BD11BC0FBEE199FECF7F
:1038700083E190E09FBB8EBBE09A9DB384B78F70CD
:10388000892B898314BE898187FD198283E190E0A9
:1038900069810E94701C10E0A0E6B0E0EEE0FFE35A
:1038A00002C005900D92A436B107D9F710E0A4E646
:1038B000B0E001C01D92A636B107E1F70E94EE1CF0
:1038C0000C94851F0C94001CDF93CF9300D0CDB7D0
:1038D000DEB7982F862F0F900F90CF91DF9108952C
:1038E000E199FECF9C019FBB8EBBE09A8DB38617FA
:1038F00051F0E199FECF3FBB2EBB6DBB0FB6F894E4
:10390000E29AE19A0FBE089587B38F71806A87BBF0
:103910008DB181658DB908958FB9779BFECF8FB139
:1039200008950F931F93182F062FC49882E00E94CA
:103930008C1C812F0E948C1C802F0E948C1CC49A8E
:103940001F910F9108950F931F93CF93DF93EC0175
:10395000C49880E40E948C1C9A81969596958881E3
:10396000880F880F807C892B0E948C1C29813A81CA
:103970003695279536952795822F807E93E036954C
:1039800027959A95E1F72370822B88600E948C1C02
:103990008C8187709981990F990F990F892B0E94BB
:1039A0008C1C8B810E948C1C08810F70802F0E94C0
:1039B0008C1C10E007C0FE01E10FF11D85810E9403
:1039C0008C1C1F5F1017B8F3C49A80E368E00E9454
:1039D000911CDF91CF911F910F9108952F923F92EB
:1039E0004F925F926F927F928F929F92AF92BF920F
:1039F000CF92DF92EF92FF920F931F93DF93CF93BB
:103A0000CDB7DEB769970FB6F894DEBF0FBECDBF56
:103A10002DE088E190E00FB6F894A89581BD0FBE27
:103A200021BDA8958B98939AFE01349624E030E04E
:103A3000E199FECF3FBB2EBBE09A8DB381932F5F00
:103A40003F4F28303105A1F708E010E0F801E85AAF
:103A5000FF4FC80160810E94701C0F5F1F4F0C3028
:103A60001105A1F7E199FECF82E190E09FBB8EBBEB
:103A7000E09A6DB2E199FECF83E190E09FBB8EBBEF
:103A8000E09AEDB2E199FECF80E190E09FBB8EBB62
:103A9000E09A3DB3E199FECF81E190E09FBB8EBB00
:103AA000E09A2DB3A32EBB24922F80E0A82AB92A36
:103AB00030E0A31638E0B30630F06624FF24F39418
:103AC000AA24BB2401C0FF24839904C052E0F52A34
:103AD00066241FC081E06816E1F40CE010E0C80124
:103AE00060E00E94701C0F5F1F4F00311105B9F795
:103AF00080E090E023E0A895FC0120935700E89532
:103B000007B600FCFDCF80589F4FA7E380389A0787
:103B100091F7BC9AC49A87B38F71806A87BB8DB1C5
:103B200081658DB9C49880EC0E948C1CC49A80E495
:103B30009FE10197F1F78AE261E00E94911C89E21E
:103B400066EB0E94911C88E264E00E94911C80E672
:103B500060E60E94911C8CE068E00E94911C8FE05E
:103B600060E00E94911CB7E0B61538F5E199FECFF0
:103B700088E190E09FBB8EBBE09A2DB3E199FECF28
:103B800089E190E09FBB8EBBE09A6DB340E050E0CE
:103B9000E0E0F0E08491480F511D319638E3E030C9
:103BA000F307C1F730E0962F80E0822B932B481764
:103BB000590719F054E0F52A662488E2888781E0E5
:103BC00090EF9A878987BC86AB8680E28D878C814F
:103BD0009D81AE81BF818E879F87A88BB98B6A8AB2
:103BE000EB8AFC8ACE0108960E94A31C1DBC1CBC5B
:103BF00089E09DE39BBD8ABD88E08FBD85E08EBDD9
:103C0000CC24DD241D8A44244A94542CF2E08F2EC7
:103C1000912C8C0E9D1ECE010E968E8B9F8BCE010D
:103C20000496888F998FA89508B604FE09C01EBC1B
:103C300087E0861528F4E0916400F091650009950D
:103C4000C49880EB0E948C1C8FEF0E948C1C89838F
:103C5000C49A898186FFE7CFC49880E90E948C1CB2
:103C600080E00E948C1CE82E80E00E948C1C082FB3
:103C700080E00E948C1CF82E8E2D86958695807390
:103C80008887000F000F10E08F2D8695869586950A
:103C900090E03E2C330C330C222482299329980186
:103CA00020783370822B932BE3E0000F111FEA95ED
:103CB000E1F700761070802B912B9A87898780E03E
:103CC0000E948C1CD4018C93B7E0FB22F401F1829A
:103CD0008A819B819C878B8780E00E948C1C7FE07F
:103CE000772E78228885872988876DE0E62EF12C4B
:103CF000EC0EFD1E072D10E00B5F1F4F88E090E0DB
:103D00008C0F9D1F080F191F06C080E00E948C1C9D
:103D1000D7018D937D01E016F106B9F7C49A588555
:103D2000852F807309F07FCF29853A85C90180707E
:103D3000987F892B09F077CF37702A153B0509F05A
:103D400072CF8D858130D9F48E899F89688D798D68
:103D500044E050E00E94781F009709F064CF80E1B2
:103D600090E06A890E94701C81E190E06B890E945A
:103D7000701C83E190E060E80E94701CFFCFA114EA
:103D8000B10409F450CF823059F482E190E06E859D
:103D90000E94701C83E190E060E80E94701CFFCFDD
:103DA000B1E06B1609F06BC0833059F488E190E004
:103DB0006E850E94701C89E190E06F850E94701CE6
:103DC00089C0843091F49F858E85F401808391832E
:103DD0004A805B80F0E74F16510408F479C083E114
:103DE00090E060E80E94701CFFCF853009F047C06A
:103DF0003FEF43163FEF530609F468C0B2017695D2
:103E0000762F6627779567958E899F89DC0141E03B
:103E10001BC08C91C0FE12C03D89F40130838183A8
:103E2000C6018E7F860F971F2A813B8151E00901D1
:103E3000FC0150935700E895112401C08D8B4F5F12
:103E40000894C11CD11C1196471520F480E8C816AF
:103E5000D104F8F290E8C916D10409F03BC0A5E0FE
:103E6000FB01A0935700E89507B600FCFDCFB1E138
:103E7000B0935700E89544244A94542C2BC08730C3
:103E800029F55F709F858E85F401808391836A8117
:103E90007B8140E0252F30E02350304011C0E19974
:103EA000FECFCB01840F911D9FBB8EBBE09A8DB3DB
:103EB000A0E1B0E0AC0FBD1FEA0FFB1F80834F5F96
:103EC000E42FF0E0E217F30754F304C0806404C069
:103ED000CC24DD248D85806C8D878B859C859A878D
:103EE0008987BC86AB86CE0108960E94A31C9BCE18
:103EF000FB01DC0104C08D910190801921F4415037
:0E3F00005040C8F7881B990B0895F894FFCF26
:043F0E0009000100A5
:0400000300003800C1
:00000001FF
