:100000000C942A000C9447000C9447000C94470071
:100010000C9447000C9447000C9447000C94470044
:100020000C9447000C9447000C9447000C94470034
:100030000C9447000C9447000C9447000C94470024
:100040000C9447000C9447000C9447000C94470014
:100050000C94470011241FBECFE5D4E0DEBFCDBF16
:1000600010E0A0E6B0E0ECEAFDE002C005900D92E1
:10007000A439B107D9F710E0A4E9B0E001C01D929E
:10008000AA39B107E1F70E94CE050C94D4060C946E
:1000900000009C01E199FECF3FBB2EBBE09A8DB3DF
:1000A00008959C01E199FECF3FBB2EBBE09A8DB332
:1000B0000895E199FECF9C019FBB8EBBE09A8DB362
:1000C000861751F0E199FECF3FBB2EBB6DBB0FB63B
:1000D000F894E29AE19A0FBE089520919600E19972
:1000E000FECF820F911D9FBB8EBBE09A8DB308950A
:1000F000AC0180919600282F30E0E199FECFCA0133
:10010000820F931F9FBB8EBBE09A8DB3861761F061
:10011000E199FECF240F351F3FBB2EBB6DBB0FB641
:10012000F894E29AE19A0FBE0895E82FF0E0EE0FFE
:10013000FF1FEC57FF4F0190F081E02D808190E090
:1001400002C0959587956A95E2F78170089591E0D0
:1001500002C0990F61506623E1F7A82FB0E0FD01BE
:10016000EE0FFF1FEC58FF4F0190F081E02D8081D2
:10017000892B41FF89278083AA0FBB1FAC59BF4F32
:10018000ED91FC918081892B40FF89278083089520
:10019000DF93CF930F92CDB7DEB78983898186FF36
:1001A0000CC0898184FF05C087B3806A87BBBE9875
:1001B00007C0BE9A87B38F7502C087B38F7187BBA4
:1001C00089818DB91EB80F90CF91DF9108951FB826
:1001D000779BFECF8FB108958FB9779BFECF08959F
:1001E0008FB9779BFECF8FB10895FF920F931F9326
:1001F000082FF62E142F41E00E94A70083E08FB94C
:10020000779BFECF8FB11FB9779BFECF8FB18FEF5A
:100210008FB9779BFECF1FB1802F6F2D43E00E94D7
:10022000A700812F1F910F91FF900895EF92FF92E9
:100230000F931F93082FF62E142FE22E41E00E94F9
:10024000A70082E08FB9779BFECF8FB11FB9779B54
:10025000FECF8FB1EFB8779BFECF8FB1802F6F2D80
:1002600043E00E94A7001F910F91FF90EF90089527
:10027000DF92EF92FF920F931F93E82ED62E142F4A
:10028000F22E41E00E94A70085E08FB9779BFECF58
:100290008FB11FB9779BFECF8FB1FFB8779BFECF91
:1002A0008FB10FB9779BFECF8FB18E2D6D2D43E0AF
:1002B0000E94A7001F910F91FF90EF90DF9008958B
:1002C0008F929F92AF92BF92CF92DF92EF92FF9266
:1002D0000F931F93DF93CF93CDB7DEB7F82ED62EB3
:1002E000142FB22E902E0C2D43E00E94A700812FD8
:1002F0000E94C8008F2D6D2D41E00E94A70080EC68
:100300008FB9779BFECF8FB18F2D6D2D43E00E946B
:10031000A7008CEC9CE10197F1F78F2D6D2D4AE23F
:100320002B2D0E9416018F2D6D2D49E2292D0E9443
:1003300016018F2D6D2D48E22E2D0E9416018F2D56
:100340006D2D40E624E60E9416018F2D6D2D40E7AD
:1003500020E60E9416018F2D6D2D4BE223E00E94B6
:1003600016010023C9F0083030F4802F6A2D41E0D7
:100370000E94A70011C00C3F31F48F2D6D2D4CE071
:1003800024E104E007C00D3F39F48F2D6D2D4CE0C2
:1003900028E208E00E9438018F2D6D2D4CE02CE002
:1003A0000E9416018F2D6D2D4FE020EE082D0E942A
:1003B00038018F2D6D2D4FE00E94F50040E090E058
:1003C000807E9070282D30E08217930709F441E079
:1003D000842FCF91DF911F910F91FF90EF90DF90CD
:1003E000CF90BF90AF909F908F900895DF92EF9243
:1003F000FF920F931F93DF93CF930F92CDB7DEB78A
:10040000082FD62E142F198243E00E94A700812FB7
:100410000E94C800802F6D2D41E00E94A70080EB54
:100420008FB9779BFECF8FEF8FB9779BFECF9FB1B0
:100430008FEF8FB9779BFECF8FB19983802F6D2D72
:1004400043E00E94A700898186FF02C010E906C030
:10045000898187FD02C080E047C014E9802F6D2D9F
:1004600041E00E94A7001FB9779BFECF1FB8779B82
:10047000FECF8FB1F70181831FB8779BFECF8FB17D
:10048000F70180831FB8779BFECF8FB1F70183837D
:100490001FB8779BFECF8FB1F70182831FB8779B80
:1004A000FECF8FB1F7018483848186FD10C090E078
:1004B00009C01FB8779BFECF8FB1F701E90FF11D7F
:1004C00085839F5FF7018481981798F307C0F70130
:1004D00080E015828F5F31968830D9F7802F6D2D9F
:1004E00043E00E94A70081E00F90CF91DF911F9120
:1004F0000F91FF90EF90DF900895CF92DF92EF92EF
:10050000FF920F931F93DF93CF930F92CDB7DEB778
:10051000082FD62E142F198243E00E94A700812FA6
:100520000E94C800802F6D2D41E00E94A70080EA44
:100530008FB9779BFECF8FEF8FB9779BFECF9FB19F
:100540008FEF8FB9779BFECF8FB19983802F6D2D61
:1005500043E00E94A700898182FD04C010E461E8A5
:10056000C62E0FC0898184FD04C012E452E8C52E56
:1005700008C0898186FF02C080E048C014E444E8D6
:10058000C42E802F6D2D41E00E94A7001FB9779BDC
:10059000FECFF70181818FB9779BFECFF701808174
:1005A0008FB9779BFECFF70183818FB9779BFECF01
:1005B000F70182818FB9779BFECFF70124812FB994
:1005C000779BFECFF701848186FD0CC090E008C0C8
:1005D000F701E90FF11D85818FB9779BFECF9F5FF2
:1005E0009217B0F3802F6D2D43E00E94A70000000A
:1005F000802F6D2D41E00E94A700CFB8779BFECFE2
:10060000802F6D2D43E00E94A70081E00F90CF91D5
:10061000DF911F910F91FF90EF90DF90CF900895A1
:100620008F92AF92CF92EF920F93882311F080E0D8
:100630000CC082E064E041E523E006EB74E0E72EC5
:10064000CC24AA2488240E9460010F91EF90CF90BF
:10065000AF908F900895AF92BF92CF92DF92EF92BA
:10066000FF920F93DF93CF93CDB7DEB72D970FB6E1
:10067000F894DEBF0FBECDBF6B01882309F066C0C2
:1006800082E064E041E520E000E05E010894A11C06
:10069000B11C75010E94F601813009F057C0EA8152
:1006A0008E2F90E0807C9070959587959595879595
:1006B0000D81F02FFF70F82BD601FC936C814981DE
:1006C00050E03E2F330F330F20E0862F869586951E
:1006D0008695280F311DCA018370907075E0880FD0
:1006E000991F7A95E1F7280F391F407E5070440F0B
:1006F000551F440F551F240F351F12963C932E9300
:10070000119770E067707070762F66278B81680F85
:10071000711D14967C936E9313978D8186FD0AC08C
:10072000DE011696F601202F30E02B5F3F4F2A0D99
:100730003B1D06C0F064D601FC9306C08D918483F6
:100740003196A217B307D1F781E001C080E02D9662
:100750000FB6F894DEBF0FBECDBFCF91DF910F91E2
:10076000FF90EF90DF90CF90BF90AF900895EF9201
:10077000FF920F93DF93CF93CDB7DEB72D970FB6D0
:10078000F894DEBF0FBECDBFFB01882311F090E0CF
:100790004EC09281969596956081862F880F880F1E
:1007A000807C892B8A8341815281CA0196958795E5
:1007B00096958795807E9A01A5E036952795AA950E
:1007C000E1F72370822B8860898384818770440FCE
:1007D000440F440F842B8C8383818B836F706D83D4
:1007E000808186FD0AC0DF01FE013696CE01860FAC
:1007F000911DBC016A5F7F4F07C060646D8308C0B4
:1008000014968C91149781931196E617F707C1F708
:1008100082E064E041E520E000E07E010894E11C14
:10082000F11C0E947D0290E0813009F491E0892F53
:100830002D960FB6F894DEBF0FBECDBFCF91DF91DE
:100840000F91FF90EF900895FFCFBC0180E00E94D0
:10085000B7030895DF92EF92FF920F931F93DF93F8
:10086000CF93CDB7DEB72D970FB6F894DEBF0FBE8E
:10087000CDBFAC01FC01D0806D2D6F70E380F480A2
:100880000091940010919500DC01FE0136969E01C6
:10089000260F311D2A5F3F4F04C014968C91149788
:1008A00081931196E217F307C1F7FA01858182302F
:1008B00009F090C0623009F046C18E81806C8E8351
:1008C00026812223C1F4E199FECF82E190E09FBB13
:1008D0008EBBE09A8DB3882309F462C0E199FECF04
:1008E00082E190E09FBB8EBB1DBA0FB6F894E29AEE
:1008F000E19A0FBE6EC02130C9F4E199FECF82E1CA
:1009000090E09FBB8EBBE09A8DB3813009F461C04B
:10091000E199FECF82E190E09FBB8EBB81E08DBB71
:100920000FB6F894E29AE19A0FBE53C0283009F04E
:1009300037C0E199FECF8BE190E09FBB8EBBE09A80
:100940002DB32F5FE199FECF8BE190E09FBB8EBB73
:10095000E09A8DB3821761F0E199FECF8BE190E0D0
:100960009FBB8EBB2DBB0FB6F894E29AE19A0FBEE7
:10097000E199FECF82E190E09FBB8EBBE09A8DB300
:10098000883039F1E199FECF82E190E09FBB8EBBC8
:1009900088E08DBB0FB6F894E29AE19A0FBE19C0B9
:1009A0002930B9F4E199FECF82E190E09FBB8EBB84
:1009B000E09A8DB3893069F0E199FECF82E190E051
:1009C0009FBB8EBB89E08DBB0FB6F894E29AE19A8B
:1009D0000FBEFFCF863009F043C0613009F0B3C0CD
:1009E00080919700893009F0AEC080919600282F41
:1009F00030E0A895E199FECF3FBB2EBBE09A8DB3C6
:100A0000882351F0E199FECF3FBB2EBB1DBA0FB634
:100A1000F894E29AE19A0FBE2F5F3F4FF2E0203048
:100A20003F0738F32CE130E0F901EC5BFF4FE08148
:100A3000E199FECF3FBB2EBBE09A8DB38E1751F0EC
:100A4000E199FECF3FBB2EBBEDBB0FB6F894E29A07
:100A5000E19A0FBE2F5F3F4F2032310529F7FFCFBC
:100A6000873071F5643008F46EC0FA01978180E038
:100A70002681DC01A20FB11DF2E0A030BF0708F013
:100A800062C08E81806C8E8340E0262F30E0235040
:100A90003040BE01675F7F4F0DC0E199FECFCD01B1
:100AA000840F911D9FBB8EBBE09A8DB3E60FF71F9D
:100AB00080834F5FE42FF0E0E217F30774F343C045
:100AC000883009F040C0643008F43DC08091970040
:100AD000893009F038C0FA01978180E02681DC0175
:100AE000A20FB11D8091960090E0A817B90758F1A8
:100AF000F2E0A030BF0738F58E81806C8E8390E0E5
:100B0000262F30E02350304019C0BF016A0F7B1FF1
:100B1000E40FF51FE085E199FECF7FBB6EBBE09A45
:100B20008DB38E1751F0E199FECF7FBB6EBBEDBB4D
:100B30000FB6F894E29AE19A0FBE9F5FE92FF0E0BA
:100B4000E217F30714F38E8180648E831D830C8378
:100B5000FB82EA82D982CE0101960E9425042D965D
:100B60000FB6F894DEBF0FBECDBFCF91DF911F91BE
:100B70000F91FF90EF90DF9008952091960030E064
:100B8000220F331F820F931F69E470E00E94BE069C
:100B9000089569E470E00E94BE060895FF920F93E5
:100BA0001F93DF93CF93CDB7DEB72D970FB6F89491
:100BB000DEBF0FBECDBF2DE088E190E00FB6F89408
:100BC000A89581BD0FBE21BDA89580E190E069E4A4
:100BD00070E00E94BE069093950080939400019768
:100BE0008F5F9740B8F0E199FECF82E190E09FBB24
:100BF0008EBBE09A8DB3882361F0E199FECF82E14C
:100C000090E09FBB8EBB1DBA0FB6F894E29AE19AB2
:100C10000FBEFFCF2CE030E0F901EC5AFF4FE0812E
:100C2000E199FECF3FBB2EBBE09A8DB38E1751F0FA
:100C3000E199FECF3FBB2EBBEDBB0FB6F894E29A15
:100C4000E19A0FBE2F5F3F4F2031310529F7E1991F
:100C5000FECF8AE190E09FBB8EBBE09A8DB380937C
:100C60009600E199FECF82E190E09FBB8EBBE09AB7
:100C70008DB38093970088508230D0F088E08093C5
:100C80009700E199FECF82E190E09FBB8EBBE09A96
:100C90008DB3883069F0E199FECF82E190E09FBB8F
:100CA0008EBB88E08DBB0FB6F894E29AE19A0FBE36
:100CB000409198002CE130E0E199FECF3FBB2EBB84
:100CC000E09A8DB3F901EC5BFF4F9081891341608D
:100CD0002F5F3F4F2032310579F740939800789489
:100CE00080E00E941003409194005091950081E2B1
:100CF0008E83FE01379624E030E0E199FECF3FBBC2
:100D00002EBBE09A8DB381932F5F3F4F2830310582
:100D1000A1F7E199FECF82E190E09FBB8EBBE09A04
:100D20008DB38B87809198008C875D834C8382E0A4
:100D300090EF9B838A8387E289838E010F5F1F4F29
:100D4000C8010E942504F02E012FA89580E06F2D88
:100D5000702F0E942B038130C1F789818073A9F71E
:100D60002A813B8180919400909195002817390742
:100D700061F78F2D902F0E942A04E7CFDF92EF9228
:100D8000FF920F931F937B018C01FB010995D82ED5
:100D9000C8010196F7010995982F8D2D1F910F918C
:0C0DA000FF90EF90DF900895F894FFCFD3
:100DAC000C00000099003A00370034003100990023
:100DBC009900990099003B003800350032009900E9
:100DCC0099009900990039003600330030009900E1
:040DDC0099009900E1
:00000001FF
