:100000000C942A000C9447000C9447000C94470071
:100010000C9447000C9447000C9447000C94470044
:100020000C9447000C9447000C9447000C94420138
:100030000C947C010C9447000C9447000C944700EE
:100040000C9447000C9447000C9447000C94470014
:100050000C94470011241FBECFE5D4E0DEBFCDBF16
:1000600010E0A0E6B0E0E6EDF4E102C005900D92EC
:10007000A439B107D9F711E0A4E9B0E001C01D929D
:10008000A432B107E1F70E9431090C94690A0C947B
:1000900000009C01E199FECF3FBB2EBBE09A8DB3DF
:1000A00008959C01E199FECF3FBB2EBBE09A8DB332
:1000B0000895E199FECF9C019FBB8EBBE09A8DB362
:1000C000861751F0E199FECF3FBB2EBB6DBB0FB63B
:1000D000F894E29AE19A0FBE089520919600E19972
:1000E000FECF820F911D9FBB8EBBE09A8DB308950A
:1000F000AC0180919600282F30E0E199FECFCA0133
:10010000820F931F9FBB8EBBE09A8DB3861761F061
:10011000E199FECF240F351F3FBB2EBB6DBB0FB641
:10012000F894E29AE19A0FBE0895E82FF0E0EE0FFE
:10013000FF1FEC57FF4F0190F081E02D808190E090
:1001400002C0959587956A95E2F78170089591E0D0
:1001500002C0990F61506623E1F7A82FB0E0FD01BE
:10016000EE0FFF1FEC58FF4F0190F081E02D8081D2
:10017000892B41FF89278083AA0FBB1FAC59BF4F32
:10018000ED91FC918081892B40FF89278083089520
:10019000DC0140E020E030E007C0FD01E20FF31F8A
:1001A0008081480F2F5F3F4F26173707B0F3842F0A
:1001B000819508950F931F93CF93DF938C01EC01EA
:1001C000FB0120E030E040E050E0E230F10550F08B
:1001D00089919991A0E0B0E0280F391F4A1F5B1F59
:1001E0003297F3CFFB01EE7FE00FF11F60FF0BC0F2
:1001F0008081280F311D411D511D05C0620F731FE5
:100200009B0140E050E0CA01AA27BB27BC01892B13
:10021000A9F720953095C901DF91CF911F910F91DA
:100220000895EF920F93882311F080E00EC0809123
:10023000990080939A008091A2008093A1002BB92D
:1002400040BD69B9E0BC0AB981E00F91EF90089513
:10025000DB018823A9F49091990080919A00981766
:1002600079F080919A008F5F8F7380939A00E0916C
:100270009A00F0E0ED55FF4F80818C9381E0089566
:1002800080E008951F920F920FB60F9211248F9362
:100290009F93EF93FF93909199009F5F9F7380913D
:1002A0009A00981741F0E92FF0E08CB1ED55FF4F1F
:1002B000808390939900FF91EF919F918F910F9080
:1002C0000FBE0F901F901895DB01882399F4909131
:1002D000A2009F5F9F738091A100981759F0E92FAA
:1002E000F0E08C91ED51FF4F80839093A200559ADE
:1002F00081E0089580E008951F920F920FB60F924B
:1003000011248F939F93EF93FF939091A20080917C
:10031000A100981779F08091A1008F5F8F7380936F
:10032000A100E091A100F0E0ED51FF4F80818CB978
:100330005E9A01C05598FF91EF919F918F910F9018
:100340000FBE0F901F901895882311F080E008953C
:100350008091990080939A008091A2008093A100DF
:1003600083E08BB910BC80E189B986E880BD88EB59
:100370008AB981E00895FF920F931F93CF93DF9383
:10038000582FEB01882321F020E040E0FF2416C025
:10039000F8949091A1008091A200891728F42091EF
:1003A000A1008091A20005C02091A1008091A2002F
:1003B000205C281B789441E07DE0F72E68816F7007
:1003C000062F10E030E0C80109968217930714F059
:1003D00080E0D1C0552309F59091A2009F5F9F73E3
:1003E0008091A100981741F0E92FF0E0ED51FF4F07
:1003F00040839093A200559A9091A2009F5F9F73B3
:100400008091A100981749F0E92FF0E08881ED5123
:10041000FF4F80839093A200559A2981552381F440
:100420009091A2009F5F9F738091A100981741F067
:10043000E92FF0E0ED51FF4F20839093A200559AF1
:100440002A81552381F49091A2009F5F9F73809130
:10045000A100981741F0E92FF0E0ED51FF4F208304
:100460009093A200559A2B81552381F49091A2007C
:100470009F5F9F738091A100981741F0E92FF0E0F2
:10048000ED51FF4F20839093A200559A2C81552364
:1004900081F49091A2009F5F9F738091A1009817B3
:1004A00041F0E92FF0E0ED51FF4F20839093A2003F
:1004B000559A20E018C05523A9F49091A2009F5F9F
:1004C0009F738091A100981769F0E92FF0E0DE0199
:1004D000A20FB11D15968C91ED51FF4F8083909323
:1004E000A200559A2F5F261730F3552381F490917F
:1004F000A2009F5F9F738091A100981741F0E92FA0
:10050000F0E0ED51FF4F10829093A200559AB80190
:100510006B5F7F4F20E030E040E0FE01E20FF31F11
:100520008081480F2F5F3F4F26173707B0F35523C1
:1005300009F59091A2009F5F9F738091A100981789
:1005400049F0E92FF0E04195ED51FF4F4083909342
:10055000A200559A9091A2009F5F9F738091A10085
:10056000981741F0E92FF0E0ED51FF4FF0829093A2
:10057000A200559A81E0DF91CF911F910F91FF90DA
:100580000895BF92CF92DF92EF92FF920F931F9345
:10059000CF93DF93DB01882311F0BB2430C183EAC2
:1005A00090E09093A00080939F0089E990E0909361
:1005B0009E0080939D008AE990E090939C00809338
:1005C0009B0070919A007F5F7F73BB2460E000E026
:1005D00010E009C1662359F4ED55FF4F8081813049
:1005E00019F4072F61E0FDC070939A00FAC06130E2
:1005F00059F4ED55FF4F90819C938C9186FD02C07C
:10060000192F1F7062E0EDC0623059F4ED55FF4FB5
:10061000808111968C93119712961C92129763E029
:10062000E0C0633089F4ED55FF4F8081F82EEE2451
:1006300011968D919C9112978E0D9F1D12969C93F1
:100640008E93119764E0CDC0643059F4ED55FF4F9F
:10065000808113968C93139714961C92149765E0DF
:10066000C0C0653089F4ED55FF4F8081D82ECC2471
:1006700013968D919C9114978C0D9D1D14969C93AF
:100680008E93139766E0ADC0663059F4112309F4D8
:100690006DC0ED55FF4F808115968C93159767E0DF
:1006A000A0C0673069F4123008F460C0E72FF0E0B2
:1006B000ED55FF4F808116968C93169768E091C098
:1006C000683069F4133008F451C0E72FF0E0ED55BD
:1006D000FF4F808117968C93179769E082C069302D
:1006E00069F4143008F442C0E72FF0E0ED55FF4FF5
:1006F000808118968C9318976AE073C06A3061F411
:100700001530A0F1E72FF0E0ED55FF4F80811996ED
:100710008C9319976BE065C06B3061F4163030F143
:10072000E72FF0E0ED55FF4F80811A968C931A97D2
:100730006CE057C06C3061F41730C0F0E72FF0E088
:10074000ED55FF4F80811B968C931B976DE049C040
:100750006D3061F4183051F4E72FF0E0ED55FF4FA4
:1007600080811C968C931C976EE03BC0462F50E016
:10077000212F30E0C901069648175907E1F0C90159
:10078000079648175907C9F4E72FF0E0ED55FF4FDA
:100790009081E901259620E030E040E0FD01E20F84
:1007A000F31F8081480F2F5F3F4F2C173D07B0F399
:1007B0004195941771F46F5F14C0285F3F4F421743
:1007C000530779F4E72FF0E0ED55FF4F80818D302E
:1007D00021F000939A0060E006C070939A00BB2459
:1007E000B3947F5F7F7380919900E72FF0E090E0F2
:1007F00001968F739070E817F90709F0EBCE8B2DF7
:10080000DF91CF911F910F91FF90EF90DF90CF90EC
:10081000BF900895DF93CF930F92CDB7DEB7898352
:100820006E98898180FF10C0898181FF06C087B3DF
:10083000806A87BBBE986C9A05C0BE9A87B38F75D5
:1008400087BB6C986E9A03C087B38F7187BB0F907C
:10085000CF91DF9108951FB8779BFECF8FB1089598
:100860008FB9779BFECF08958FB9779BFECF8FB15D
:100870000895FF920F931F93082FF62E142F41E037
:100880000E94A70083E08FB9779BFECF8FB11FB97D
:10089000779BFECF8FB18FEF8FB9779BFECF1FB1C4
:1008A000802F6F2D43E00E94A700812F1F910F9191
:1008B000FF900895EF92FF920F931F93082FF62E4B
:1008C000142FE22E41E00E94A70082E08FB9779BAF
:1008D000FECF8FB11FB9779BFECF8FB1EFB8779B5B
:1008E000FECF8FB1802F6F2D43E00E94A7001F9194
:1008F0000F91FF90EF900895DF92EF92FF920F9388
:100900001F93E82ED62E142FF22E41E00E94A7004E
:1009100085E08FB9779BFECF8FB11FB9779BFECF54
:100920008FB1FFB8779BFECF8FB10FB9779BFECF0A
:100930008FB18E2D6D2D43E00E94A7001F910F9166
:10094000FF90EF90DF9008958F929F92AF92BF92A9
:10095000CF92DF92EF92FF920F931F93DF93CF938B
:10096000CDB7DEB7F82ED62E142FB22E902E0C2D2A
:1009700043E00E94A700812F0E940A048F2D6D2D55
:1009800041E00E94A70080EC8FB9779BFECF8FB12A
:100990008F2D6D2D43E00E94A70080E49FE1019719
:1009A000F1F78F2D6D2D4AE22B2D0E945A048F2DC9
:1009B0006D2D49E2292D0E945A048F2D6D2D48E29C
:1009C0002E2D0E945A048F2D6D2D40E624E60E94A4
:1009D0005A048F2D6D2D40E720E60E945A048F2D7A
:1009E0006D2D4BE223E00E945A04002379F1083078
:1009F00020F4802F6A2D41E005C0003130F4802FB3
:100A00006A2D43E00E94A70021C00C3F31F48F2DD6
:100A10006D2D4CE024E104E017C00D3F31F48F2D23
:100A20006D2D4CE028E208E00FC00E3F31F48F2D11
:100A30006D2D4CE024E104E107C00F3F39F48F2D08
:100A40006D2D4CE028E208E20E947C048F2D6D2D74
:100A50004CE02CE00E945A048F2D6D2D4FE020EECB
:100A6000082D0E947C048F2D6D2D4FE00E943904CB
:100A700040E090E0807E9070282D30E08217930750
:100A800009F441E0842FCF91DF911F910F91FF90E6
:100A9000EF90DF90CF90BF90AF909F908F90089590
:100AA000DF92EF92FF920F931F93DF93CF930F92FA
:100AB000CDB7DEB7082FD62E142F198243E00E943F
:100AC000A700812F0E940A04802F6D2D41E00E9413
:100AD000A70080EB8FB9779BFECF8FEF8FB9779B05
:100AE000FECF9FB18FEF8FB9779BFECF8FB19983E8
:100AF000802F6D2D43E00E94A700898186FF02C0F0
:100B000010E906C0898187FD02C080E047C014E972
:100B1000802F6D2D41E00E94A7001FB9779BFECF6B
:100B20001FB8779BFECF8FB1F70181831FB8779BEA
:100B3000FECF8FB1F70180831FB8779BFECF8FB1B7
:100B4000F70183831FB8779BFECF8FB1F7018283B4
:100B50001FB8779BFECF8FB1F7018483848186FD18
:100B600010C090E009C01FB8779BFECF8FB1F7018E
:100B7000E90FF11D85839F5FF7018481981798F332
:100B800007C0F70180E015828F5F31968830D9F772
:100B9000802F6D2D43E00E94A70081E00F90CF9140
:100BA000DF911F910F91FF90EF90DF900895CF920A
:100BB000DF92EF92FF920F931F93DF93CF930F92E9
:100BC000CDB7DEB7082FD62E142F198243E00E942E
:100BD000A700812F0E940A04802F6D2D41E00E9402
:100BE000A70080EA8FB9779BFECF8FEF8FB9779BF5
:100BF000FECF9FB18FEF8FB9779BFECF8FB19983D7
:100C0000802F6D2D43E00E94A700898182FD04C0E2
:100C100010E4A1E8CA2E0FC0898184FD04C012E44B
:100C2000F2E8CF2E08C0898186FF02C080E048C06C
:100C300014E4E4E8CE2E802F6D2D41E00E94A70041
:100C40001FB9779BFECFF70181818FB9779BFECFCC
:100C5000F70180818FB9779BFECFF70183818FB930
:100C6000779BFECFF70182818FB9779BFECFF7018B
:100C700024812FB9779BFECFF701848186FD0CC0BC
:100C800090E008C0F701E90FF11D85818FB9779BCE
:100C9000FECF9F5F9217B0F3802F6D2D43E00E942F
:100CA000A7000000802F6D2D41E00E94A700CFB863
:100CB000779BFECF802F6D2D43E00E94A70081E03F
:100CC0000F90CF91DF911F910F91FF90EF90DF90E8
:100CD000CF9008958F92AF92CF92EF920F93882387
:100CE00011F080E00CC082E064E043E021E006EB1C
:100CF000B4E0EB2ECC24AA2488240E94A4040F91F3
:100D0000EF90CF90AF908F900895AF92BF92CF9217
:100D1000DF92EF92FF920F93DF93CF93CDB7DEB7C1
:100D20002D970FB6F894DEBF0FBECDBF6B018823A1
:100D300009F066C082E064E043E020E000E05E018C
:100D40000894A11CB11C75010E945005813009F066
:100D500057C0EA818E2F90E0807C907095958795A2
:100D6000959587950D81F02FFF70F82BD601FC9398
:100D70006C81498150E03E2F330F330F20E0862FE6
:100D8000869586958695280F311DCA0183709070CF
:100D900075E0880F991F7A95E1F7280F391F407E7B
:100DA0005070440F551F440F551F240F351F1296C6
:100DB0003C932E93119770E067707070762F6627C2
:100DC0008B81680F711D14967C936E9313978D81A0
:100DD00086FD0AC0DE011696F601202F30E02B5F5B
:100DE0003F4F2A0D3B1D06C0F064D601FC9306C0A0
:100DF0008D9184833196A217B307D1F781E001C0AA
:100E000080E02D960FB6F894DEBF0FBECDBFCF9118
:100E1000DF910F91FF90EF90DF90CF90BF90AF9058
:100E20000895EF92FF920F93DF93CF93CDB7DEB784
:100E30002D970FB6F894DEBF0FBECDBFFB01882300
:100E400011F090E04EC09281969596956081862F24
:100E5000880F880F807C892B8A8341815281CA0147
:100E60009695879596958795807E9A01A5E036950B
:100E70002795AA95E1F72370822B88608983848166
:100E80008770440F440F440F842B8C8383818B83A2
:100E90006F706D83808186FD0AC0DF01FE0136968A
:100EA000CE01860F911DBC016A5F7F4F07C0606451
:100EB0006D8308C014968C91149781931196E61750
:100EC000F707C1F782E064E043E020E000E07E0144
:100ED0000894E11CF11C0E94D70590E0813009F4D0
:100EE00091E0892F2D960FB6F894DEBF0FBECDBFCF
:100EF000CF91DF910F91FF90EF900895FFCF0F9367
:100F00001F938C0180E0B8010E94BB0180E0B80112
:100F10000E9411071F910F910895DF92EF92FF92A7
:100F20000F931F93DF93CF93CDB7DEB72D970FB6F7
:100F3000F894DEBF0FBECDBFAC01FC01D0806D2D9B
:100F40006F70E380F4800091940010919500DC01B3
:100F5000FE0136969E01260F311D2A5F3F4F04C0C9
:100F600014968C91149781931196E217F307C1F7A9
:100F7000FA018581823009F090C0623009F046C1E3
:100F80008E81806C8E8326812223C1F4E199FECF6D
:100F900082E190E09FBB8EBBE09A8DB3882309F479
:100FA00062C0E199FECF82E190E09FBB8EBB1DBA8B
:100FB0000FB6F894E29AE19A0FBE6EC02130C9F4E0
:100FC000E199FECF82E190E09FBB8EBBE09A8DB3AA
:100FD000813009F461C0E199FECF82E190E09FBBCE
:100FE0008EBB81E08DBB0FB6F894E29AE19A0FBEFA
:100FF00053C0283009F037C0E199FECF8BE190E073
:101000009FBB8EBBE09A2DB32F5FE199FECF8BE1A2
:1010100090E09FBB8EBBE09A8DB3821761F0E1999F
:10102000FECF8BE190E09FBB8EBB2DBB0FB6F8943B
:10103000E29AE19A0FBEE199FECF82E190E09FBB78
:101040008EBBE09A8DB3883039F1E199FECF82E111
:1010500090E09FBB8EBB88E08DBB0FB6F894E29A00
:10106000E19A0FBE19C02930B9F4E199FECF82E1AF
:1010700090E09FBB8EBBE09A8DB3893069F0E19917
:10108000FECF82E190E09FBB8EBB89E08DBB0FB6A7
:10109000F894E29AE19A0FBEFFCF863009F043C080
:1010A000613009F0B3C080919700893009F0AEC07B
:1010B00080919600282F30E0A895E199FECF3FBBA4
:1010C0002EBBE09A8DB3882351F0E199FECF3FBB50
:1010D0002EBB1DBA0FB6F894E29AE19A0FBE2F5FAD
:1010E0003F4FF2E020303F0738F32CE130E0F901C8
:1010F000EC5BFF4FE081E199FECF3FBB2EBBE09A56
:101100008DB38E1751F0E199FECF3FBB2EBBEDBBE7
:101110000FB6F894E29AE19A0FBE2F5F3F4F20324C
:10112000310529F7FFCF873071F5643008F46EC0C0
:10113000FA01978180E02681DC01A20FB11DF2E067
:10114000A030BF0708F062C08E81806C8E8340E0C3
:10115000262F30E023503040BE01675F7F4F0DC027
:10116000E199FECFCD01840F911D9FBB8EBBE09A0C
:101170008DB3E60FF71F80834F5FE42FF0E0E21797
:10118000F30774F343C0883009F040C0643008F4BA
:101190003DC080919700893009F038C0FA019781ED
:1011A00080E02681DC01A20FB11D8091960090E0C5
:1011B000A817B90758F1F2E0A030BF0738F58E81C3
:1011C000806C8E8390E0262F30E02350304019C091
:1011D000BF016A0F7B1FE40FF51FE085E199FECF89
:1011E0007FBB6EBBE09A8DB38E1751F0E199FECFB5
:1011F0007FBB6EBBEDBB0FB6F894E29AE19A0FBECF
:101200009F5FE92FF0E0E217F30714F38E8180640B
:101210008E831D830C83FB82EA82D982CE010196E4
:101220000E947F072D960FB6F894DEBF0FBECDBF8C
:10123000CF91DF911F910F91FF90EF90DF90089574
:101240002091960030E0220F331F820F931F69E434
:1012500070E00E94530A089569E470E00E94530A06
:101260000895FF920F931F93DF93CF93CDB7DEB70F
:101270002D970FB6F894DEBF0FBECDBF2DE088E1ED
:1012800090E00FB6F894A89581BD0FBE21BDA8953A
:1012900080E190E069E470E00E94530A9093950029
:1012A0008093940001978F5F9740B8F0E199FECF4B
:1012B00082E190E09FBB8EBBE09A8DB3882361F002
:1012C000E199FECF82E190E09FBB8EBB1DBA0FB6C5
:1012D000F894E29AE19A0FBEFFCF2CE030E0F901DA
:1012E000EC5AFF4FE081E199FECF3FBB2EBBE09A65
:1012F0008DB38E1751F0E199FECF3FBB2EBBEDBBF6
:101300000FB6F894E29AE19A0FBE2F5F3F4F20315B
:10131000310529F7E199FECF8AE190E09FBB8EBBB2
:10132000E09A8DB380939600E199FECF82E190E040
:101330009FBB8EBBE09A8DB380939700885082301C
:10134000D0F088E080939700E199FECF82E190E0B1
:101350009FBB8EBBE09A8DB3883069F0E199FECFD8
:1013600082E190E09FBB8EBB88E08DBB0FB6F89406
:10137000E29AE19A0FBE409198002CE130E0E199A9
:10138000FECF3FBB2EBBE09A8DB3F901EC5BFF4F64
:101390009081891341602F5F3F4F2032310579F7EB
:1013A0004093980078948091990080939A0080915E
:1013B000A2008093A10083E08BB910BC80E189B9C1
:1013C00086E880BD88EB8AB980E00E946A06409179
:1013D00094005091950081E28E83FE01379624E0BF
:1013E00030E0E199FECF3FBB2EBBE09A8DB38193F5
:1013F0002F5F3F4F28303105A1F7E199FECF82E101
:1014000090E09FBB8EBBE09A8DB38B878091980054
:101410008C875D834C8382E090EF9B838A8387E295
:1014200089838E010F5F1F4FC8010E947F07F02E36
:10143000012FA89580E06F2D702F0E94C10281308E
:10144000A9F480E06F2D702F0E94110789818073AD
:1014500069F42A813B81809194009091950028172E
:10146000390721F48F2D902F0E948D0780E06F2D7A
:10147000702F0E9485068130E1F680E06F2D702F7D
:101480000E94BB0189818073A1F62A813B818091F2
:101490009400909195002817390759F68F2D902FB9
:1014A0000E948D07C6CFDF92EF92FF920F931F939A
:1014B0007B018C01FB010995D82EC8010196F7012B
:1014C0000995982F8D2D1F910F91FF90EF90DF9030
:0614D0000895F894FFCF1F
:1014D6001000010023013A003700340031002301D7
:1014E6002301230123013B0038003500320023018C
:1014F6002301230123013900360033003000230184
:041506002301230199
:00000001FF
