:100000000C94E7000C9404010C9404010C9404017A
:100010000C9404010C9404010C9404010C9404014C
:100020000C9404010C9404010C9404010C9404013C
:100030000C9404010C9404010C9404010C9404012C
:100040000C9404010C9404010C9404010C9404011C
:100050000C9404010C9404010C9404010C9404010C
:100060000C9404010C940401830E910E980E9F0EC3
:10007000A60EAD0EB40EBB0EC20EC90ED00ED70E1C
:10008000DE0EE50EEC0EF30EFA0E010F080F0F0F49
:10009000160F1D0F240F2B0F320F390F400F470F74
:1000A0004E0F550F5C0F630F6A0F710F780F7F0FA4
:1000B000860F8D0F940F9B0FA20FA90FB00FB70FD4
:1000C000BE0FC50FCC0FD30FDA0FE10FE80FEF0F04
:1000D000F60FFD0F04100B1012101910201027102E
:1000E0000001020506070A0B0C0F10111415161952
:1000F0001A1B1E1F2023242528292A2B2C2D2E2FA6
:10010000303132333435363738393A3B3C3D3E3F77
:10011000404142434445464748494A4B03080D1273
:10012000171C212604090E13181D222700000001A8
:100130000101020202030303040404050505060687
:100140000607070708080808090909090A0A0A0A28
:100150000B0B0B0B0C0C0C0C0D0D0D0D0E0E0E0ED7
:100160000F0F0F0F101010100001020304050607F7
:10017000000102030405060708090A0B0C0D0E0F07
:1001800010181C2024282C303438191D2125292D25
:100190003135391A1E22262A2E32363A1B1F2327C2
:1001A0002B2F33373B232416172526271112000146
:1001B00002030405060758595A5B5C5D606101043F
:1001C000070A0D1013160205080B0E11141711243F
:1001D0001FBECFEFD4E0DEBFCDBF11E0A0E0B1E0A5
:1001E000E0E0F0E302C005900D92A433B107D9F727
:1001F00014E0A4E3B1E001C01D92A034B107E1F71F
:100200000E94C6160C94FE170C9400009C01F999EC
:10021000FECF32BD21BDF89A80B508959C01F999B1
:10022000FECF32BD21BDF89A80B50895F999FECF71
:100230009C0192BD81BDF89A80B5861759F0F99955
:10024000FECF1FBA32BD21BD60BD0FB6F894FA9A39
:10025000F99A0FBE089520913601F999FECF820FC9
:10026000911D92BD81BDF89A80B50895AC01809131
:100270003601282F30E0F999FECFCA01820F931F73
:1002800092BD81BDF89A80B5861769F0F999FECFC5
:100290001FBA240F351F32BD21BD60BD0FB6F894C3
:1002A000FA9AF99A0FBE0895E82FF0E0EE0FFF1FBB
:1002B000EC5DFE4F0190F081E02D808190E002C066
:1002C000959587956A95E2F78170089591E002C04F
:1002D000990F61506623E1F7A82FB0E0FD01EE0F02
:1002E000FF1FEC5EFE4F0190F081E02D8081892B95
:1002F00041FF89278083AA0FBB1FAC5FBE4FED91E2
:10030000FC918081892B40FF892780830895DF93AA
:10031000CF930F92CDB7DEB789838CB58F7B8CBD21
:10032000898180FF15C0898181FF07C084B18862FF
:1003300084B924988CB5806106C0249A84B1877DE5
:1003400084B98CB58F7E8CBD8CB580648CBD03C0A8
:1003500084B1877C84B90F90CF91DF9108951EBC42
:100360000DB407FEFDCF8EB508958EBD0DB407FE0A
:10037000FDCF08958EBD0DB407FEFDCF8EB5089557
:10038000FF920F931F93082FF62E142F41E00E9427
:10039000660183E08EBD0DB407FEFDCF8EB51EBD98
:1003A0000DB407FEFDCF8EB58FEF8EBD0DB407FEE9
:1003B000FDCF1EB5802F6F2D43E00E946601812F77
:1003C0001F910F91FF900895EF92FF920F931F934B
:1003D000082FF62E142FE22E41E00E94660182E0E3
:1003E0008EBD0DB407FEFDCF8EB51EBD0DB407FE4C
:1003F000FDCF8EB5EEBC0DB407FEFDCF8EB5802FC0
:100400006F2D43E00E9466011F910F91FF90EF90C6
:100410000895DF92EF92FF920F931F93E82ED62E4E
:10042000142FF22E41E00E94660185E08EBD0DB4CE
:1004300007FEFDCF8EB51EBD0DB407FEFDCF8EB5F8
:10044000FEBC0DB407FEFDCF8EB50EBD0DB407FE8C
:10045000FDCF8EB58E2D6D2D43E00E9466011F915C
:100460000F91FF90EF90DF9008958F929F92AF923F
:10047000BF92CF92DF92EF92FF920F931F93DF9381
:10048000CF93CDB7DEB7F82ED62E142FB22E902EE6
:100490000C2D43E00E946601812F0E9487018F2D61
:1004A0006D2D41E00E94660180EC8EBD0DB407FE0B
:1004B000FDCF8EB58F2D6D2D43E00E94660180EA41
:1004C0009FE00197F1F78F2D6D2D4AE22B2D0E94B1
:1004D000E4018F2D6D2D49E2292D0E94E4018F2D1D
:1004E0006D2D48E22E2D0E94E4018F2D6D2D40E6EA
:1004F00024E60E94E4018F2D6D2D40E720E60E9446
:10050000E4018F2D6D2D4BE223E00E94E4010023D6
:1005100079F1083020F4802F6A2D41E005C00031C8
:1005200030F4802F6A2D43E00E94660121C00C3F09
:1005300031F48F2D6D2D4CE024E104E017C00D3F08
:1005400031F48F2D6D2D4CE028E208E00FC00E3FF6
:1005500031F48F2D6D2D4CE024E104E107C00F3FF5
:1005600039F48F2D6D2D4CE028E208E20E9409023B
:100570008F2D6D2D4CE02CE00E94E4018F2D6D2D10
:100580004FE020EE082D0E9409028F2D6D2D4FE0C7
:100590000E94C00140E090E0807E9070282D30E005
:1005A0008217930709F441E0842FCF91DF911F91C7
:1005B0000F91FF90EF90DF90CF90BF90AF909F9002
:1005C0008F900895DF92EF92FF920F931F93DF9326
:1005D000CF930F92CDB7DEB7082FD62E142F1982E6
:1005E00043E00E946601812F0E948701802F6D2DBC
:1005F00041E00E94660180EB8EBD0DB407FEFDCF89
:100600008FEF8EBD0DB407FEFDCF9EB58FEF8EBD73
:100610000DB407FEFDCF8EB59983802F6D2D43E07D
:100620000E946601898186FF02C010E906C08981A7
:1006300087FD02C080E04EC014E9802F6D2D41E09F
:100640000E9466011EBD0DB407FEFDCF1EBC0DB499
:1006500007FEFDCF8EB5F70181831EBC0DB407FEEA
:10066000FDCF8EB5F70180831EBC0DB407FEFDCF14
:100670008EB5F70183831EBC0DB407FEFDCF8EB58A
:10068000F70182831EBC0DB407FEFDCF8EB5F701C6
:100690008483848186FD11C090E00AC01EBC0DB425
:1006A00007FEFDCF8EB5F701E90FF11D85839F5F32
:1006B000F7018481981790F307C0F70180E0158255
:1006C0008F5F31968830D9F7802F6D2D43E00E94DF
:1006D000660181E00F90CF91DF911F910F91FF9004
:1006E000EF90DF900895CF92DF92EF92FF920F93F9
:1006F0001F93DF93CF930F92CDB7DEB7082FD62E7F
:10070000142F198243E00E946601812F0E94870105
:10071000802F6D2D41E00E94660180EA8EBD0DB4F0
:1007200007FEFDCF8FEF8EBD0DB407FEFDCF9EB54A
:100730008FEF8EBD0DB407FEFDCF8EB59983802F50
:100740006D2D43E00E946601898182FD04C010E4A2
:1007500061E8C62E0FC0898184FD04C012E452E80E
:10076000C52E08C0898186FF02C080E050C014E415
:1007700044E8C42E802F6D2D41E00E9466011EBD0D
:100780000DB407FEFDCFF70181818EBD0DB407FECC
:10079000FDCFF70180818EBD0DB407FEFDCFF701BF
:1007A00083818EBD0DB407FEFDCFF70182818EBD22
:1007B0000DB407FEFDCFF70124812EBD0DB407FE59
:1007C000FDCFF701848186FD0DC090E009C0F701DF
:1007D000E90FF11D85818EBD0DB407FEFDCF9F5F32
:1007E0009217A8F3802F6D2D43E00E946601000050
:1007F000802F6D2D41E00E946601CEBC0DB407FE36
:10080000FDCF802F6D2D43E00E94660181E00F90A7
:10081000CF91DF911F910F91FF90EF90DF90CF90DC
:1008200008958F92AF92CF92EF920F93882311F099
:1008300080E00EC082E060E043E021E006EBE4E00F
:10084000EE2ECC24CA9472E0A72E88240E94350292
:100850000F91EF90CF90AF908F900895AF92BF928D
:10086000CF92DF92EF92FF920F93DF93CF93CDB7AA
:10087000DEB72D970FB6F894DEBF0FBECDBF6B016C
:10088000882309F066C082E060E043E02FEF02E0D9
:100890005E010894A11CB11C75010E94E202813026
:1008A00009F057C0EA818E2F90E0807C907095957A
:1008B0008795959587950D81F02FFF70F82BD601C0
:1008C000FC936C81498150E03E2F330F330F20E0C1
:1008D000862F869586958695280F311DCA018370CF
:1008E000907075E0880F991F7A95E1F7280F391FEE
:1008F000407E5070440F551F440F551F240F351F65
:1009000012963C932E93119770E067707070762F5B
:1009100066278B81680F711D14967C936E931397D5
:100920008D8186FD0AC0DE011696F601202F30E08B
:100930002B5F3F4F2A0D3B1D06C0F064D601FC9390
:1009400006C08D9184833196A217B307D1F781E059
:1009500001C080E02D960FB6F894DEBF0FBECDBF6C
:10096000CF91DF910F91FF90EF90DF90CF90BF90EC
:10097000AF900895EF92FF920F93DF93CF93CDB78F
:10098000DEB72D970FB6F894DEBF0FBECDBFFB01CB
:10099000882311F090E04EC09281969596956081E3
:1009A000862F880F880F807C892B8A834181528112
:1009B000CA019695879596958795807E9A01A5E0C0
:1009C00036952795AA95E1F72370822B8860898355
:1009D00084818770440F440F440F842B8C83838160
:1009E0008B836F706D83808186FD0AC0DF01FE01FD
:1009F0003696CE01860F911DBC016A5F7F4F07C0FE
:100A000060646D8308C014968C911497819311963D
:100A1000E617F707C1F782E060E043E02FEF02E05E
:100A20007E010894E11CF11C0E94730390E0813068
:100A300009F491E0892F2D960FB6F894DEBF0FBE12
:100A4000CDBFCF91DF910F91FF90EF90089582E09D
:100A500084BD93E095BD16BC9DE797BD80936E0065
:100A600008958091390180FF50C080913B019091A1
:100A70003C010A9748F080913A01816080933A01E5
:100A800010923C0110923B018091400190914101F4
:100A90000A9748F080913F01816080933F01109256
:100AA00041011092400180914301909144010A97C5
:100AB00048F080914201816080934201109244018C
:100AC0001092430180914601909147010A9748F0A6
:100AD00080914501816080934501109247011092F9
:100AE00046018091490190914A010A9748F080910E
:100AF000480181608093480110924A011092490197
:100B0000809139018E7F8093390108958091390158
:100B100081608093390180913B0190913C01019665
:100B200090933C0180933B01809140019091410161
:100B300001969093410180934001809143019091EF
:100B400044010196909344018093430180914601B2
:100B500090914701019690934701809346018091BF
:100B6000490190914A01019690934A01809349016D
:100B700008951F920F920FB60F9211248F939F9397
:100B80008091390181608093390180913B0190917E
:100B90003C01019690933C0180933B018091400180
:100BA0009091410101969093410180934001809181
:100BB0004301909144010196909344018093430135
:100BC000809146019091470101969093470180934F
:100BD00046018091490190914A01019690934A0102
:100BE000809349019F918F910F900FBE0F901F909E
:100BF000189580913601A82FB0E0EEE1F4E060E0B6
:100C0000673009F44BC0683070F4633099F1643098
:100C100028F4613001F1623040F522C06530A1F165
:100C20006630B8F52CC06B3009F44CC06C3030F431
:100C30006930F1F16A3008F040C035C06D3009F418
:100C40004BC06D3008F443C06E3009F44AC06F30B9
:100C500009F051C04BC045E150E089E290E04FC03F
:100C600040E050E084E190E04AC04AE250E08EE388
:100C700090E045C04FE350E083E590E040C044E59C
:100C800050E088E690E03BC049E650E08DE790E018
:100C900036C04EE750E082E990E031C043E950E0D1
:100CA00087EA90E02CC048EA50E08FEB90E027C044
:100CB00040EC50E087ED90E022C048ED50E08FEE30
:100CC00090E01DC040EF50E087E091E018C048E0A0
:100CD00051E08FE191E013C040E251E087E391E001
:100CE0000EC048E351E08FE491E009C040E551E0D7
:100CF00087E691E004C040E050E080E090E011829F
:100D000010824817590780F49A012F5F3F4F8217CE
:100D10009307D8F7F999FECF4A0F5B1F52BD41BD2B
:100D2000F89A80B5808311826F5F3296613109F045
:100D300067CF08952F923F924F925F926F927F926A
:100D40008F929F92AF92BF92CF92DF92EF92FF92DB
:100D50000F931F93CF93DF9380913601282E332476
:100D6000A4E34A2EA3E05A2E6624772484E0681672
:100D700009F498C0861570F091E0691609F447C02F
:100D80006916B8F0A2E06A1609F45AC0B3E06B160F
:100D900049F56FC0E6E06E1609F4BEC06E1608F4A1
:100DA0009EC0F7E06F1609F4D4C088E06816D1F44D
:100DB000EDC0F9EA8F2E912CEAEAAE2EB12C7BEA37
:100DC000C72ED12C6CEAE62EF12C0DEA10E0CEEA0B
:100DD000D0E0AFEAB0E060EB70E041EB50E022EB36
:100DE00030E0F0C088249924AA24BB24CC24DD243C
:100DF000EE24FF2400E010E0C0E0D0E0A0E0B0E08E
:100E000060E070E040E050E020E030E0DBC051EC1A
:100E1000852E912C42ECA42EB12C33ECC32ED12C78
:100E200024ECE22EF12C05EC10E0C6ECD0E0A7ECAF
:100E3000B0E068EC70E049EC50E02AEC30E0C2C071
:100E400099ED892E912C8AEDA82EB12C0BEDC02E98
:100E5000D12C1CEDE12EF12C0DED10E0CEEDD0E00B
:100E6000AFEDB0E060EE70E041EE50E022EE30E039
:100E7000A9C0B1EF8B2E912CA2EFAA2EB12CF3EFCB
:100E8000CF2ED12CE4EFEE2EF12C05EF10E0C6EFC3
:100E9000D0E0A7EFB0E068EF70E049EF50E02AEF54
:100EA00030E090C079E0872E71E0972E6AE0A62EA0
:100EB00061E0B62E5BE0C52E51E0D52E4CE0E42E6D
:100EC00041E0F42E0DE011E0CEE0D1E0AFE0B1E082
:100ED00060E171E041E151E022E131E073C031E2D3
:100EE000832E31E0932E22E2A22E21E0B22E93E255
:100EF000C92E91E0D92E84E2E82E81E0F82E05E299
:100F000011E0C6E2D1E0A7E2B1E068E271E049E2B7
:100F100051E02AE231E056C009E3802E01E0902E34
:100F20001AE3A12E11E0B12EBBE3CB2EB1E0DB2EF4
:100F3000ACE3EA2EA1E0FA2E0DE311E0CEE3D1E01E
:100F4000AFE3B1E060E471E041E451E022E431E07C
:100F500039C0F1E58F2EF1E09F2EE2E5AE2EE1E003
:100F6000BE2E73E5C72E71E0D72E64E5E62E61E054
:100F7000F62E05E511E0C6E5D1E0A7E5B1E068E5AC
:100F800071E049E551E02AE531E01CC059E6852EC3
:100F900051E0952E4AE6A42E41E0B42E3BE6C32E46
:100FA00031E0D32E2CE6E22E21E0F22E0DE611E008
:100FB000CEE6D1E0AFE6B1E060E771E041E751E0B5
:100FC00022E731E0F301E858FE4FE491F0E0EE0F44
:100FD000FF1FE25EFB4F808180FF66C0F999FECF64
:100FE000820C931C92BC81BCF89A80B5F20180837C
:100FF000F999FECFA20CB31CB2BCA1BCF89A80B583
:10100000F2018183F999FECFC20CD31CD2BCC1BCC2
:10101000F89A80B5F2018283F999FECFE20CF31CB5
:10102000F2BCE1BCF89A80B5F2018383F999FECF56
:10103000020D131D12BD01BDF89A80B5F201848323
:10104000F999FECFC20DD31DD2BDC1BDF89A80B5AE
:10105000F2018583F999FECFA20DB31DB2BDA1BDEA
:10106000F89A80B5D20116968C93F999FECF620D4D
:10107000731D72BD61BDF89A80B5F2018783F9993D
:10108000FECF420D531D52BD41BDF89A80B5D2012D
:1010900018968C93F999FECF220D331D32BD21BDD8
:1010A000F89A80B5F20181870894611C711C8AE16D
:1010B00090E0480E591E99E06916710409F056CE69
:1010C0000BE411E0C0E0D0E0C330A9F1C43028F453
:1010D000C130F9F0C23030F50AC0C530F1F1C53089
:1010E00098F1C63009F442C0C73051F448C0A1E0BD
:1010F000B0E062E070E043E050E024E030E047C060
:10110000A0E0B0E060E070E040E050E020E030E0DF
:101110003EC0A6E1B0E067E170E048E150E029E1BF
:1011200030E035C0ABE2B0E06CE270E04DE250E0A0
:101130002EE230E02CC0A0E4B0E061E470E042E4D4
:1011400050E023E430E023C0A5E5B0E066E570E0C0
:1011500047E550E028E530E01AC0AAE6B0E06BE6CB
:1011600070E04CE650E02DE630E011C0AFE7B0E0B3
:1011700060E870E041E850E022E830E008C0A4E90F
:10118000B0E065E970E046E950E027E930E0FE01B3
:10119000E255FE4FE491F0E0EE0FFF1FE25EFB4FE1
:1011A000808180FF46C080913601E82FF0E0F999F8
:1011B000FECFAE0FBF1FB2BDA1BDF89A80B5D8015A
:1011C0008C93F999FECF6E0F7F1F72BD61BDF89AA7
:1011D00080B5D80111968C93F999FECF4E0F5F1F01
:1011E00052BD41BDF89A80B5D80112968C93F999F9
:1011F000FECF2E0F3F1F32BD21BDF89A80B5F801FA
:101200008383FE01EA54FE4F6491262F30E0C9012A
:101210008873907033E0959587953A95E1F7882328
:1012200041F0677026FD02C040E001C042E00E942C
:1012300066012196085F1F4FC830D10509F044CFE1
:10124000DF91CF911F910F91FF90EF90DF90CF90A2
:10125000BF90AF909F908F907F906F905F904F90D6
:101260003F902F900895FB01918380830895FB01A7
:10127000880F991F9183808308953F924F925F92C8
:101280006F927F928F929F92AF92BF92CF92DF9296
:10129000EF92FF920F931F93CF93DF9380913A01C8
:1012A00080FFB9C1C4E3D3E07E0100E010E07AE141
:1012B000A72EB12CDD24D39461E0462E512C50E1B1
:1012C000652E5EE0752E4CE3342E38EE832E33E02F
:1012D000932EF801E858FE4FE491F0E0EE0FFF1F67
:1012E000E25EFB4F808180FF86C1F801EF57FE4F21
:1012F0002491F801E657FE4F3491F801E456FE4F71
:10130000C490F701808190E08076907080329105E2
:1013100039F0A22FB0E08034910509F052C023C00B
:10132000A22FB0E0232F30E0FD01EE0FFF1FEE0FE4
:10133000FF1FEC5BFD4F8381813059F0F901EE0F07
:10134000FF1FEE0FFF1FEC5BFD4F8381813009F023
:101350004BC0AA0FBB1FAA0FBB1FAA5BBD4F8C912E
:10136000882369F11FC0232F30E0FD01EE0FFF1F1E
:10137000EE0FFF1FEC5BFD4F8381813051F0F901CF
:10138000EE0FFF1FEE0FFF1FEC5BFD4F83818130DF
:1013900059F5AA0FBB1FAA0FBB1FAA5BBD4F8C91AB
:1013A000882351F4220F331F220F331F2A5B3D4F36
:1013B000F9018081882319F0DA8ADB8A15C01A8A3C
:1013C000FCCFFD01EE0FFF1FEE0FFF1FEC5BFD4F8B
:1013D0009381913049F4AA0FBB1FAA0FBB1FAA5BD0
:1013E000BD4F8C918A8B9B8B4A89898190E0837059
:1013F0009070009709F47AC0019709F077C00A9DB0
:10140000F0010B9DF00D1A9DF00D1124EB5CFC4FCB
:10141000808182FF34C0413089F48A859B85AC8508
:10142000BD850097A105B10551F10197A109B10949
:101430008A879B87AC87BD8740E021C08C8190E084
:10144000869D9001879D300D969D300D11248B81D6
:10145000839DC0011124280F391F8A81280F311D57
:10146000289DC001299D900D389D900D1124AA271B
:1014700097FDA095BA2F8A879B87AC87BD8780810F
:1014800083FF34C0442389F48E859F85A889B98958
:101490000097A105B10551F10197A109B1098E8706
:1014A0009F87A88BB98B41E021C08F8190E0869DFA
:1014B0009001879D300D969D300D11248E81839D66
:1014C000C0011124280F391F8D81280F311D289D3F
:1014D000C001299D900D389D900D1124AA2797FDDC
:1014E000A095BA2F8E879F87A88BB98B8C8984177C
:1014F00011F04C8BDD8A9D89913019F48C898E8B8B
:101500009F8B9F89913019F48E89888F998F898D4F
:10151000813009F043C0F801EB55FE4F6491F701AB
:10152000808190E083709070892BC1F50A9DA001A5
:101530000B9D500D1A9D500D1124FA01E45BFC4FD8
:101540008081262F30E080FF11C028733070E3E0E7
:1015500035952795EA95E1F72223F9F06770FA01AE
:10156000EC5CFC4F808182FD11C013C02873307089
:1015700073E0359527957A95E1F7222371F067702E
:10158000FA01EC5CFC4F808182FD03C0822F43E0B6
:1015900002C0822F41E00E946601198E988D0A9D3B
:1015A000F0010B9DF00D1A9DF00D1124E35CFC4F32
:1015B0002081E081992321F4E0FF02C091E007C07F
:1015C00080E0913009F481E0922F94259823EC2D4E
:1015D000F0E0DF01AA0FBB1FAA0FBB1FAA5BBD4F24
:1015E0008C91891741F09C93EE0FFF1FEE0FFF1FA8
:1015F000EC5BFD4FD3820F5F1F4F6A968AE190E04C
:10160000E80EF91E0930110509F063CE80913A0108
:101610008E7F80933A0180913F0180FF45C3CBE4E8
:10162000D1E000E010E071E0BAE5EB2EF801E25500
:10163000FE4FE491F0E0EE0FFF1FE25EFB4F808172
:1016400080FF26C3F801EA54FE4F2491F801E254CA
:10165000FE4F6491F801EA53FE4FF490888190E0C8
:10166000837090708130910509F444C082309105F7
:1016700009F440C0892B09F03EC0822F90E08873A6
:101680009070E3E095958795EA95E1F7982F882388
:1016900091F12770F80153E0EE0FFF1F5A95E1F723
:1016A000E55BFE4F8081E92FF0E082FD11C0EE0F77
:1016B000FF1FEC5DFE4F0190F081E02D808190E0F6
:1016C00002C0959587952A95E2F780FF13C010C058
:1016D000EE0FFF1FEC5DFE4F0190F081E02D808149
:1016E00090E002C0959587952A95E2F780FD02C0AB
:1016F0007C8301C01C828C818823B9F08F818F5F2D
:101700008F83843019F48D8180618D838F8188323D
:1017100019F48D8180648D838F81843621F4EF826A
:101720008D8180688D831E8211C08E818F5F8E8334
:10173000843019F48D8181608D838F81882329F015
:10174000883218F48D8180628D831F828981282FD1
:1017500030E0C90187709070892B09F099C2C901E6
:10176000887390708830910509F4AAC0893091057A
:101770001CF4892B49F08CC28031910509F43CC1DD
:10178000489709F085C2D4C1A80123E0440F551F32
:101790002A95E1F7405B5E4FFA01808184FF46C0E5
:1017A0008A8190E08F7090708130910571F4A62F3E
:1017B000B0E0FD01EE0FFF1FEE0FFF1FEA5BFD4FD4
:1017C0008081882381F1108210C082309105B1F4AC
:1017D000A62FB0E0FD01EE0FFF1FEE0FFF1FEA5B2B
:1017E000FD4F80818130F9F07083AA0FBB1FAA0FD3
:1017F000BB1FAC5BBD4F13967C9315C0039799F448
:10180000862F90E0880F991F880F991FDC01AA5B33
:10181000BD4F2C91FC01222311F47C9301C01C923A
:10182000EC5BFD4F73838D818F7E8D83FA01808108
:1018300080FF2EC28A8190E0807F90708031910578
:1018400071F4A62FB0E0FD01EE0FFF1FEE0FFF1F9A
:10185000EA5BFD4F8081882381F1108210C08032C5
:101860009105B1F4A62FB0E0FD01EE0FFF1FEE0FC2
:10187000FF1FEA5BFD4F80818130F9F07083AA0F72
:10188000BB1FAA0FBB1FAC5BBD4F13967C9315C04B
:10189000C09799F4862F90E0880F991F880F991FA1
:1018A000DC01AA5BBD4F2C91FC01222311F47C9337
:1018B00001C01C92EC5BFD4F73838D818E7FE7C16D
:1018C000A80123E0440F551F2A95E1F7405B5E4FC6
:1018D000FA01808184FF46C08A8190E08F70907009
:1018E0008130910571F4A62FB0E0FD01EE0FFF1FCE
:1018F000EE0FFF1FEA5BFD4F8081882381F110828C
:1019000010C082309105B1F4A62FB0E0FD01EE0FBA
:10191000FF1FEE0FFF1FEA5BFD4F80818130F9F062
:101920007083AA0FBB1FAA0FBB1FAC5BBD4F1396E2
:101930007C9315C0039799F4862F90E0880F991F28
:10194000880F991FDC01AA5BBD4F2C91FC0122235B
:1019500011F47C9301C01C92EC5BFD4F73838D816D
:101960008F7E8D83FA01808180FF8BC18A8190E018
:10197000807F90708031910571F4A62FB0E0FD0159
:10198000EE0FFF1FEE0FFF1FEA5BFD4F80818823E4
:1019900081F1108210C080329105B1F4A62FB0E021
:1019A000FD01EE0FFF1FEE0FFF1FEA5BFD4F808171
:1019B0008130F9F07083AA0FBB1FAA0FBB1FAC5B6D
:1019C000BD4F13967C9315C0C09799F4862F90E075
:1019D000880F991F880F991FDC01AA5BBD4F2C91BE
:1019E000FC01222311F47C9301C01C92EC5BFD4F9F
:1019F00073838D818E7F44C1A80193E0440F551FEE
:101A00009A95E1F7405B5E4FFA01808185FF46C001
:101A10008A8190E08F7090708130910571F4A62FCB
:101A2000B0E0FD01EE0FFF1FEE0FFF1FEA5BFD4F61
:101A30008081882381F1108210C082309105B1F439
:101A4000A62FB0E0FD01EE0FFF1FEE0FFF1FEA5BB8
:101A5000FD4F80818130F9F07083AA0FBB1FAA0F60
:101A6000BB1FAC5BBD4F13967C9315C0039799F4D5
:101A7000862F90E0880F991F880F991FDC01AA5BC1
:101A8000BD4F2C91FC01222311F47C9301C01C92C8
:101A9000EC5BFD4F73838D818F7D8D83FA01808197
:101AA00086FFF6C08A8190E0807F9070803191053A
:101AB00071F4AF2DB0E0FD01EE0FFF1FEE0FFF1F21
:101AC000EA5BFD4F8081882381F1108210C0803253
:101AD0009105B1F4AF2DB0E0FD01EE0FFF1FEE0F49
:101AE000FF1FEA5BFD4F80818130F9F07083AA0F00
:101AF000BB1FAA0FBB1FAC5BBD4F13967C9315C0D9
:101B0000C09799F48F2D90E0880F991F880F991F27
:101B1000DC01AA5BBD4F2C91FC01222311F47C93C4
:101B200001C01C92EC5BFD4F73838D818F7BAFC036
:101B3000A80123E0440F551F2A95E1F7405B5E4F53
:101B4000FA01808185FF53C08A8190E08F70907088
:101B50008130910571F4A62FB0E0FD01EE0FFF1F5B
:101B6000EE0FFF1FEA5BFD4F80818823E9F11082B1
:101B700010C082309105B1F4A62FB0E0FD01EE0F48
:101B8000FF1FEE0FFF1FEA5BFD4F8081813061F187
:101B90007083AA0FBB1FAA0FBB1FAC5BBD4F139670
:101BA0007C9322C0039701F5862F90E0DC01AA0FF9
:101BB000BB1FFD01EE0FFF1FEA5BFD4F2081FC0103
:101BC000EE0FFF1FEE0FFF1F222331F4AA0FBB1FE2
:101BD000AA5BBD4F7C9305C0AA0FBB1FAA5BBD4F7C
:101BE0001C92EC5BFD4F73838D818F7D8D83FA0199
:101BF000808186FF46C08A8190E0807F907080312E
:101C0000910571F4AF2DB0E0FD01EE0FFF1FEE0F57
:101C1000FF1FEA5BFD4F8081882381F1108210C095
:101C200080329105B1F4AF2DB0E0FD01EE0FFF1F42
:101C3000EE0FFF1FEA5BFD4F80818130F9F070836A
:101C4000AA0FBB1FAA0FBB1FAC5BBD4F13967C93A3
:101C500015C0C09799F48F2D90E0880F991F880FB9
:101C6000991FDC01AA5BBD4F2C91FC01222311F4CA
:101C70007C9301C01C92EC5BFD4F73838D818F7B45
:101C80008D83FA01808187FF03C08D818F778D83DB
:101C90000F5F1F4F28960830110509F0C7CC8091BF
:101CA0003F018E7F80933F01DF91CF911F910F9174
:101CB000FF90EF90DF90CF90BF90AF909F908F906C
:101CC0007F906F905F904F903F9008950F931F9378
:101CD000CF93DF9380913601082F10E0C4E4D2E067
:101CE000A0E0B0E0FD01E45DFE4F8491EA2FF0E05A
:101CF000EC33F10578F4EC5CFF4FEE0FFF1F05901D
:101D0000F491E02D099465E070E046E050E027E0B2
:101D100030E0A3C160E070E040E050E020E030E05F
:101D20009CC168E070E049E050E02AE030E095C1F5
:101D30006BE070E04CE050E02DE030E08EC16AE1F5
:101D400070E04BE150E02CE130E087C16DE170E0E4
:101D50004EE150E02FE130E080C160E270E041E20E
:101D600050E022E230E079C16FE270E040E350E001
:101D700021E330E072C162E370E043E350E024E32A
:101D800030E06BC165E370E046E350E027E330E00C
:101D900064C164E470E045E450E026E430E05DC1F5
:101DA00067E470E048E450E029E430E056C16AE4BA
:101DB00070E04BE450E02CE430E04FC169E570E0A6
:101DC0004AE550E02BE530E048C16CE570E04DE5B8
:101DD00050E02EE530E041C16FE570E040E650E0B4
:101DE00021E630E03AC16EE670E04FE650E020E7D1
:101DF00030E033C161E770E042E750E023E730E0D4
:101E00002CC164E770E045E750E026E730E025C1EB
:101E100063E870E044E850E025E830E01EC166E881
:101E200070E047E850E028E830E017C169E870E06A
:101E30004AE850E02BE830E010C168E970E049E979
:101E400050E02AE930E009C16BE970E04CE950E06C
:101E50002DE930E002C16EE970E04FE950E020EA80
:101E600030E0FBC063EB70E044EB50E025EB30E08A
:101E7000F4C066EB70E047EB50E028EB30E0EDC0DB
:101E800069EB70E04AEB50E02BEB30E0E6C06CEB26
:101E900070E04DEB50E02EEB30E0DFC06BEC70E01B
:101EA0004CEC50E02DEC30E0D8C06EEC70E04FEC24
:101EB00050E020ED30E0D1C061ED70E042ED50E047
:101EC00023ED30E0CAC064ED70E045ED50E026ED52
:101ED00030E0C3C063EE70E044EE50E025EE30E049
:101EE000BCC066EE70E047EE50E028EE30E0B5C0D2
:101EF00069EE70E04AEE50E02BEE30E0AEC06CEEE2
:101F000070E04DEE50E02EEE30E0A7C06BEF70E0D9
:101F10004CEF50E02DEF30E0A0C06EEF70E04FEFDF
:101F200050E020E031E099C061E071E042E051E032
:101F300023E031E092C064E071E045E051E026E04A
:101F400031E08BC063E171E044E151E025E131E033
:101F500084C066E171E047E151E028E131E07DC0F5
:101F600069E171E04AE151E02BE131E076C06CE1DA
:101F700071E04DE151E02EE131E06FC06BE271E0C4
:101F80004CE251E02DE231E068C06EE271E04FE2D8
:101F900051E020E331E061C061E371E042E351E0F0
:101FA00023E331E05AC064E371E045E351E026E306
:101FB00031E053C063E471E044E451E025E431E0F2
:101FC0004CC066E471E047E451E028E431E045C0EC
:101FD00069E471E04AE451E02BE431E03EC06CE496
:101FE00071E04DE451E02EE431E037C06BE571E083
:101FF0004CE551E02DE531E030C06EE571E04FE594
:1020000051E020E631E029C061E671E042E651E0AE
:1020100023E631E022C064E671E045E651E026E6C1
:1020200031E01BC063E771E044E751E025E731E0B0
:1020300014C066E771E047E751E028E731E00DC0E2
:1020400069E771E04AE751E02BE731E006C06CE751
:1020500071E04DE751E02EE731E0E82FF0E0EE0FC0
:10206000FF1FE25EFB4F808180FF26C0F999FECF03
:10207000600F711F72BD61BDF89A80B58883FD0144
:10208000EE0FFF1FEE0FFF1FEC5BFD4F808180FF07
:1020900013C0F999FECF400F511F52BD41BDF89AB0
:1020A00080B58983F999FECF200F311F32BD21BD44
:1020B000F89A80B58A831B8211962496AC33B105B9
:1020C00009F010CECBE8D1E0A0E0B0E0FD01E85986
:1020D000FE4FE491A33061F1A43028F4A130D1F097
:1020E000A230F8F409C0A53089F1A53040F1A6303E
:1020F000A1F1A73041F438C04EE050E06FE070E04D
:1021000020E130E037C040E050E060E070E020E0E7
:1021100030E030C043E250E064E270E025E230E0BD
:1021200029C048E350E069E370E02AE330E022C0D0
:102130004DE450E06EE470E02FE430E01BC042E676
:1021400050E063E670E024E630E014C047E750E07A
:1021500068E770E029E730E00DC04CE850E06DE83A
:1021600070E02EE830E006C041EA50E062EA70E03C
:1021700023EA30E0F0E0EE0FFF1FE25EFB4F8081CC
:1021800080FF26C0F999FECF400F511F52BD41BDBF
:10219000F89A80B58883FD01EE0FFF1FEE0FFF1F39
:1021A000E557FE4F808180FF13C0F999FECF600F85
:1021B000711F72BD61BDF89A80B58983F999FECF10
:1021C000200F311F32BD21BDF89A80B58A831B8252
:1021D00011962496A830B10509F078CFCCEAD1E069
:1021E000A0E0B0E0FD01E059FE4FE491A33061F1C1
:1021F000A43028F4A130D1F0A230F8F409C0A53001
:1022000089F1A53040F1A630A1F1A73041F438C0E2
:1022100041E150E062E170E023E130E037C040E0AE
:1022200050E060E070E020E030E030C046E250E096
:1022300067E270E028E230E029C04BE350E06CE355
:1022400070E02DE330E022C040E550E061E570E051
:1022500022E530E01BC045E650E066E670E027E688
:1022600030E014C04AE750E06BE770E02CE730E064
:102270000DC04FE850E060E970E021E930E006C0B1
:1022800044EA50E065EA70E026EA30E0F0E0EE0F64
:10229000FF1FE25EFB4F808180FF26C0F999FECFD1
:1022A000400F511F52BD41BDF89A80B58883FD0192
:1022B000EE0FFF1FEE0FFF1FE455FE4F808180FFE2
:1022C00013C0F999FECF600F711F72BD61BDF89AFE
:1022D00080B58983F999FECF200F311F32BD21BD12
:1022E000F89A80B58A831B8211962496A830B1058E
:1022F00009F078CFDF91CF911F910F9108958091D0
:102300003601282F30E02E573E4FECECF1E0F999E2
:10231000FECF2250304032BD21BD2E5F3F4FF89A94
:1023200090B5F999FECF2150304032BD21BD2F5FCD
:102330003F4FF89A80B5582F40E0892F90E0842BCA
:10234000952B91838083F999FECF32BD21BDF89AF8
:1023500080B582832D5F3F4F339682E0E434F807E7
:10236000B1F60895FFCFCF93DF93EC0180E0BE017B
:102370000E94BA0488818073803239F480913801D8
:10238000882319F4CE010E94C811DF91CF910895DE
:102390003F924F925F926F927F928F929F92AF92F5
:1023A000BF92CF92DF92EF92FF920F931F93DF9332
:1023B000CF93CDB7DEB72D970FB6F894DEBF0FBE23
:1023C000CDBF8C01FCEC8F2EF1E09F2E4424439472
:1023D0003E010894611C711C33243394E4E25E2EA8
:1023E000F80121813281F401808191812817390718
:1023F00009F077C1232B09F474C175E4E72E72E06C
:10240000F72EAA24BB24F501E052FF4F94916501F9
:10241000CC0CDD1CCC0CDD1C24E432E0C20ED31E3F
:10242000F601808180FF59C0F4018281981709F07C
:1024300054C0F80180818F70843009F04EC025812E
:10244000213009F04AC0868190E083709070892B1A
:10245000D1F4F601808181FF16C05982F801818193
:1024600092819B838A8380913401909135019D8371
:102470008C832E832F83F7018081888781818987D0
:10248000C3010E94B311F80186818370813071F419
:10249000F601808184FF0AC0F8019781F7018081ED
:1024A000981721F4F8018085F7018183F80186816E
:1024B0008370823091F4F601808182FF0EC0F801B2
:1024C0009781F7018081981741F4F8019085F70111
:1024D0008181891711F0918342820894A11CB11C5B
:1024E00024E030E0E20EF31E3CE3A316B10409F051
:1024F0008ACF5CE8E52E51E0F52EAA24BB24F50135
:10250000E45EFE4F94916501CC0CDD1CCC0CDD1C0F
:10251000EBE8F1E0CE0EDF1EF601808180FF59C0AE
:10252000F4018281981709F054C0F80180818F70FE
:10253000843009F04EC02581223009F04AC08681DE
:1025400090E083709070892BD1F4F601808181FF37
:1025500016C05982F801818192819B838A83809180
:102560003401909135019D838C832E833F82F70146
:102570008081888781818987C3010E94B311F80116
:1025800086818370813071F4F601808184FF0AC0F6
:10259000F8019781F7018081981721F4F80180856F
:1025A000F7018183F80186818370823091F4F6010E
:1025B000808182FF0EC0F8019781F7018081981712
:1025C00041F4F8019085F7018181891711F0918319
:1025D00042820894A11CB11C24E030E0E20EF31EFC
:1025E00038E0A316B10409F08ACF3DEAE32E31E0CA
:1025F000F32EAA24BB24F501EC5DFE4F94916501F6
:10260000CC0CDD1CCC0CDD1CECEAF1E0CE0EDF1EA8
:10261000F601808180FF59C0F4018281981709F08A
:1026200054C0F80180818F70843009F04EC025813C
:10263000233009F04AC0868190E083709070892B26
:10264000D1F4F601808181FF16C05982F8018181A1
:1026500092819B838A8380913401909135019D837F
:102660008C832E833F82F7018081888781818987CF
:10267000C3010E94B311F80186818370813071F427
:10268000F601808184FF0AC0F8019781F7018081FB
:10269000981721F4F8018085F7018183F80186817C
:1026A0008370823091F4F601808182FF0EC0F801C0
:1026B0009781F7018081981741F4F8019085F7011F
:1026C0008181891711F0918342820894A11CB11C69
:1026D00024E030E0E20EF31E38E0A316B10409F066
:1026E0008ACF83E090E0880E991E94E4891692E0E8
:1026F000990609F075CE2D960FB6F894DEBF0FBE81
:10270000CDBFCF91DF911F910F91FF90EF90DF90A0
:10271000CF90BF90AF909F908F907F906F905F9081
:102720004F903F9008957F928F929F92AF92BF9269
:10273000CF92DF92EF92FF920F931F93DF93CF938D
:10274000CDB7DEB72D970FB6F894DEBF0FBECDBF65
:102750008091420180FF71C004E412E0CC24DD24AA
:1027600084E2782E88248394B2E09B2E5E01089444
:10277000A11CB11CF601E45DFE4FE491F0E0EE0F08
:10278000FF1FE25EFB4F808180FF48C07601EE0CA8
:10279000FF1CEE0CFF1C84E492E0E80EF91EF7012A
:1027A000808180FF3BC0808183FF30C0F80183813E
:1027B000813061F5ACECB1E0F601E052FF4F94914D
:1027C0002D913C91119712968C9112978917B9F41B
:1027D00021153105A1F079823B832A838091340150
:1027E000909135019D838C838E829F82F801818137
:1027F000888782818987C5010E94B31105C013961D
:10280000F2E0A434BF07E1F6F8011382F7018081FA
:1028100085FF04C0F80180818F7D80830894C11CEE
:10282000D11C0C5F1F4FFCE3CF16D10409F0A2CFDF
:10283000809142018E7F809342018091450180FF0B
:102840006FC00BE811E0CC24DD2464E2862E52E058
:10285000952E5E010894A11CB11CF601E859FE4FAB
:10286000E491F0E0EE0FFF1FE25EFB4F808180FFFE
:1028700048C07601EE0CFF1CEE0CFF1C8BE891E0CB
:10288000E80EF91EF701808180FF3BC0808183FF45
:1028900030C0F8018381813061F5ACECB1E0F60124
:1028A000E45EFE4F94912D913C91119712968C917C
:1028B00012978917B9F421153105A1F089823B835C
:1028C0002A8380913401909135019D838C839E826F
:1028D0009F82F8018181888782818987C5010E9452
:1028E000B31105C01396F2E0A434BF07E1F6F80176
:1028F0001382F701808185FF04C0F80180818F7DFC
:1029000080830894C11CD11C0C5F1F4FF8E0CF16C8
:10291000D10409F0A2CF809145018E7F80934501BB
:102920008091480180FF71C00CEA11E0CC24DD24C5
:1029300024E2722E93E0892E82E0982E5E010894A4
:10294000A11CB11CF601E059FE4FE491F0E0EE0F3E
:10295000FF1FE25EFB4F808180FF48C07601EE0CD6
:10296000FF1CEE0CFF1C8CEA91E0E80EF91EF7014B
:10297000808180FF3BC0808183FF30C0F80183816C
:10298000813061F5ACECB1E0F601EC5DFE4F949165
:102990002D913C91119712968C9112978917B9F449
:1029A00021153105A1F079823B832A83809134017E
:1029B000909135019D838C838E829F82F801818165
:1029C000888782818987C5010E94B31105C013964B
:1029D000F2E0A434BF07E1F6F8011382F701808129
:1029E00085FF04C0F80180818F7D80830894C11C1D
:1029F000D11C0C5F1F4FF8E0CF16D10409F0A2CF15
:102A0000809148018E7F809348012D960FB6F894EF
:102A1000DEBF0FBECDBFCF91DF911F910F91FF9011
:102A2000EF90DF90CF90BF90AF909F908F907F906E
:102A30000895CF92DF92EF92FF920F931F93DF934F
:102A4000CF93CDB7DEB72D970FB6F894DEBF0FBE8C
:102A5000CDBFAC01FC010081102F1F70C380D4805A
:102A6000E0903401F0903501DC01FE0136969E01C4
:102A7000210F311D2A5F3F4F04C014968C9114978B
:102A800081931196E217F307C1F7FA01858182302D
:102A900009F095C0123009F04DC18E81806C8E8393
:102AA00026812223C9F4F999FECF82E190E092BDFC
:102AB00081BDF89A80B5882309F466C0F999FECFE4
:102AC0001FBA82E190E092BD81BD10BC0FB6F894B0
:102AD000FA9AF99A0FBE72C02130D1F4F999FECF5B
:102AE00082E190E092BD81BDF89A80B5813009F411
:102AF00065C0F999FECF1FBA82E190E092BD81BD19
:102B000081E080BD0FB6F894FA9AF99A0FBE56C0CC
:102B1000283009F039C0F999FECF8BE190E092BDE1
:102B200081BDF89A20B52F5FF999FECF8BE190E037
:102B300092BD81BDF89A80B5821769F0F999FECFF0
:102B40001FBA8BE190E092BD81BD20BD0FB6F89415
:102B5000FA9AF99A0FBEF999FECF82E190E092BD00
:102B600081BDF89A80B5883049F1F999FECF1FBA36
:102B700082E190E092BD81BD88E080BD0FB6F894FF
:102B8000FA9AF99A0FBE1AC02930C1F4F999FECF0A
:102B900082E190E092BD81BDF89A80B5893071F0F4
:102BA000F999FECF1FBA82E190E092BD81BD89E024
:102BB00080BD0FB6F894FA9AF99A0FBEFFCF86300F
:102BC00009F045C0113009F0B5C080913701893056
:102BD00009F0B0C080913601282F30E0A895F9990E
:102BE000FECF32BD21BDF89A80B5882359F0F999FE
:102BF000FECF1FBA32BD21BD10BC0FB6F894FA9AB1
:102C0000F99A0FBE2F5F3F4FF2E020303F0730F3BD
:102C10002CE130E0F901EC51FF4FE081F999FECF52
:102C200032BD21BDF89A80B58E1759F0F999FECFC3
:102C30001FBA32BD21BDE0BD0FB6F894FA9AF99AD9
:102C40000FBE2F5F3F4F2032310521F7FFCF873076
:102C500069F5143008F46EC0FA01978180E026818E
:102C6000BC01620F711DF2E060307F0708F062C0A6
:102C70008E81806C8E8340E0212F30E023503040E5
:102C8000DE0119960DC0F999FECFCB01840F911D7D
:102C900092BD81BDF89A80B5EA0FFB1F80834F5F1C
:102CA000E42FF0E0E217F30774F344C0883009F032
:102CB00041C0143008F43EC080913701893009F0DA
:102CC00039C0FA01978180E02681BC01620F711D35
:102CD0008091360190E06817790760F1F2E060308A
:102CE0007F0740F58E81806C8E8390E0212F30E04D
:102CF000235030401AC0DF01A60FB71FE40FF51FA5
:102D0000E085F999FECFB2BDA1BDF89A80B58E17C6
:102D100059F0F999FECF1FBAB2BDA1BDE0BD0FB603
:102D2000F894FA9AF99A0FBE9F5FE92FF0E0E21744
:102D3000F3070CF38E8180648E83FD82EC82DB824C
:102D4000CA820983CE0101960E94B3112D960FB657
:102D5000F894DEBF0FBECDBFCF91DF911F910F91D1
:102D6000FF90EF90DF90CF9008952091360130E0F2
:102D7000220F331F820F931F66E071E00E94E81755
:102D8000089566E071E00E94E8170895FF920F939E
:102D90001F93DF93CF93CDB7DEB72D970FB6F8947F
:102DA000DEBF0FBECDBF2DE088E190E00FB6F894F6
:102DB000A895809360000FBE20936000A89580E1E5
:102DC00090E066E071E00E94E817909335018093EF
:102DD000340101978F5F9740C0F0F999FECF82E1EF
:102DE00090E092BD81BDF89A80B5882369F0F99989
:102DF000FECF1FBA82E190E092BD81BD10BC0FB63C
:102E0000F894FA9AF99A0FBEFFCF2CE030E0F9015E
:102E1000EC50FF4FE081F999FECF32BD21BDF89A09
:102E200080B58E1759F0F999FECF1FBA32BD21BD7A
:102E3000E0BD0FB6F894FA9AF99A0FBE2F5F3F4F94
:102E40002031310521F7F999FECF8AE190E092BD5A
:102E500081BDF89A80B580933601F999FECF82E161
:102E600090E092BD81BDF89A80B58093370188507B
:102E70008230D8F088E080933701F999FECF82E163
:102E800090E092BD81BDF89A80B5883071F0F999D3
:102E9000FECF1FBA82E190E092BD81BD88E080BD87
:102EA0000FB6F894FA9AF99A0FBE409138012CE1C6
:102EB00030E0F999FECF32BD21BDF89A80B5F90115
:102EC000EC51FF4F9081891341602F5F3F4F2032BB
:102ED000310579F7409338014423A9F482E084BD99
:102EE00093E095BD16BC9DE797BD80936E000E9450
:102EF000F9050E947F110E94660E0E9493130E94A2
:102F00009A060E943D09789480E00E941104409145
:102F100034015091350181E28E83FE01379624E021
:102F200030E0F999FECF32BD21BDF89A80B581938A
:102F30002F5F3F4F28303105A1F7F999FECF82E18D
:102F400090E092BD81BDF89A80B58B878091380161
:102F50008C875D834C8382E090EF9B838A8387E23A
:102F600089838E010F5F1F4FC8010E94B311F02E9D
:102F7000012FA89580913801882331F40E943105F2
:102F80000E9493130E943D0980E06F2D702F0E94D4
:102F90002E04813071F78981807369F42A813B8125
:102FA00080913401909135012817390721F48F2D34
:102FB000902F0E941915898180738032D1F68091FB
:102FC00038018823B1F68F2D902F0E94C811D1CFE0
:102FD000DF92EF92FF920F931F937B018C01FB0115
:102FE0000995D82EC8010196F7010995982F8D2DC6
:102FF0001F910F91FF90EF90DF900895F894FFCF0D
:1030000022000100AB01AB01240027002A00AB0124
:10301000AB01AB01AB01AB01250028002B00AB01DC
:10302000AB01AB01AB01AB01230026002900AB01D2
:04303000AB01AB0144
:00000001FF
