:100000000C9446000C9463000C9463000C94630001
:100010000C9463000C9463000C9463000C946300D4
:100020000C9463000C9463000C9463000C946300C4
:100030000C9463000C9463000C9463000C946300B4
:100040000C9463000C9463000C9463000C94EA0419
:100050000C946300000102030405060708090A0D59
:100060000E0F0B100C110000000001010101020233
:100070000203030302030203000100040105020658
:1000800003071E1F02035051090C0A0D11241FBE45
:10009000CFE5D4E0DEBFCDBF10E0A0E6B0E0EAE6F9
:1000A000F8E202C005900D92A439B107D9F711E02A
:1000B000A4E9B0E001C01D92A037B107E1F70E94AA
:1000C00002130C9433140C9400009C01E199FECFB0
:1000D0003FBB2EBBE09A8DB308959C01E199FECF02
:1000E0003FBB2EBBE09A8DB30895E199FECF9C01F2
:1000F0009FBB8EBBE09A8DB3861751F0E199FECF7E
:100100003FBB2EBB6DBB0FB6F894E29AE19A0FBECF
:10011000089520919600E199FECF820F911D9FBB1B
:100120008EBBE09A8DB30895AC0180919600282F84
:1001300030E0E199FECFCA01820F931F9FBB8EBBB7
:10014000E09A8DB3861761F0E199FECF240F351F39
:100150003FBB2EBB6DBB0FB6F894E29AE19A0FBE7F
:100160000895E82FF0E0EE0FFF1FEC57FF4F0190CE
:10017000F081E02D808190E002C0959587956A9589
:10018000E2F78170089591E002C0990F61506623F3
:10019000E1F7A82FB0E0FD01EE0FFF1FEC58FF4F75
:1001A0000190F081E02D8081892B41FF8927808398
:1001B000AA0FBB1FAC59BF4FED91FC918081892BD9
:1001C00040FF892780830895DF93CF930F92CDB7A7
:1001D000DEB789836E98898180FF10C0898181FF95
:1001E00006C087B3806A87BBBE986C9A05C0BE9A6A
:1001F00087B38F7587BB6C986E9A03C087B38F7176
:1002000087BB0F90CF91DF9108951FB8779BFECFEA
:100210008FB108958FB9779BFECF08958FB9779BE3
:10022000FECF8FB10895FF920F931F93082FF62EE4
:10023000142F41E00E94C30083E08FB9779BFECF6B
:100240008FB11FB9779BFECF8FB18FEF8FB9779B9F
:10025000FECF1FB1802F6F2D43E00E94C300812F7E
:100260001F910F91FF900895EF92FF920F931F93AC
:10027000082FF62E142FE22E41E00E94C30082E0E8
:100280008FB9779BFECF8FB11FB9779BFECF8FB110
:10029000EFB8779BFECF8FB1802F6F2D43E00E9488
:1002A000C3001F910F91FF90EF900895DF92EF929E
:1002B000FF920F931F93E82ED62E142FF22E41E0BB
:1002C0000E94C30085E08FB9779BFECF8FB11FB925
:1002D000779BFECF8FB1FFB8779BFECF8FB10FB961
:1002E000779BFECF8FB18E2D6D2D43E00E94C30012
:1002F0001F910F91FF90EF90DF9008958F929F9242
:10030000AF92BF92CF92DF92EF92FF920F931F9323
:10031000DF93CF93CDB7DEB7F82ED62E142FB22EA3
:10032000902E0C2D43E00E94C300812F0E94E40018
:100330008F2D6D2D41E00E94C30080EC8FB9779B1B
:10034000FECF8FB18F2D6D2D43E00E94C30080E45E
:100350009FE10197F1F78F2D6D2D4AE22B2D0E9421
:1003600034018F2D6D2D49E2292D0E9434018F2DEE
:100370006D2D48E22E2D0E9434018F2D6D2D40E60B
:1003800024E60E9434018F2D6D2D40E720E60E9467
:1003900034018F2D6D2D4BE223E00E9434010023A8
:1003A00079F1083020F4802F6A2D41E005C000313A
:1003B00030F4802F6A2D43E00E94C30021C00C3F1F
:1003C00031F48F2D6D2D4CE024E104E017C00D3F7A
:1003D00031F48F2D6D2D4CE028E208E00FC00E3F68
:1003E00031F48F2D6D2D4CE024E104E107C00F3F67
:1003F00039F48F2D6D2D4CE028E208E20E94560161
:100400008F2D6D2D4CE02CE00E9434018F2D6D2D31
:100410004FE020EE082D0E9456018F2D6D2D4FE0EC
:100420000E94130140E090E0807E9070282D30E023
:100430008217930709F441E0842FCF91DF911F9138
:100440000F91FF90EF90DF90CF90BF90AF909F9073
:100450008F900895DF92EF92FF920F931F93DF9397
:10046000CF930F92CDB7DEB7082FD62E142F198257
:1004700043E00E94C300812F0E94E400802F6D2D75
:1004800041E00E94C30080EB8FB9779BFECF8FEFD6
:100490008FB9779BFECF9FB18FEF8FB9779BFECF40
:1004A0008FB19983802F6D2D43E00E94C300898115
:1004B00086FF02C010E906C0898187FD02C080E086
:1004C00047C014E9802F6D2D41E00E94C3001FB981
:1004D000779BFECF1FB8779BFECF8FB1F70181834B
:1004E0001FB8779BFECF8FB1F70180831FB8779B32
:1004F000FECF8FB1F70183831FB8779BFECF8FB1FB
:10050000F70182831FB8779BFECF8FB1F7018483F9
:10051000848186FD10C090E009C01FB8779BFECF94
:100520008FB1F701E90FF11D85839F5FF70184818A
:10053000981798F307C0F70180E015828F5F319616
:100540008830D9F7802F6D2D43E00E94C30081E0F1
:100550000F90CF91DF911F910F91FF90EF90DF905F
:100560000895CF92DF92EF92FF920F931F93DF9344
:10057000CF930F92CDB7DEB7082FD62E142F198246
:1005800043E00E94C300812F0E94E400802F6D2D64
:1005900041E00E94C30080EA8FB9779BFECF8FEFC6
:1005A0008FB9779BFECF9FB18FEF8FB9779BFECF2F
:1005B0008FB19983802F6D2D43E00E94C300898104
:1005C00082FD04C010E461E8C62E0FC0898184FD5D
:1005D00004C012E452E8C52E08C0898186FF02C01B
:1005E00080E048C014E444E8C42E802F6D2D41E023
:1005F0000E94C3001FB9779BFECFF70181818FB99D
:10060000779BFECFF70180818FB9779BFECFF701F3
:1006100083818FB9779BFECFF70182818FB9779B5A
:10062000FECFF70124812FB9779BFECFF70184819C
:1006300086FD0CC090E008C0F701E90FF11D85812F
:100640008FB9779BFECF9F5F9217B0F3802F6D2DF0
:1006500043E00E94C3000000802F6D2D41E00E9406
:10066000C300CFB8779BFECF802F6D2D43E00E9453
:10067000C30081E00F90CF91DF911F910F91FF9008
:10068000EF90DF90CF9008958F92AF92CF92EF923C
:100690000F93882311F080E00EC082E064E043E015
:1006A00021E006EBE4E0EE2ECC24CA9472E0A72E03
:1006B00088240E947E010F91EF90CF90AF908F9091
:1006C0000895AF92BF92CF92DF92EF92FF920F9375
:1006D000DF93CF93CDB7DEB72D970FB6F894DEBF7B
:1006E0000FBECDBF6B01882309F066C082E064E0D5
:1006F00043E02FEF02E05E010894A11CB11C7501DC
:100700000E942A02813009F057C0EA818E2F90E0C2
:10071000807C907095958795959587950D81F02FA4
:10072000FF70F82BD601FC936C81498150E03E2F7D
:10073000330F330F20E0862F869586958695280FF8
:10074000311DCA018370907075E0880F991F7A95EA
:10075000E1F7280F391F407E5070440F551F440F9A
:10076000551F240F351F12963C932E93119770E05E
:1007700067707070762F66278B81680F711D1496D5
:100780007C936E9313978D8186FD0AC0DE011696C9
:10079000F601202F30E02B5F3F4F2A0D3B1D06C096
:1007A000F064D601FC9306C08D9184833196A21724
:1007B000B307D1F781E001C080E02D960FB6F89421
:1007C000DEBF0FBECDBFCF91DF910F91FF90EF90B5
:1007D000DF90CF90BF90AF900895EF92FF920F936C
:1007E000DF93CF93CDB7DEB72D970FB6F894DEBF6A
:1007F0000FBECDBFFB01882311F090E04EC0928167
:10080000969596956081862F880F880F807C892B1E
:100810008A8341815281CA019695879596958795DD
:10082000807E9A01A5E036952795AA95E1F7237079
:10083000822B8860898384818770440F440F440F22
:10084000842B8C8383818B836F706D83808186FD85
:100850000AC0DF01FE013696CE01860F911DBC0154
:100860006A5F7F4F07C060646D8308C014968C91E7
:10087000149781931196E617F707C1F782E064E0B9
:1008800043E02FEF02E07E010894E11CF11C0E947E
:10089000B10290E0813009F491E0892F2D960FB6D6
:1008A000F894DEBF0FBECDBFCF91DF910F91FF90C7
:1008B000EF9008958BE083BF12BE8AEF8CBF82E079
:1008C00089BF08958091990080FF50C080919B005E
:1008D00090919C00892B49F080919A0081608093CF
:1008E0009A0010929C0010929B008091A000909121
:1008F000A1000A9748F080919F00816080939F003B
:100900001092A1001092A0008091A3009091A400E9
:10091000892B49F08091A20081608093A2001092FF
:10092000A4001092A3008091A6009091A700892BAB
:1009300049F08091A50081608093A5001092A700E6
:100940001092A6008091A9009091AA00892B49F0ED
:100950008091A80081608093A8001092AA00109254
:10096000A900809199008E7F8093990008958091CD
:10097000990081608093990080919B0090919C00E8
:10098000019690939C0080939B008091A000909191
:10099000A10001969093A1008093A0008091A300F4
:1009A0009091A40001969093A4008093A30080915D
:1009B000A6009091A70001969093A7008093A600AF
:1009C0008091A9009091AA0001969093AA0080932B
:1009D000A90008951F920F920FB60F9211248F93C2
:1009E0009F938091990081608093990080919B00F2
:1009F00090919C00019690939C0080939B00809125
:100A0000A0009091A10001969093A1008093A00076
:100A10008091A3009091A40001969093A4008093EC
:100A2000A3008091A6009091A70001969093A70043
:100A30008093A6008091A9009091AA0001969093BE
:100A4000AA008093A9009F918F910F900FBE0F90E5
:100A50001F90189580919600A82FB0E0E8E6F1E08D
:100A600060E0613039F0613050F0623069F063303D
:100A7000A9F40FC028E130E04FE250E013C020E0BD
:100A800030E047E150E00EC020E330E044E450E0C5
:100A900009C025E430E049E550E004C020E030E042
:100AA00040E050E0118210822417350778F4C90124
:100AB000019648175907E0F7E199FECF2A0F3B1F2F
:100AC0003FBB2EBBE09A8DB3808311826F5F32965D
:100AD000643039F608952F923F924F925F926F9251
:100AE0007F928F929F92AF92BF92CF92DF92EF92BE
:100AF000FF920F931F93CF93DF9380919600282F3F
:100B000030E0A4E3B1E022243324222021F081E06C
:100B10002816E1F430C041E050E062E070E0C3E04C
:100B2000D0E004E010E085E0E82EF12CF6E0CF2ED6
:100B3000D12CE7E0AE2EB12C98E0892E912C89E0E3
:100B4000682E712CFAE04F2E512C2FC040E050E05F
:100B500060E070E0C0E0D0E000E010E0EE24FF24B0
:100B6000CC24DD24AA24BB24882499246624772459
:100B7000442455241AC049E150E06AE170E0CBE119
:100B8000D0E00CE110E0EDE1EE2EF12C9EE1C92E5B
:100B9000D12C8FE1A82EB12CF0E28F2E912CE1E226
:100BA0006E2E712C92E2492E512CF101E858FF4F24
:100BB000E491F0E0EE0FFF1FE859FE4F808180FFC7
:100BC0006CC0E199FECF420F531F5FBB4EBBE09A52
:100BD0008DB38C93E199FECF620F731F7FBB6EBB09
:100BE000E09A8DB311968C931197E199FECFC20FC5
:100BF000D31FDFBBCEBBE09A8DB312968C931297B6
:100C0000E199FECF020F131F1FBB0EBBE09A8DB3FD
:100C100013968C931397E199FECFE20EF31EFFBA61
:100C2000EEBAE09A8DB314968C931497E199FECFA7
:100C3000C20ED31EDFBACEBAE09A8DB315968C934E
:100C40001597E199FECFA20EB31EBFBAAEBAE09AD5
:100C50008DB316968C931697E199FECF820E931E54
:100C60009FBA8EBAE09A8DB317968C931797E19935
:100C7000FECF620E731E7FBA6EBAE09A8DB31896DD
:100C80008C931897E199FECF420E531E5FBA4EBA6D
:100C9000E09A8DB319968C9319970894211C311CF6
:100CA0005A9692E02916310409F02FCF9BEAE92EDB
:100CB00090E0F92E00E010E0002319F0013051F42B
:100CC00012C041E350E062E370E0A3E3B0E0C4E3AC
:100CD000D0E011C040E050E060E070E0A0E0B0E0A3
:100CE000C0E0D0E008C046E450E067E470E0A8E46B
:100CF000B0E0C9E4D0E0F801EC57FF4FE491F0E038
:100D0000EE0FFF1FE859FE4F808180FF44C08091A5
:100D10009600282F30E0E199FECF420F531F5FBBB2
:100D20004EBBE09A8DB3F7018083E199FECF620F4D
:100D3000731F7FBB6EBBE09A8DB3F7018183E1998E
:100D4000FECFA20FB31FBFBBAEBBE09A8DB3F701BE
:100D50008283E199FECFC20FD31FDFBBCEBBE09AE7
:100D60008DB3F7018383F801EA57FF4F6491262F73
:100D700030E0C9018873907033E0959587953A9576
:100D8000E1F7882341F0677026FD02C040E001C012
:100D900042E00E94C3000F5F1F4F88E090E0E80E22
:100DA000F91E0230110509F087CFDF91CF911F9115
:100DB0000F91FF90EF90DF90CF90BF90AF909F90FA
:100DC0008F907F906F905F904F903F902F900895FD
:100DD000FB01918380830895FB01880F991F918304
:100DE000808308953F924F925F926F927F928F928D
:100DF0009F92AF92BF92CF92DF92EF92FF920F93AA
:100E00001F93CF93DF9380919A0080FFB9C1C4E311
:100E1000D1E07E0100E010E07AE1A72EB12CDD24C4
:100E2000D39461E0462E512C50E1652E5EE0752E84
:100E30004CE3342E38EE832E33E0932EF801E8583D
:100E4000FF4FE491F0E0EE0FFF1FE859FE4F808165
:100E500080FF86C1F801E658FF4F2491F801E4585D
:100E6000FF4F3491F801E058FF4FC490F7018081A3
:100E700090E0807690708032910539F0A22FB0E03A
:100E80008034910509F052C023C0A22FB0E0232F77
:100E900030E0FD01EE0FFF1FEE0FFF1FE450FF4F8C
:100EA0008381813059F0F901EE0FFF1FEE0FFF1F14
:100EB000E450FF4F8381813009F04BC0AA0FBB1F64
:100EC000AA0FBB1FA250BF4F8C91882369F11FC08E
:100ED000232F30E0FD01EE0FFF1FEE0FFF1FE45048
:100EE000FF4F8381813051F0F901EE0FFF1FEE0FAC
:100EF000FF1FE450FF4F8381813059F5AA0FBB1FBC
:100F0000AA0FBB1FA250BF4F8C91882351F4220F10
:100F1000331F220F331F22503F4FF9018081882356
:100F200019F0DA8ADB8A15C01A8AFCCFFD01EE0FB0
:100F3000FF1FEE0FFF1FE450FF4F9381913049F4E4
:100F4000AA0FBB1FAA0FBB1FA250BF4F8C918A8B49
:100F50009B8B4A89898190E083709070009709F497
:100F60007AC0019709F077C00A9DF0010B9DF00D42
:100F70001A9DF00D1124EB5CFE4F808182FF34C07E
:100F8000413089F48A859B85AC85BD850097A10594
:100F9000B10551F10197A109B1098A879B87AC87F7
:100FA000BD8740E021C08C8190E0869D9001879DA7
:100FB000300D969D300D11248B81839DC00111242D
:100FC000280F391F8A81280F311D289DC001299DB6
:100FD000900D389D900D1124AA2797FDA095BA2F4A
:100FE0008A879B87AC87BD87808183FF34C0442379
:100FF00089F48E859F85A889B9890097A105B105D7
:1010000051F10197A109B1098E879F87A88BB98BF0
:1010100041E021C08F8190E0869D9001879D300D39
:10102000969D300D11248E81839DC0011124280FBF
:10103000391F8D81280F311D289DC001299D900DDC
:10104000389D900D1124AA2797FDA095BA2F8E8761
:101050009F87A88BB98B8C89841711F04C8BDD8A04
:101060009D89913019F48C898E8B9F8B9F8991304B
:1010700019F48E89888F998F898D813009F043C04A
:10108000F801EE57FF4F6491F701808190E0837083
:101090009070892BC1F50A9DA0010B9D500D1A9DE2
:1010A000500D1124FA01E45BFE4F8081262F30E0C1
:1010B00080FF11C028733070E3E035952795EA95DD
:1010C000E1F72223F9F06770FA01EC5CFE4F8081B2
:1010D00082FD11C013C02873307073E035952795D9
:1010E0007A95E1F7222371F06770FA01EC5CFE4F0C
:1010F000808182FD03C0822F43E002C0822F41E045
:101100000E94C300198E988D0A9DF0010B9DF00D71
:101110001A9DF00D1124E35CFE4F2081E08199239C
:1011200021F4E0FF02C091E007C080E0913009F4B3
:1011300081E0922F94259823EC2DF0E0DF01AA0F97
:10114000BB1FAA0FBB1FA250BF4F8C91891741F044
:101150009C93EE0FFF1FEE0FFF1FE450FF4FD38253
:101160000F5F1F4F6A968AE190E0E80EF91E023089
:10117000110509F063CE80919A008E7F80939A00CA
:1011800080919F0080FF68C3CBEAD0E000E010E0D0
:1011900061E09AE5E92EF801EC57FF4FE491F0E0A9
:1011A000EE0FFF1FE859FE4F808180FF49C3F80111
:1011B000EA57FF4F2491F801E857FF4F7491F80167
:1011C000E657FF4FF490888190E0837090708130F3
:1011D000910509F444C08230910509F440C0892B7F
:1011E00009F03EC0822F90E088739070B3E095952F
:1011F0008795BA95E1F7982F882391F12770F80128
:10120000A3E0EE0FFF1FAA95E1F7E555FF4F8081A0
:10121000E92FF0E082FD11C0EE0FFF1FEC57FF4FEA
:101220000190F081E02D808190E002C09595879536
:101230002A95E2F780FF13C010C0EE0FFF1FEC5796
:10124000FF4F0190F081E02D808190E002C09595E4
:1012500087952A95E2F780FD02C06C8301C01C824D
:101260008C818823B9F08F818F5F8F83843019F44C
:101270008D8180618D838F81883219F48D818064A6
:101280008D838F81843621F4EF828D8180688D83F8
:101290001E8211C08E818F5F8E83843019F48D8100
:1012A00081608D838F81882329F0883218F48D81A5
:1012B00080628D831F828981282F30E0C901877069
:1012C0009070892B09F0BCC2C90188739070883076
:1012D000910509F4B6C0893091051CF4892B49F0B9
:1012E000AFC28031910509F454C1489709F0A8C2F2
:1012F000F8C1A80133E0440F551F3A95E1F7405576
:101300005F4FFA01808184FF4CC08A818F708130E9
:10131000A9F4A72FB0E0FD01EE0FFF1FEE0FFF1F96
:10132000E250FF4F8081882349F01082AA0FBB1F33
:10133000AA0FBB1FA450BF4F13966C938A818F7066
:101340008230A9F4A72FB0E0FD01EE0FFF1FEE0FD2
:10135000FF1FE250FF4F8081813049F06083AA0F68
:10136000BB1FAA0FBB1FA450BF4F13966C938A815B
:101370008F70833099F4872F90E0880F991F880F22
:10138000991FDC01A250BF4F2C91FC01222311F4C4
:101390006C9301C01C92E450FF4F63838D818F7E5C
:1013A0008D83FA01808180FF4BC28A81807F8031EA
:1013B000A9F4A72FB0E0FD01EE0FFF1FEE0FFF1FF6
:1013C000E250FF4F8081882349F01082AA0FBB1F93
:1013D000AA0FBB1FA450BF4F13966C938A81807FC6
:1013E0008032A9F4A72FB0E0FD01EE0FFF1FEE0F32
:1013F000FF1FE250FF4F8081813049F06083AA0FC8
:10140000BB1FAA0FBB1FA450BF4F13966C938A81BA
:10141000807F803399F4872F90E0880F991F880F81
:10142000991FDC01A250BF4F2C91FC01222311F423
:101430006C9301C01C92E450FF4F63838D818E7FBB
:10144000FEC1A80133E0440F551F3A95E1F740551E
:101450005F4FFA01808184FF4CC08A818F70813098
:10146000A9F4A72FB0E0FD01EE0FFF1FEE0FFF1F45
:10147000E250FF4F8081882349F01082AA0FBB1FE2
:10148000AA0FBB1FA450BF4F13966C938A818F7015
:101490008230A9F4A72FB0E0FD01EE0FFF1FEE0F81
:1014A000FF1FE250FF4F8081813049F06083AA0F17
:1014B000BB1FAA0FBB1FA450BF4F13966C938A810A
:1014C0008F70833099F4872F90E0880F991F880FD1
:1014D000991FDC01A250BF4F2C91FC01222311F473
:1014E0006C9301C01C92E450FF4F63838D818F7E0B
:1014F0008D83FA01808180FF9CC18A81807F803149
:10150000A9F4A72FB0E0FD01EE0FFF1FEE0FFF1FA4
:10151000E250FF4F8081882349F01082AA0FBB1F41
:10152000AA0FBB1FA450BF4F13966C938A81807F74
:101530008032A9F4A72FB0E0FD01EE0FFF1FEE0FE0
:10154000FF1FE250FF4F8081813049F06083AA0F76
:10155000BB1FAA0FBB1FA450BF4F13966C938A8169
:10156000807F803399F4872F90E0880F991F880F30
:10157000991FDC01A250BF4F2C91FC01222311F4D2
:101580006C9301C01C92E450FF4F63838D818E7F6A
:101590004FC1A80133E0440F551F3A95E1F740557C
:1015A0005F4FFA01808185FF4CC08A818F70813046
:1015B000A9F4A72FB0E0FD01EE0FFF1FEE0FFF1FF4
:1015C000E250FF4F8081882349F01082AA0FBB1F91
:1015D000AA0FBB1FA450BF4F13966C938A818F70C4
:1015E0008230A9F4A72FB0E0FD01EE0FFF1FEE0F30
:1015F000FF1FE250FF4F8081813049F06083AA0FC6
:10160000BB1FAA0FBB1FA450BF4F13966C938A81B8
:101610008F70833099F4872F90E0880F991F880F7F
:10162000991FDC01A250BF4F2C91FC01222311F421
:101630006C9301C01C92E450FF4F63838D818F7DBA
:101640008D83FA01808186FFFBC08A81807F803193
:10165000A9F4AF2DB0E0FD01EE0FFF1FEE0FFF1F4D
:10166000E250FF4F8081882349F01082AA0FBB1FF0
:10167000AA0FBB1FA450BF4F13966C938A81807F23
:101680008032A9F4AF2DB0E0FD01EE0FFF1FEE0F89
:10169000FF1FE250FF4F8081813049F06083AA0F25
:1016A000BB1FAA0FBB1FA450BF4F13966C938A8118
:1016B000807F803399F48F2D90E0880F991F880FD9
:1016C000991FDC01A250BF4F2C91FC01222311F481
:1016D0006C9301C01C92E450FF4F63838D818F7B1C
:1016E000AEC0A80133E0440F551F3A95E1F74055CD
:1016F0005F4FFA01808185FF4CC08A818F708130F5
:10170000A9F4A72FB0E0FD01EE0FFF1FEE0FFF1FA2
:10171000E250FF4F8081882349F01082AA0FBB1F3F
:10172000AA0FBB1FA450BF4F13966C938A818F7072
:101730008230A9F4A72FB0E0FD01EE0FFF1FEE0FDE
:10174000FF1FE250FF4F8081813049F06083AA0F74
:10175000BB1FAA0FBB1FA450BF4F13966C938A8167
:101760008F70833099F4872F90E0880F991F880F2E
:10177000991FDC01A250BF4F2C91FC01222311F4D0
:101780006C9301C01C92E450FF4F63838D818F7D69
:101790008D83FA01808186FF4CC08A81807F8031F1
:1017A000A9F4AF2DB0E0FD01EE0FFF1FEE0FFF1FFC
:1017B000E250FF4F8081882349F01082AA0FBB1F9F
:1017C000AA0FBB1FA450BF4F13966C938A81807FD2
:1017D0008032A9F4AF2DB0E0FD01EE0FFF1FEE0F38
:1017E000FF1FE250FF4F8081813049F06083AA0FD4
:1017F000BB1FAA0FBB1FA450BF4F13966C938A81C7
:10180000807F803399F48F2D90E0880F991F880F87
:10181000991FDC01A250BF4F2C91FC01222311F42F
:101820006C9301C01C92E450FF4F63838D818F7BCA
:101830008D83FA01808187FF03C08D818F778D832F
:101840000F5F1F4F28960230110509F0A4CC80913C
:101850009F008E7F80939F00DF91CF911F910F910A
:10186000FF90EF90DF90CF90BF90AF909F908F90C0
:101870007F906F905F904F903F9008950F931F93CC
:10188000CF93DF9380919600082F10E0CCEFD0E04B
:10189000A0E0B0E0FD01EA59FF4FE491A63009F461
:1018A00057C0A73078F4A230B9F1A33028F4AA23A6
:1018B000F1F0A13019F529C0A430E1F1A53008F00C
:1018C00040C031C0AA3009F45FC0AB3038F4A83052
:1018D00009F44CC0A93008F050C041C0AC3009F444
:1018E00061C0AC3008F457C0AD3041F462C06BE069
:1018F00070E04CE050E02DE030E061C060E070E06E
:1019000040E050E020E030E05AC06EE070E04FE090
:1019100050E020E130E053C061E170E042E150E08E
:1019200023E130E04CC064E170E045E150E026E1A5
:1019300030E045C063E270E044E250E025E230E090
:101940003EC066E270E047E250E028E230E037C097
:1019500069E270E04AE250E02BE230E030C06CE235
:1019600070E04DE250E02EE230E029C065E370E027
:1019700046E350E027E330E022C068E370E049E34B
:1019800050E02AE330E01BC06BE370E04CE350E032
:101990002DE330E014C06AE470E04BE450E02CE446
:1019A00030E00DC06DE470E04EE450E02FE430E034
:1019B00006C060E570E041E550E022E530E0F0E08F
:1019C000EE0FFF1FE859FE4F808180FF26C0E1998E
:1019D000FECF600F711F7FBB6EBBE09A8DB3888313
:1019E000FD01EE0FFF1FEE0FFF1FE450FF4F808140
:1019F00080FF13C0E199FECF400F511F5FBB4EBB6C
:101A0000E09A8DB38983E199FECF200F311F3FBB50
:101A10002EBBE09A8DB38A831B8211962496AE303A
:101A2000B10509F037CFCBEBD0E040E050E0FA0150
:101A3000EC58FF4FE491442319F0413041F40EC0BB
:101A40002EE330E06FE370E0A0E4B0E00DC020E0F2
:101A500030E060E070E0A0E0B0E006C023E530E0F8
:101A600064E570E0A5E5B0E0F0E0EE0FFF1FE85997
:101A7000FE4F808180FF26C0E199FECF200F311FED
:101A80003FBB2EBBE09A8DB38883FA01EE0FFF1F98
:101A9000EE0FFF1FE554FF4F808180FF13C0E199D7
:101AA000FECF600F711F7FBB6EBBE09A8DB3898341
:101AB000E199FECFA00FB11FBFBBAEBBE09A8DB3C3
:101AC0008A831B824F5F5F4F24964230510509F095
:101AD000AECFC4ECD0E040E050E0FA01EA58FF4F4E
:101AE000E491442319F0413041F40EC021E430E088
:101AF00062E470E0A3E4B0E00DC020E030E060E01C
:101B000070E0A0E0B0E006C026E530E067E570E0F8
:101B1000A8E5B0E0F0E0EE0FFF1FE859FE4F80812E
:101B200080FF26C0E199FECF200F311F3FBB2EBBA7
:101B3000E09A8DB38883FA01EE0FFF1FEE0FFF1FAF
:101B4000EC53FF4F808180FF13C0E199FECF600FFF
:101B5000711F7FBB6EBBE09A8DB38983E199FECF85
:101B6000A00FB11FBFBBAEBBE09A8DB38A831B82AF
:101B70004F5F5F4F24964230510509F0AECFDF91A1
:101B8000CF911F910F91089580919600282F30E0FA
:101B9000245A3F4FECECF0E0E199FECF2250304068
:101BA0003FBB2EBB2E5F3F4FE09A9DB3E199FECF26
:101BB000215030403FBB2EBB2F5F3F4FE09A8DB38B
:101BC000582F40E0892F90E0842B952B91838083C0
:101BD000E199FECF3FBB2EBBE09A8DB382832D5F90
:101BE0003F4F339680E0EC3FF807B1F60895FFCF02
:101BF000CF93DF93EC0180E0BE010E94ED0388816A
:101C00008073803239F480919800882319F4CE01D2
:101C10000E940D0EDF91CF9108953F924F925F92F7
:101C20006F927F928F929F92AF92BF92CF92DF92EC
:101C3000EF92FF920F931F93DF93CF93CDB7DEB751
:101C40002D970FB6F894DEBF0FBECDBF8C01FCEC14
:101C50008F2EF0E09F2E442443943E010894611C93
:101C6000711C33243394E4E25E2EF8012181328129
:101C7000F401808191812817390709F077C1232B5E
:101C800009F474C17DEFE72E70E0F72EAA24BB247F
:101C9000F501EC5AFF4F94916501CC0CDD1CCC0C86
:101CA000DD1C2CEF30E0C20ED31EF601808180FFD8
:101CB00059C0F4018281981709F054C0F80180815D
:101CC0008F70843009F04EC02581213009F04AC060
:101CD000868190E083709070892BD1F4F601808129
:101CE00081FF16C05982F801818192819B838A838A
:101CF00080919400909195009D838C832E832F83F7
:101D0000F7018081888781818987C3010E94F80D4E
:101D1000F80186818370813071F4F601808184FF3F
:101D20000AC0F8019781F7018081981721F4F80122
:101D30008085F7018183F80186818370823091F478
:101D4000F601808182FF0EC0F8019781F701808142
:101D5000981741F4F8019085F7018181891711F0F6
:101D6000918342820894A11CB11C24E030E0E20E71
:101D7000F31E3EE0A316B10409F08ACF5CEBE52E1A
:101D800050E0F52EAA24BB24F501EE59FF4F9491A3
:101D90006501CC0CDD1CCC0CDD1CEBEBF0E0CE0EB9
:101DA000DF1EF601808180FF59C0F40182819817FF
:101DB00009F054C0F80180818F70843009F04EC062
:101DC0002581223009F04AC0868190E083709070AE
:101DD000892BD1F4F601808181FF16C05982F80168
:101DE000818192819B838A83809194009091950058
:101DF0009D838C832E833F82F70180818887818138
:101E00008987C3010E94F80DF801868183708130B3
:101E100071F4F601808184FF0AC0F8019781F7010F
:101E20008081981721F4F8018085F7018183F801FA
:101E300086818370823091F4F601808182FF0EC02A
:101E4000F8019781F7018081981741F4F801908596
:101E5000F7018181891711F0918342820894A11CB6
:101E6000B11C24E030E0E20EF31E32E0A316B10410
:101E700009F08ACF35ECE32E30E0F32EAA24BB2400
:101E8000F501EC59FF4F94916501CC0CDD1CCC0C95
:101E9000DD1CE4ECF0E0CE0EDF1EF601808180FF59
:101EA00059C0F4018281981709F054C0F80180816B
:101EB0008F70843009F04EC02581233009F04AC06C
:101EC000868190E083709070892BD1F4F601808137
:101ED00081FF16C05982F801818192819B838A8398
:101EE00080919400909195009D838C832E833F82F6
:101EF000F7018081888781818987C3010E94F80D5D
:101F0000F80186818370813071F4F601808184FF4D
:101F10000AC0F8019781F7018081981721F4F80130
:101F20008085F7018183F80186818370823091F486
:101F3000F601808182FF0EC0F8019781F701808150
:101F4000981741F4F8019085F7018181891711F004
:101F5000918342820894A11CB11C24E030E0E20E7F
:101F6000F31E32E0A316B10409F08ACF83E090E0BB
:101F7000880E991E9CEF891690E0990609F075CE9F
:101F80002D960FB6F894DEBF0FBECDBFCF91DF9177
:101F90001F910F91FF90EF90DF90CF90BF90AF9087
:101FA0009F908F907F906F905F904F903F9008959B
:101FB0007F928F929F92AF92BF92CF92DF92EF92D9
:101FC000FF920F931F93DF93CF93CDB7DEB72D977B
:101FD0000FB6F894DEBF0FBECDBF8091A20080FF88
:101FE00071C00CEF10E0CC24DD2484E2782E88242C
:101FF0008394B2E09B2E5E010894A11CB11CF601F3
:10200000EA59FF4FE491F0E0EE0FFF1FE859FE4F51
:10201000808180FF48C07601EE0CFF1CEE0CFF1C97
:102020008CEF90E0E80EF91EF701808180FF3BC045
:10203000808183FF30C0F8018381813061F5ACEC91
:10204000B0E0F601EC5AFF4F94912D913C9111971D
:1020500012968C9112978917B9F421153105A1F0C8
:1020600079823B832A8380919400909195009D838F
:102070008C838E829F82F801818188878281898703
:10208000C5010E94F80D05C01396F0E0AC3FBF07F4
:10209000E1F6F8011382F701808185FF04C0F801A1
:1020A00080818F7D80830894C11CD11C0C5F1F4FE1
:1020B000FEE0CF16D10409F0A2CF8091A2008E7F5E
:1020C0008093A2008091A50080FF6FC00BEB10E011
:1020D000CC24DD2464E2862E52E0952E5E01089425
:1020E000A11CB11CF601EC58FF4FE491F0E0EE0F9B
:1020F000FF1FE859FE4F808180FF48C07601EE0C3B
:10210000FF1CEE0CFF1C8BEB90E0E80EF91EF701B4
:10211000808180FF3BC0808183FF30C0F8018381D4
:10212000813061F5ACECB0E0F601EE59FF4F9491CF
:102130002D913C91119712968C9112978917B9F4B1
:1021400021153105A1F089823B832A838091940077
:10215000909195009D838C839E829F82F80181815E
:10216000888782818987C5010E94F80D05C0139672
:10217000F0E0AC3FBF07E1F6F8011382F701808180
:1021800085FF04C0F80180818F7D80830894C11C85
:10219000D11C0C5F1F4FF2E0CF16D10409F0A2CF83
:1021A0008091A5008E7F8093A5008091A80080FF7C
:1021B00071C004EC10E0CC24DD2424E2722E93E004
:1021C000892E82E0982E5E010894A11CB11CF601B4
:1021D000EA58FF4FE491F0E0EE0FFF1FE859FE4F81
:1021E000808180FF48C07601EE0CFF1CEE0CFF1CC6
:1021F00084EC90E0E80EF91EF701808180FF3BC07F
:10220000808183FF30C0F8018381813061F5ACECBF
:10221000B0E0F601EC59FF4F94912D913C9111974C
:1022200012968C9112978917B9F421153105A1F0F6
:1022300079823B832A8380919400909195009D83BD
:102240008C838E829F82F801818188878281898731
:10225000C5010E94F80D05C01396F0E0AC3FBF0722
:10226000E1F6F8011382F701808185FF04C0F801CF
:1022700080818F7D80830894C11CD11C0C5F1F4F0F
:10228000F2E0CF16D10409F0A2CF8091A8008E7F92
:102290008093A8002D960FB6F894DEBF0FBECDBF79
:1022A000CF91DF911F910F91FF90EF90DF90CF9032
:1022B000BF90AF909F908F907F900895DF92EF92A4
:1022C000FF920F931F93DF93CF93CDB7DEB72D9778
:1022D0000FB6F894DEBF0FBECDBFAC01FC01D080BD
:1022E0006D2D6F70E380F480009194001091950043
:1022F000DC01FE0136969E01260F311D2A5F3F4FFD
:1023000004C014968C91149781931196E217F307E9
:10231000C1F7FA018581823009F090C0623009F07E
:1023200046C18E81806C8E8326812223C1F4E1997F
:10233000FECF82E190E09FBB8EBBE09A8DB38823F5
:1023400009F462C0E199FECF82E190E09FBB8EBBB1
:102350001DBA0FB6F894E29AE19A0FBE6EC0213012
:10236000C9F4E199FECF82E190E09FBB8EBBE09A79
:102370008DB3813009F461C0E199FECF82E190E034
:102380009FBB8EBB81E08DBB0FB6F894E29AE19AB9
:102390000FBE53C0283009F037C0E199FECF8BE162
:1023A00090E09FBB8EBBE09A2DB32F5FE199FECFEB
:1023B0008BE190E09FBB8EBBE09A8DB3821761F0FA
:1023C000E199FECF8BE190E09FBB8EBB2DBB0FB69A
:1023D000F894E29AE19A0FBEE199FECF82E190E093
:1023E0009FBB8EBBE09A8DB3883039F1E199FECF67
:1023F00082E190E09FBB8EBB88E08DBB0FB6F89466
:10240000E29AE19A0FBE19C02930B9F4E199FECFE2
:1024100082E190E09FBB8EBBE09A8DB3893069F07A
:10242000E199FECF82E190E09FBB8EBB89E08DBB3E
:102430000FB6F894E29AE19A0FBEFFCF863009F00A
:1024400043C0613009F0B3C080919700893009F032
:10245000AEC080919600282F30E0A895E199FECF7C
:102460003FBB2EBBE09A8DB3882351F0E199FECF9C
:102470003FBB2EBB1DBA0FB6F894E29AE19A0FBE8D
:102480002F5F3F4FF2E020303F0738F32CE130E080
:10249000F901EC5BFF4FE081E199FECF3FBB2EBB22
:1024A000E09A8DB38E1751F0E199FECF3FBB2EBB62
:1024B000EDBB0FB6F894E29AE19A0FBE2F5F3F4F43
:1024C0002032310529F7FFCF873071F5643008F4E9
:1024D0006EC0FA01978180E02681DC01A20FB11D58
:1024E000F2E0A030BF0708F062C08E81806C8E835E
:1024F00040E0262F30E023503040BE01675F7F4F21
:102500000DC0E199FECFCD01840F911D9FBB8EBB05
:10251000E09A8DB3E60FF71F80834F5FE42FF0E062
:10252000E217F30774F343C0883009F040C0643009
:1025300008F43DC080919700893009F038C0FA0155
:10254000978180E02681DC01A20FB11D8091960069
:1025500090E0A817B90758F1F2E0A030BF0738F5AE
:102560008E81806C8E8390E0262F30E023503040A7
:1025700019C0BF016A0F7B1FE40FF51FE085E199C9
:10258000FECF7FBB6EBBE09A8DB38E1751F0E19901
:10259000FECF7FBB6EBBEDBB0FB6F894E29AE19A1B
:1025A0000FBE9F5FE92FF0E0E217F30714F38E816F
:1025B00080648E831D830C83FB82EA82D982CE01E4
:1025C00001960E94F80D2D960FB6F894DEBF0FBE4F
:1025D000CDBFCF91DF911F910F91FF90EF90DF90D2
:1025E00008952091960030E0220F331F820F931F31
:1025F00065E670E00E941D14089565E670E00E9493
:102600001D140895FF920F931F93DF93CF93CDB7BF
:10261000DEB72D970FB6F894DEBF0FBECDBF2DE00D
:1026200088E190E00FB6F894A89581BD0FBE21BD5A
:10263000A89580E190E065E670E00E941D149093FB
:1026400095008093940001978F5F9740B8F0E199CF
:10265000FECF82E190E09FBB8EBBE09A8DB38823D2
:1026600061F0E199FECF82E190E09FBB8EBB1DBA85
:102670000FB6F894E29AE19A0FBEFFCF2CE030E05B
:10268000F901EC5AFF4FE081E199FECF3FBB2EBB31
:10269000E09A8DB38E1751F0E199FECF3FBB2EBB70
:1026A000EDBB0FB6F894E29AE19A0FBE2F5F3F4F51
:1026B0002031310529F7E199FECF8AE190E09FBBF7
:1026C0008EBBE09A8DB380939600E199FECF82E1B4
:1026D00090E09FBB8EBBE09A8DB3809397008850AB
:1026E0008230D0F088E080939700E199FECF82E1BC
:1026F00090E09FBB8EBBE09A8DB3883069F0E19982
:10270000FECF82E190E09FBB8EBB88E08DBB0FB611
:10271000F894E29AE19A0FBE409198002CE130E0E3
:10272000E199FECF3FBB2EBBE09A8DB3F901EC5B84
:10273000FF4F9081891341602F5F3F4F2032310559
:1027400079F740939800442399F48BE083BF12BE3D
:102750008AEF8CBF82E089BF0E942A050E94C40DC7
:102760000E943E0C0E94D80F0E946B050E94F20648
:10277000789480E00E944403409194005091950029
:1027800081E28E83FE01379624E030E0E199FECFAE
:102790003FBB2EBBE09A8DB381932F5F3F4F283014
:1027A0003105A1F7E199FECF82E190E09FBB8EBB9E
:1027B000E09A8DB38B87809198008C875D834C83E2
:1027C00082E090EF9B838A8387E289838E010F5F8B
:1027D0001F4FC8010E94F80DF02E012FA89580917F
:1027E0009800882331F40E9462040E94D80F0E944E
:1027F000F20680E06F2D702F0E946103813071F727
:102800008981807369F42A813B8180919400909141
:1028100095002817390721F48F2D902F0E945E1103
:10282000898180738032D1F6809198008823B1F637
:102830008F2D902F0E940D0ED1CFDF92EF92FF923D
:102840000F931F937B018C01FB010995D82EC801C2
:102850000196F7010995982F8D2D1F910F91FF90EB
:0A286000EF90DF900895F894FFCF89
:10286A0018000100C3003A00370034003100C300E9
:10287A00C300C300C3003B00380035003200C30068
:10288A00C300C300C3003900360033003000C30060
:04289A00C300C300B4
:00000001FF
