:100000000C94D2000C94EF000C94EF000C94EF00D1
:100010000C94EF000C94EF000C94EF000C94EF00A4
:100020000C94EF000C94EF000C94EF000C94EF0094
:100030000C94EF000C94EF000C94EF000C94EF0084
:100040000C94EF000C94EF000C94EF000C947405EA
:100050000C94EF001B0E290E300E370E3E0E450E8F
:100060004C0E530E5A0E610E680E6F0E760E7D0EFC
:10007000840E8B0E920E990EA00EA70EAE0EB50E2C
:10008000BC0EC30ECA0ED10ED80EDF0EE60EED0E5C
:10009000F40EFB0E020F090F100F170F1E0F250F86
:1000A0002C0F330F3A0F410F480F4F0F560F5D0FB4
:1000B000640F6B0F720F790F800F870F8E0F950FE4
:1000C0009C0FA30F0001020506070A0B0C0F10116D
:1000D000141516191A1B1E1F2023242528292A2B24
:1000E0002C2D2E2F303132333435363738393A3BD8
:1000F0003C3D3E3F404142434445464703080D12C4
:10010000171C212604090E13181D222700000001C8
:1001100001010202020303030404040505050606A7
:100120000607070708080808090909090A0A0A0A48
:100130000B0B0B0B0C0C0C0C0D0D0D0D0E0E0E0EF7
:100140000F0F0F0F00010203040506070001020351
:100150000405060708090A0B0C0D0E0F181C2024B5
:10016000282C3034191D2125292D31351A1E22261F
:100170002A2E32361B1F23272B2F333710111A1B21
:100180001C1D1E1F000102030405060748494A4BB7
:100190004C4D4E4F0104070A0D1013160205080BB3
:1001A0000E11141711241FBECFE5D4E0DEBFCDBF62
:1001B00010E0A0E6B0E0E8EDFEE202C005900D928E
:1001C000A439B107D9F713E0A4E9B0E001C01D924A
:1001D000A437B107E1F70E9439160C946A170C9402
:1001E00000009C01E199FECF3FBB2EBBE09A8DB38E
:1001F00008959C01E199FECF3FBB2EBBE09A8DB3E1
:100200000895E199FECF9C019FBB8EBBE09A8DB310
:10021000861751F0E199FECF3FBB2EBB6DBB0FB6E9
:10022000F894E29AE19A0FBE089520919600E19920
:10023000FECF820F911D9FBB8EBBE09A8DB30895B8
:10024000AC0180919600282F30E0E199FECFCA01E1
:10025000820F931F9FBB8EBBE09A8DB3861761F010
:10026000E199FECF240F351F3FBB2EBB6DBB0FB6F0
:10027000F894E29AE19A0FBE0895E82FF0E0EE0FAD
:10028000FF1FEC57FF4F0190F081E02D808190E03F
:1002900002C0959587956A95E2F78170089591E07F
:1002A00002C0990F61506623E1F7A82FB0E0FD016D
:1002B000EE0FFF1FEC58FF4F0190F081E02D808181
:1002C000892B41FF89278083AA0FBB1FAC59BF4FE1
:1002D000ED91FC918081892B40FF892780830895CF
:1002E000DF93CF930F92CDB7DEB789836E98898164
:1002F00080FF10C0898181FF06C087B3806A87BBF9
:10030000BE986C9A05C0BE9A87B38F7587BB6C98F0
:100310006E9A03C087B38F7187BB0F90CF91DF9127
:1003200008951FB8779BFECF8FB108958FB9779B43
:10033000FECF08958FB9779BFECF8FB10895FF92BE
:100340000F931F93082FF62E142F41E00E944F01A8
:1003500083E08FB9779BFECF8FB11FB9779BFECF1C
:100360008FB18FEF8FB9779BFECF1FB1802F6F2D8D
:1003700043E00E944F01812F1F910F91FF9008953C
:10038000EF92FF920F931F93082FF62E142FE22E59
:1003900041E00E944F0182E08FB9779BFECF8FB181
:1003A0001FB9779BFECF8FB1EFB8779BFECF8FB190
:1003B000802F6F2D43E00E944F011F910F91FF90FE
:1003C000EF900895DF92EF92FF920F931F93E82E24
:1003D000D62E142FF22E41E00E944F0185E08FB9F6
:1003E000779BFECF8FB11FB9779BFECF8FB1FFB840
:1003F000779BFECF8FB10FB9779BFECF8FB18E2D3C
:100400006D2D43E00E944F011F910F91FF90EF90DF
:10041000DF9008958F929F92AF92BF92CF92DF921A
:10042000EF92FF920F931F93DF93CF93CDB7DEB779
:10043000F82ED62E142FB22E902E0C2D43E00E94B3
:100440004F01812F0E9470018F2D6D2D41E00E9480
:100450004F0180EC8FB9779BFECF8FB18F2D6D2D23
:1004600043E00E944F0180EA9FE00197F1F78F2D52
:100470006D2D4AE22B2D0E94C0018F2D6D2D49E27A
:10048000292D0E94C0018F2D6D2D48E22E2D0E9436
:10049000C0018F2D6D2D40E624E60E94C0018F2DF6
:1004A0006D2D40E720E60E94C0018F2D6D2D4BE29F
:1004B00023E00E94C001002379F1083020F4802F4E
:1004C0006A2D41E005C0003130F4802F6A2D43E0F1
:1004D0000E944F0121C00C3F31F48F2D6D2D4CE057
:1004E00024E104E017C00D3F31F48F2D6D2D4CE059
:1004F00028E208E00FC00E3F31F48F2D6D2D4CE047
:1005000024E104E107C00F3F39F48F2D6D2D4CE03D
:1005100028E208E20E94E2018F2D6D2D4CE02CE0D4
:100520000E94C0018F2D6D2D4FE020EE082D0E94FE
:10053000E2018F2D6D2D4FE00E949F0140E090E081
:10054000807E9070282D30E08217930709F441E0F7
:10055000842FCF91DF911F910F91FF90EF90DF904B
:10056000CF90BF90AF909F908F900895DF92EF92C1
:10057000FF920F931F93DF93CF930F92CDB7DEB708
:10058000082FD62E142F198243E00E944F01812F8D
:100590000E947001802F6D2D41E00E944F0180EB81
:1005A0008FB9779BFECF8FEF8FB9779BFECF9FB12F
:1005B0008FEF8FB9779BFECF8FB19983802F6D2DF1
:1005C00043E00E944F01898186FF02C010E906C006
:1005D000898187FD02C080E047C014E9802F6D2D1E
:1005E00041E00E944F011FB9779BFECF1FB8779B58
:1005F000FECF8FB1F70181831FB8779BFECF8FB1FC
:10060000F70180831FB8779BFECF8FB1F7018383FB
:100610001FB8779BFECF8FB1F70182831FB8779BFE
:10062000FECF8FB1F7018483848186FD10C090E0F6
:1006300009C01FB8779BFECF8FB1F701E90FF11DFD
:1006400085839F5FF7018481981798F307C0F701AE
:1006500080E015828F5F31968830D9F7802F6D2D1D
:1006600043E00E944F0181E00F90CF91DF911F91F5
:100670000F91FF90EF90DF900895CF92DF92EF926D
:10068000FF920F931F93DF93CF930F92CDB7DEB7F7
:10069000082FD62E142F198243E00E944F01812F7C
:1006A0000E947001802F6D2D41E00E944F0180EA71
:1006B0008FB9779BFECF8FEF8FB9779BFECF9FB11E
:1006C0008FEF8FB9779BFECF8FB19983802F6D2DE0
:1006D00043E00E944F01898182FD04C010E461E87B
:1006E000C62E0FC0898184FD04C012E452E8C52ED5
:1006F00008C0898186FF02C080E048C014E444E855
:10070000C42E802F6D2D41E00E944F011FB9779BB1
:10071000FECFF70181818FB9779BFECFF7018081F2
:100720008FB9779BFECFF70183818FB9779BFECF7F
:10073000F70182818FB9779BFECFF70124812FB912
:10074000779BFECFF701848186FD0CC090E008C046
:10075000F701E90FF11D85818FB9779BFECF9F5F70
:100760009217B0F3802F6D2D43E00E944F010000DF
:10077000802F6D2D41E00E944F01CFB8779BFECFB7
:10078000802F6D2D43E00E944F0181E00F90CF91AB
:10079000DF911F910F91FF90EF90DF90CF90089520
:1007A0008F92AF92CF92EF920F93882311F080E057
:1007B0000CC082E064E043E023E006EB74E0E72E47
:1007C000CC24AA2488240E940A020F91EF90CF9093
:1007D000AF908F900895AF92BF92CF92DF92EF9239
:1007E000FF920F93DF93CF93CDB7DEB72D970FB660
:1007F000F894DEBF0FBECDBF6B01882309F066C041
:1008000082E064E043E020E000E05E010894A11C87
:10081000B11C75010E94B602813009F057C0EA810F
:100820008E2F90E0807C9070959587959595879513
:100830000D81F02FFF70F82BD601FC936C8149815C
:1008400050E03E2F330F330F20E0862F869586959C
:100850008695280F311DCA018370907075E0880F4E
:10086000991F7A95E1F7280F391F407E5070440F89
:10087000551F440F551F240F351F12963C932E937E
:10088000119770E067707070762F66278B81680F04
:10089000711D14967C936E9313978D8186FD0AC00B
:1008A000DE011696F601202F30E02B5F3F4F2A0D18
:1008B0003B1D06C0F064D601FC9306C08D91848375
:1008C0003196A217B307D1F781E001C080E02D96E1
:1008D0000FB6F894DEBF0FBECDBFCF91DF910F9161
:1008E000FF90EF90DF90CF90BF90AF900895EF9280
:1008F000FF920F93DF93CF93CDB7DEB72D970FB64F
:10090000F894DEBF0FBECDBFFB01882311F090E04D
:100910004EC09281969596956081862F880F880F9C
:10092000807C892B8A8341815281CA019695879563
:1009300096958795807E9A01A5E036952795AA958C
:10094000E1F72370822B8860898384818770440F4C
:10095000440F440F842B8C8383818B836F706D8352
:10096000808186FD0AC0DF01FE013696CE01860F2A
:10097000911DBC016A5F7F4F07C060646D8308C032
:1009800014968C91149781931196E617F707C1F787
:1009900082E064E043E020E000E07E010894E11C96
:1009A000F11C0E943D0390E0813009F491E0892F11
:1009B0002D960FB6F894DEBF0FBECDBFCF91DF915D
:1009C0000F91FF90EF9008958BE083BF12BE8DE7EB
:1009D0008CBF82E089BF08958091990080FF50C04C
:1009E00080919B0090919C000A9748F080919A001A
:1009F000816080939A0010929C0010929B008091DD
:100A0000A0009091A1000A9748F080919F0081601A
:100A100080939F001092A1001092A0008091A300EB
:100A20009091A4000A9748F08091A2008160809381
:100A3000A2001092A4001092A3008091A6009091B1
:100A4000A7000A9748F08091A50081608093A500D7
:100A50001092A7001092A6008091A9009091AA0080
:100A60000A9748F08091A80081608093A8001092B6
:100A7000AA001092A900809199008E7F809399001E
:100A800008958091990081608093990080919B00E6
:100A900090919C00019690939C0080939B00809184
:100AA000A0009091A10001969093A1008093A000D6
:100AB0008091A3009091A40001969093A40080934C
:100AC000A3008091A6009091A70001969093A700A3
:100AD0008093A6008091A9009091AA00019690931E
:100AE000AA008093A90008951F920F920FB60F924B
:100AF00011248F939F938091990081608093990036
:100B000080919B0090919C00019690939C00809313
:100B10009B008091A0009091A10001969093A1006C
:100B20008093A0008091A3009091A40001969093DF
:100B3000A4008093A3008091A6009091A700019645
:100B40009093A7008093A6008091A9009091AA009D
:100B500001969093AA008093A9009F918F910F9086
:100B60000FBE0F901F90189580919600A82FB0E0AF
:100B7000E4E5F3E060E0673009F44BC0683070F4FE
:100B8000633099F1643028F4613001F1623040F54E
:100B900022C06530A1F16630B8F52CC06B3009F485
:100BA0004CC06C3030F46930F1F16A3008F040C06C
:100BB00035C06D3009F44BC06D3008F443C06E3061
:100BC00009F44AC06F3009F051C04BC045E150E014
:100BD00089E290E04FC040E050E084E190E04AC0FC
:100BE0004AE250E08EE390E045C04FE350E083E5F9
:100BF00090E040C044E550E088E690E03BC049E624
:100C000050E08DE790E036C04EE750E082E990E09A
:100C100031C043E950E087EA90E02CC048EA50E058
:100C20008FEB90E027C040EC50E087ED90E022C0D1
:100C300048ED50E08FEE90E01DC040EF50E087E0BF
:100C400091E018C048E051E08FE191E013C040E22C
:100C500051E087E391E00EC048E351E08FE491E07A
:100C600009C040E551E087E691E004C040E050E073
:100C700080E090E0118210824817590780F49A01B1
:100C80002F5F3F4F82179307D8F7E199FECF4A0FA6
:100C90005B1F5FBB4EBBE09A8DB3808311826F5F99
:100CA0003296603109F067CF08952F923F924F92AC
:100CB0005F926F927F928F929F92AF92BF92CF92EC
:100CC000DF92EF92FF920F931F93CF93DF93809168
:100CD0009600282E332464E8462E62E0562E6624C1
:100CE000772483E0681609F479C0861540F091E016
:100CF000691609F441C0961508F457C00FC0A5E065
:100D00006A1609F4A1C06A1608F481C0B6E06B1631
:100D100009F4B7C0E7E06E16D1F4D0C059EA852EC9
:100D2000912C4AEAA42EB12C3BEAC32ED12C2CEAFA
:100D3000E22EF12C0DEA10E0CEEAD0E0AFEAB0E00E
:100D400060EB70E041EB50E022EB30E0D3C0882450
:100D50009924AA24BB24CC24DD24EE24FF2400E023
:100D600010E0C0E0D0E0A0E0B0E060E070E040E083
:100D700050E020E030E0BEC091EC892E912C82EC56
:100D8000A82EB12C03ECC02ED12C14ECE12EF12CAA
:100D900005EC10E0C6ECD0E0A7ECB0E068EC70E049
:100DA00049EC50E02AEC30E0A5C0B9ED8B2E912C37
:100DB000AAEDAA2EB12CFBEDCF2ED12CECEDEE2E10
:100DC000F12C0DED10E0CEEDD0E0AFEDB0E060EE37
:100DD00070E041EE50E022EE30E08CC071EF872EE3
:100DE000912C62EFA62EB12C53EFC52ED12C44EFDF
:100DF000E42EF12C05EF10E0C6EFD0E0A7EFB0E055
:100E000068EF70E049EF50E02AEF30E073C039E05E
:100E1000832E31E0932E2AE0A22E21E0B22E9BE019
:100E2000C92E91E0D92E8CE0E82E81E0F82E0DE05D
:100E300011E0CEE0D1E0AFE0B1E060E171E041E18E
:100E400051E022E131E056C001E2802E01E0902E17
:100E500012E2A12E11E0B12EB3E2CB2EB1E0DB2ED7
:100E6000A4E2EA2EA1E0FA2E05E211E0C6E2D1E00A
:100E7000A7E2B1E068E271E049E251E02AE231E044
:100E800039C0F9E38F2EF1E09F2EEAE3AE2EE1E0C8
:100E9000BE2E7BE3C72E71E0D72E6CE3E62E61E019
:100EA000F62E0DE311E0CEE3D1E0AFE3B1E060E474
:100EB00071E041E451E022E431E01CC051E5852EAF
:100EC00051E0952E42E5A42E41E0B42E33E5C32E29
:100ED00031E0D32E24E5E22E21E0F22E05E511E0EB
:100EE000C6E5D1E0A7E5B1E068E571E049E551E08C
:100EF0002AE531E0F301EC5AFE4FE491F0E0EE0F09
:100F0000FF1FEC5AFC4F808180FF66C0E199FECF45
:100F1000820C931C9FBA8EBAE09A8DB3F201808343
:100F2000E199FECFA20CB31CBFBAAEBAE09A8DB362
:100F3000F2018183E199FECFC20CD31CDFBACEBA95
:100F4000E09A8DB3F2018283E199FECFE20CF31CAB
:100F5000FFBAEEBAE09A8DB3F2018383E199FECF36
:100F6000020D131D1FBB0EBBE09A8DB3F2018483EB
:100F7000E199FECFC20DD31DDFBBCEBBE09A8DB38E
:100F8000F2018583E199FECFA20DB31DBFBBAEBBBD
:100F9000E09A8DB3D20116968C93E199FECF620D43
:100FA000731D7FBB6EBBE09A8DB3F2018783E1991D
:100FB000FECF420D531D5FBB4EBBE09A8DB3D201F5
:100FC00018968C93E199FECF220D331D3FBB2EBBAB
:100FD000E09A8DB3F20181870894611C711C8AE14B
:100FE00090E0480E591E98E06916710409F079CE18
:100FF0000BEA10E0C0E0D0E0C330A9F1C43028F41F
:10100000C130F9F0C23030F50AC0C530F1F1C53059
:1010100098F1C63009F442C0C73051F448C0A1E08D
:10102000B0E062E070E043E050E024E030E047C030
:10103000A0E0B0E060E070E040E050E020E030E0B0
:101040003EC0A6E1B0E067E170E048E150E029E190
:1010500030E035C0ABE2B0E06CE270E04DE250E071
:101060002EE230E02CC0A0E4B0E061E470E042E4A5
:1010700050E023E430E023C0A5E5B0E066E570E091
:1010800047E550E028E530E01AC0AAE6B0E06BE69C
:1010900070E04CE650E02DE630E011C0AFE7B0E084
:1010A00060E870E041E850E022E830E008C0A4E9E0
:1010B000B0E065E970E046E950E027E930E0FE0184
:1010C000EC57FE4FE491F0E0EE0FFF1FEC5AFC4F9F
:1010D000808180FF46C080919600E82FF0E0E19982
:1010E000FECFAE0FBF1FBFBBAEBBE09A8DB3D80122
:1010F0008C93E199FECF6E0F7F1F7FBB6EBBE09A92
:101100008DB3D80111968C93E199FECF4E0F5F1FDE
:101110005FBB4EBBE09A8DB3D80112968C93E199D8
:10112000FECF2E0F3F1F3FBB2EBBE09A8DB3F801C1
:101130008383FE01E457FE4F6491262F30E0C901FE
:101140008873907033E0959587953A95E1F78823F9
:1011500041F0677026FD02C040E001C042E00E94FD
:101160004F012196085F1F4FC830D10509F044CFC9
:10117000DF91CF911F910F91FF90EF90DF90CF9073
:10118000BF90AF909F908F907F906F905F904F90A7
:101190003F902F900895FB01918380830895FB0178
:1011A000880F991F9183808308953F924F925F9299
:1011B0006F927F928F929F92AF92BF92CF92DF9267
:1011C000EF92FF920F931F93CF93DF9380919A003A
:1011D00080FFB9C1C4E8D2E07E0100E010E07AE10E
:1011E000A72EB12CDD24D39461E0462E512C50E182
:1011F000652E5EE0752E4CE3342E38EE832E33E000
:10120000932EF801EC5AFE4FE491F0E0EE0FFF1F31
:10121000EC5AFC4F808180FF86C1F801E45AFE4FF2
:101220002491F801EC59FE4F3491F801EC58FE4F2F
:10123000C490F701808190E08076907080329105B3
:1012400039F0A22FB0E08034910509F052C023C0DC
:10125000A22FB0E0232F30E0FD01EE0FFF1FEE0FB5
:10126000FF1FEC55FE4F8381813059F0F901EE0FDD
:10127000FF1FEE0FFF1FEC55FE4F8381813009F0F9
:101280004BC0AA0FBB1FAA0FBB1FAA55BE4F8C9104
:10129000882369F11FC0232F30E0FD01EE0FFF1FEF
:1012A000EE0FFF1FEC55FE4F8381813051F0F901A5
:1012B000EE0FFF1FEE0FFF1FEC55FE4F83818130B5
:1012C00059F5AA0FBB1FAA0FBB1FAA55BE4F8C9181
:1012D000882351F4220F331F220F331F2A553E4F0C
:1012E000F9018081882319F0DA8ADB8A15C01A8A0D
:1012F000FCCFFD01EE0FFF1FEE0FFF1FEC55FE4F61
:101300009381913049F4AA0FBB1FAA0FBB1FAA55A6
:10131000BE4F8C918A8B9B8B4A89898190E0837028
:101320009070009709F47AC0019709F077C00A9D80
:10133000F0010B9DF00D1A9DF00D1124EB57FD4FA0
:10134000808182FF34C0413089F48A859B85AC85D9
:10135000BD850097A105B10551F10197A109B1091A
:101360008A879B87AC87BD8740E021C08C8190E055
:10137000869D9001879D300D969D300D11248B81A7
:10138000839DC0011124280F391F8A81280F311D28
:10139000289DC001299D900D389D900D1124AA27EC
:1013A00097FDA095BA2F8A879B87AC87BD878081E0
:1013B00083FF34C0442389F48E859F85A889B98929
:1013C0000097A105B10551F10197A109B1098E87D7
:1013D0009F87A88BB98B41E021C08F8190E0869DCB
:1013E0009001879D300D969D300D11248E81839D37
:1013F000C0011124280F391F8D81280F311D289D10
:10140000C001299D900D389D900D1124AA2797FDAC
:10141000A095BA2F8E879F87A88BB98B8C8984174C
:1014200011F04C8BDD8A9D89913019F48C898E8B5B
:101430009F8B9F89913019F48E89888F998F898D20
:10144000813009F043C0F801E458FE4F6491F70180
:10145000808190E083709070892BC1F50A9DA00176
:101460000B9D500D1A9D500D1124FA01E456FD4FAD
:101470008081262F30E080FF11C028733070E3E0B8
:1014800035952795EA95E1F72223F9F06770FA017F
:10149000EC57FD4F808182FD11C013C0287330705E
:1014A00073E0359527957A95E1F7222371F06770FF
:1014B000FA01EC57FD4F808182FD03C0822F43E08B
:1014C00002C0822F41E00E944F01198E988D0A9D23
:1014D000F0010B9DF00D1A9DF00D1124E357FD4F07
:1014E0002081E081992321F4E0FF02C091E007C050
:1014F00080E0913009F481E0922F94259823EC2D1F
:10150000F0E0DF01AA0FBB1FAA0FBB1FAA55BE4FF9
:101510008C91891741F09C93EE0FFF1FEE0FFF1F78
:10152000EC55FE4FD3820F5F1F4F6A968AE190E021
:10153000E80EF91E0830110509F063CE80919A007B
:101540008E7F80939A0080919F0080FF45C3CBEAF5
:10155000D0E000E010E071E0BAE5EB2EF801EC57C6
:10156000FE4FE491F0E0EE0FFF1FEC5AFC4F80813C
:1015700080FF26C3F801E457FE4F2491F801EC5692
:10158000FE4F6491F801E456FE4FF490888190E09C
:10159000837090708130910509F444C082309105C8
:1015A00009F440C0892B09F03EC0822F90E0887377
:1015B0009070E3E095958795EA95E1F7982F882359
:1015C00091F12770F80153E0EE0FFF1F5A95E1F7F4
:1015D000E555FF4F8081E92FF0E082FD11C0EE0F4D
:1015E000FF1FEC57FF4F0190F081E02D808190E0CC
:1015F00002C0959587952A95E2F780FF13C010C029
:10160000EE0FFF1FEC57FF4F0190F081E02D80811E
:1016100090E002C0959587952A95E2F780FD02C07B
:101620007C8301C01C828C818823B9F08F818F5FFD
:101630008F83843019F48D8180618D838F8188320E
:1016400019F48D8180648D838F81843621F4EF823B
:101650008D8180688D831E8211C08E818F5F8E8305
:10166000843019F48D8181608D838F81882329F0E6
:10167000883218F48D8180628D831F828981282FA2
:1016800030E0C90187709070892B09F099C2C901B7
:10169000887390708830910509F4AAC0893091054B
:1016A0001CF4892B49F08CC28031910509F43CC1AE
:1016B000489709F085C2D4C1A80123E0440F551F03
:1016C0002A95E1F740555F4FFA01808184FF46C0BB
:1016D0008A8190E08F7090708130910571F4A62F0F
:1016E000B0E0FD01EE0FFF1FEE0FFF1FEA55FE4FAA
:1016F0008081882381F1108210C082309105B1F47D
:10170000A62FB0E0FD01EE0FFF1FEE0FFF1FEA5501
:10171000FE4F80818130F9F07083AA0FBB1FAA0FA2
:10172000BB1FAC55BE4F13967C9315C0039799F41D
:10173000862F90E0880F991F880F991FDC01AA550A
:10174000BE4F2C91FC01222311F47C9301C01C920A
:10175000EC55FE4F73838D818F7E8D83FA018081DE
:1017600080FF2EC28A8190E0807F90708031910549
:1017700071F4A62FB0E0FD01EE0FFF1FEE0FFF1F6B
:10178000EA55FE4F8081882381F1108210C080329B
:101790009105B1F4A62FB0E0FD01EE0FFF1FEE0F93
:1017A000FF1FEA55FE4F80818130F9F07083AA0F48
:1017B000BB1FAA0FBB1FAC55BE4F13967C9315C021
:1017C000C09799F4862F90E0880F991F880F991F72
:1017D000DC01AA55BE4F2C91FC01222311F47C930D
:1017E00001C01C92EC55FE4F73838D818E7FE7C143
:1017F000A80123E0440F551F2A95E1F740555F4F9C
:10180000FA01808184FF46C08A8190E08F709070D9
:101810008130910571F4A62FB0E0FD01EE0FFF1F9E
:10182000EE0FFF1FEA55FE4F8081882381F1108261
:1018300010C082309105B1F4A62FB0E0FD01EE0F8B
:10184000FF1FEE0FFF1FEA55FE4F80818130F9F038
:101850007083AA0FBB1FAA0FBB1FAC55BE4F1396B8
:101860007C9315C0039799F4862F90E0880F991FF9
:10187000880F991FDC01AA55BE4F2C91FC01222331
:1018800011F47C9301C01C92EC55FE4F73838D8143
:101890008F7E8D83FA01808180FF8BC18A8190E0E9
:1018A000807F90708031910571F4A62FB0E0FD012A
:1018B000EE0FFF1FEE0FFF1FEA55FE4F80818823BA
:1018C00081F1108210C080329105B1F4A62FB0E0F2
:1018D000FD01EE0FFF1FEE0FFF1FEA55FE4F808147
:1018E0008130F9F07083AA0FBB1FAA0FBB1FAC5544
:1018F000BE4F13967C9315C0C09799F4862F90E045
:10190000880F991F880F991FDC01AA55BE4F2C9193
:10191000FC01222311F47C9301C01C92EC55FE4F74
:1019200073838D818E7F44C1A80193E0440F551FBE
:101930009A95E1F740555F4FFA01808185FF46C0D7
:101940008A8190E08F7090708130910571F4A62F9C
:10195000B0E0FD01EE0FFF1FEE0FFF1FEA55FE4F37
:101960008081882381F1108210C082309105B1F40A
:10197000A62FB0E0FD01EE0FFF1FEE0FFF1FEA558F
:10198000FE4F80818130F9F07083AA0FBB1FAA0F30
:10199000BB1FAC55BE4F13967C9315C0039799F4AB
:1019A000862F90E0880F991F880F991FDC01AA5598
:1019B000BE4F2C91FC01222311F47C9301C01C9298
:1019C000EC55FE4F73838D818F7D8D83FA0180816D
:1019D00086FFF6C08A8190E0807F9070803191050B
:1019E00071F4AF2DB0E0FD01EE0FFF1FEE0FFF1FF2
:1019F000EA55FE4F8081882381F1108210C0803229
:101A00009105B1F4AF2DB0E0FD01EE0FFF1FEE0F19
:101A1000FF1FEA55FE4F80818130F9F07083AA0FD5
:101A2000BB1FAA0FBB1FAC55BE4F13967C9315C0AE
:101A3000C09799F48F2D90E0880F991F880F991FF8
:101A4000DC01AA55BE4F2C91FC01222311F47C939A
:101A500001C01C92EC55FE4F73838D818F7BAFC00C
:101A6000A80123E0440F551F2A95E1F740555F4F29
:101A7000FA01808185FF53C08A8190E08F70907059
:101A80008130910571F4A62FB0E0FD01EE0FFF1F2C
:101A9000EE0FFF1FEA55FE4F80818823E9F1108287
:101AA00010C082309105B1F4A62FB0E0FD01EE0F19
:101AB000FF1FEE0FFF1FEA55FE4F8081813061F15D
:101AC0007083AA0FBB1FAA0FBB1FAC55BE4F139646
:101AD0007C9322C0039701F5862F90E0DC01AA0FCA
:101AE000BB1FFD01EE0FFF1FEA55FE4F2081FC01D9
:101AF000EE0FFF1FEE0FFF1F222331F4AA0FBB1FB3
:101B0000AA55BE4F7C9305C0AA0FBB1FAA55BE4F56
:101B10001C92EC55FE4F73838D818F7D8D83FA016E
:101B2000808186FF46C08A8190E0807F90708031FE
:101B3000910571F4AF2DB0E0FD01EE0FFF1FEE0F28
:101B4000FF1FEA55FE4F8081882381F1108210C06B
:101B500080329105B1F4AF2DB0E0FD01EE0FFF1F13
:101B6000EE0FFF1FEA55FE4F80818130F9F0708340
:101B7000AA0FBB1FAA0FBB1FAC55BE4F13967C9379
:101B800015C0C09799F48F2D90E0880F991F880F8A
:101B9000991FDC01AA55BE4F2C91FC01222311F4A0
:101BA0007C9301C01C92EC55FE4F73838D818F7B1B
:101BB0008D83FA01808187FF03C08D818F778D83AC
:101BC0000F5F1F4F28960830110509F0C7CC809190
:101BD0009F008E7F80939F00DF91CF911F910F9187
:101BE000FF90EF90DF90CF90BF90AF909F908F903D
:101BF0007F906F905F904F903F9008950F931F9349
:101C0000CF93DF9380919600082F10E0C4EAD1E0D3
:101C1000A0E0B0E0FD01E45FFE4F8491EA2FF0E028
:101C2000E833F10578F4E65DFF4FEE0FFF1F0590F6
:101C3000F491E02D099465E070E046E050E027E083
:101C400030E087C160E070E040E050E020E030E04C
:101C500080C168E070E049E050E02AE030E079C1FE
:101C60006BE070E04CE050E02DE030E072C16AE1E2
:101C700070E04BE150E02CE130E06BC16DE170E0D1
:101C80004EE150E02FE130E064C160E270E041E2FB
:101C900050E022E230E05DC16FE270E040E350E0EE
:101CA00021E330E056C162E370E043E350E024E317
:101CB00030E04FC165E370E046E350E027E330E0F9
:101CC00048C164E470E045E450E026E430E041C1FE
:101CD00067E470E048E450E029E430E03AC16AE4A7
:101CE00070E04BE450E02CE430E033C169E570E093
:101CF0004AE550E02BE530E02CC16CE570E04DE5A5
:101D000050E02EE530E025C16FE570E040E650E0A0
:101D100021E630E01EC16EE670E04FE650E020E7BD
:101D200030E017C161E770E042E750E023E730E0C0
:101D300010C164E770E045E750E026E730E009C1F4
:101D400063E870E044E850E025E830E002C166E86E
:101D500070E047E850E028E830E0FBC069E870E058
:101D60004AE850E02BE830E0F4C068E970E049E967
:101D700050E02AE930E0EDC06BE970E04CE950E05A
:101D80002DE930E0E6C06EE970E04FE950E020EA6E
:101D900030E0DFC063EB70E044EB50E025EB30E077
:101DA000D8C066EB70E047EB50E028EB30E0D1C0E4
:101DB00069EB70E04AEB50E02BEB30E0CAC06CEB13
:101DC00070E04DEB50E02EEB30E0C3C06BEC70E008
:101DD0004CEC50E02DEC30E0BCC06EEC70E04FEC11
:101DE00050E020ED30E0B5C061ED70E042ED50E034
:101DF00023ED30E0AEC064ED70E045ED50E026ED3F
:101E000030E0A7C063EE70E044EE50E025EE30E035
:101E1000A0C066EE70E047EE50E028EE30E099C0DA
:101E200069EE70E04AEE50E02BEE30E092C06CEECE
:101E300070E04DEE50E02EEE30E08BC06BEF70E0C6
:101E40004CEF50E02DEF30E084C06EEF70E04FEFCC
:101E500050E020E031E07DC061E071E042E051E01F
:101E600023E031E076C064E071E045E051E026E037
:101E700031E06FC063E171E044E151E025E131E020
:101E800068C066E171E047E151E028E131E061C0FE
:101E900069E171E04AE151E02BE131E05AC06CE1C7
:101EA00071E04DE151E02EE131E053C06BE271E0B1
:101EB0004CE251E02DE231E04CC06EE271E04FE2C5
:101EC00051E020E331E045C061E371E042E351E0DD
:101ED00023E331E03EC064E371E045E351E026E3F3
:101EE00031E037C063E471E044E451E025E431E0DF
:101EF00030C066E471E047E451E028E431E029C0F5
:101F000069E471E04AE451E02BE431E022C06CE482
:101F100071E04DE451E02EE431E01BC06BE571E06F
:101F20004CE551E02DE531E014C06EE571E04FE580
:101F300051E020E631E00DC061E671E042E651E09B
:101F400023E631E006C064E671E045E651E026E6AE
:101F500031E0E82FF0E0EE0FFF1FEC5AFC4F8081DC
:101F600080FF26C0E199FECF600F711F7FBB6EBB63
:101F7000E09A8DB38883FD01EE0FFF1FEE0FFF1F68
:101F8000EC55FE4F808180FF13C0E199FECF400FDA
:101F9000511F5FBB4EBBE09A8DB38983E199FECFA1
:101FA000200F311F3FBB2EBBE09A8DB38A831B826B
:101FB00011962496A833B10509F02CCECBEED0E0D3
:101FC000A0E0B0E0FD01EC5BFE4FE491A33061F1D5
:101FD000A43028F4A130D1F0A230F8F409C0A53023
:101FE00089F1A53040F1A630A1F1A73041F438C005
:101FF0004EE050E06FE070E020E130E037C040E0BC
:1020000050E060E070E020E030E030C043E250E0BB
:1020100064E270E025E230E029C048E350E069E383
:1020200070E02AE330E022C04DE450E06EE470E05E
:102030002FE430E01BC042E650E063E670E024E6A7
:1020400030E014C047E750E068E770E029E730E08F
:102050000DC04CE850E06DE870E02EE830E006C0BE
:1020600041EA50E062EA70E023EA30E0F0E0EE0F8F
:10207000FF1FEC5AFC4F808180FF26C0E199FECF04
:10208000400F511F5FBB4EBBE09A8DB38883FD01AB
:10209000EE0FFF1FEE0FFF1FE551FF4F808180FF06
:1020A00013C0E199FECF600F711F7FBB6EBBE09A3A
:1020B0008DB38983E199FECF200F311F3FBB2EBB2B
:1020C000E09A8DB38A831B8211962496A830B105BD
:1020D00009F078CFCCE0D1E0A0E0B0E0FD01E45B16
:1020E000FE4FE491A33061F1A43028F4A130D1F087
:1020F000A230F8F409C0A53089F1A53040F1A6302E
:10210000A1F1A73041F438C041E150E062E170E054
:1021100023E130E037C040E050E060E070E020E0D4
:1021200030E030C046E250E067E270E028E230E0A4
:1021300029C04BE350E06CE370E02DE330E022C0B7
:1021400040E550E061E570E022E530E01BC045E687
:1021500050E066E670E027E630E014C04AE750E061
:102160006BE770E02CE730E00DC04FE850E060E92D
:1021700070E021E930E006C044EA50E065EA70E032
:1021800026EA30E0F0E0EE0FFF1FEC5AFC4F8081B2
:1021900080FF26C0E199FECF400F511F5FBB4EBBB1
:1021A000E09A8DB38883FD01EE0FFF1FEE0FFF1F36
:1021B000E45FFE4F808180FF13C0E199FECF600F86
:1021C000711F7FBB6EBBE09A8DB38983E199FECF0F
:1021D000200F311F3FBB2EBBE09A8DB38A831B8239
:1021E00011962496A830B10509F078CFDF91CF91F0
:1021F0001F910F91089580919600282F30E0265965
:102200003E4FECE2F1E0E199FECF225030403FBB7F
:102210002EBB2E5F3F4FE09A9DB3E199FECF215038
:1022200030403FBB2EBB2F5F3F4FE09A8DB3582FFE
:1022300040E0892F90E0842B952B91838083E19956
:10224000FECF3FBB2EBBE09A8DB382832D5F3F4F05
:10225000339681E0E43AF807B1F60895FFCFCF93C3
:10226000DF93EC0180E0BE010E94770488818073D7
:10227000803239F480919800882319F4CE010E94AD
:102280004411DF91CF9108953F924F925F926F92E8
:102290007F928F929F92AF92BF92CF92DF92EF92F6
:1022A000FF920F931F93DF93CF93CDB7DEB72D9798
:1022B0000FB6F894DEBF0FBECDBF8C01FCE28F2EAF
:1022C000F1E09F2E442443943E010894611C711C4C
:1022D00033243394E4E25E2EF80121813281F4014B
:1022E000808191812817390709F077C1232B09F4E0
:1022F00074C175EAE72E71E0F72EAA24BB24F5011C
:10230000EC53FF4F94916501CC0CDD1CCC0CDD1C13
:1023100024EA31E0C20ED31EF601808180FF59C04D
:10232000F4018281981709F054C0F80180818F7000
:10233000843009F04EC02581213009F04AC08681E1
:1023400090E083709070892BD1F4F601808181FF39
:1023500016C05982F801818192819B838A83809182
:102360009400909195009D838C832E832F83F70199
:102370008081888781818987C3010E942F11F8019C
:1023800086818370813071F4F601808184FF0AC0F8
:10239000F8019781F7018081981721F4F801808571
:1023A000F7018183F80186818370823091F4F60110
:1023B000808182FF0EC0F8019781F7018081981714
:1023C00041F4F8019085F7018181891711F091831B
:1023D00042820894A11CB11C24E030E0E20EF31EFE
:1023E00038E3A316B10409F08ACF5CEEE52E50E085
:1023F000F52EAA24BB24F501E450FF4F949165010A
:10240000CC0CDD1CCC0CDD1CEBEEF0E0CE0EDF1EA8
:10241000F601808180FF59C0F4018281981709F08C
:1024200054C0F80180818F70843009F04EC025813E
:10243000223009F04AC0868190E083709070892B29
:10244000D1F4F601808181FF16C05982F8018181A3
:1024500092819B838A8380919400909195009D83C3
:102460008C832E833F82F7018081888781818987D1
:10247000C3010E942F11F80186818370813071F4AD
:10248000F601808184FF0AC0F8019781F7018081FD
:10249000981721F4F8018085F7018183F80186817E
:1024A0008370823091F4F601808182FF0EC0F801C2
:1024B0009781F7018081981741F4F8019085F70121
:1024C0008181891711F0918342820894A11CB11C6B
:1024D00024E030E0E20EF31E38E0A316B10409F068
:1024E0008ACF3DE0E32E31E0F32EAA24BB24F50190
:1024F000EC5FFE4F94916501CC0CDD1CCC0CDD1C17
:10250000ECE0F1E0CE0EDF1EF601808180FF59C0C5
:10251000F4018281981709F054C0F80180818F700E
:10252000843009F04EC02581233009F04AC08681ED
:1025300090E083709070892BD1F4F601808181FF47
:1025400016C05982F801818192819B838A83809190
:102550009400909195009D838C832E833F82F70198
:102560008081888781818987C3010E942F11F801AA
:1025700086818370813071F4F601808184FF0AC006
:10258000F8019781F7018081981721F4F80180857F
:10259000F7018183F80186818370823091F4F6011E
:1025A000808182FF0EC0F8019781F7018081981722
:1025B00041F4F8019085F7018181891711F0918329
:1025C00042820894A11CB11C24E030E0E20EF31E0C
:1025D00038E0A316B10409F08ACF83E090E0880EBA
:1025E000991E94EA891691E0990609F075CE2D9608
:1025F0000FB6F894DEBF0FBECDBFCF91DF911F9114
:102600000F91FF90EF90DF90CF90BF90AF909F9091
:102610008F907F906F905F904F903F9008957F9242
:102620008F929F92AF92BF92CF92DF92EF92FF92E2
:102630000F931F93DF93CF93CDB7DEB72D970FB6D0
:10264000F894DEBF0FBECDBF8091A20080FF71C0A5
:1026500004EA11E0CC24DD2484E2782E88248394DB
:10266000B2E09B2E5E010894A11CB11CF601E45F50
:10267000FE4FE491F0E0EE0FFF1FEC5AFC4F80811B
:1026800080FF48C07601EE0CFF1CEE0CFF1C84EAB4
:1026900091E0E80EF91EF701808180FF3BC0808148
:1026A00083FF30C0F8018381813061F5ACE2B1E095
:1026B000F601EC53FF4F94912D913C911197129696
:1026C0008C9112978917B9F421153105A1F07982FF
:1026D0003B832A8380919400909195009D838C8305
:1026E0008E829F82F8018181888782818987C501D6
:1026F0000E942F1105C01396F1E0A43ABF07E1F63E
:10270000F8011382F701808185FF04C0F801808100
:102710008F7D80830894C11CD11C0C5F1F4FF8E390
:10272000CF16D10409F0A2CF8091A2008E7F8093B2
:10273000A2008091A50080FF6FC00BEE10E0CC24BA
:10274000DD2464E2862E52E0952E5E010894A11CE1
:10275000B11CF601EC5BFE4FE491F0E0EE0FFF1FC1
:10276000EC5AFC4F808180FF48C07601EE0CFF1CC4
:10277000EE0CFF1C8BEE90E0E80EF91EF701808155
:1027800080FF3BC0808183FF30C0F80183818130AE
:1027900061F5ACE2B1E0F601E450FF4F94912D9168
:1027A0003C91119712968C9112978917B9F42115C3
:1027B0003105A1F089823B832A8380919400909116
:1027C00095009D838C839E829F82F80181818887FA
:1027D00082818987C5010E942F1105C01396F1E0FF
:1027E000A43ABF07E1F6F8011382F701808185FF63
:1027F00004C0F80180818F7D80830894C11CD11CA6
:102800000C5F1F4FF8E0CF16D10409F0A2CF8091E2
:10281000A5008E7F8093A5008091A80080FF71C0E5
:102820000CE011E0CC24DD2424E2722E93E0892E0A
:1028300082E0982E5E010894A11CB11CF601E45BB5
:10284000FE4FE491F0E0EE0FFF1FEC5AFC4F808149
:1028500080FF48C07601EE0CFF1CEE0CFF1C8CE0E4
:1028600091E0E80EF91EF701808180FF3BC0808176
:1028700083FF30C0F8018381813061F5ACE2B1E0C3
:10288000F601EC5FFE4F94912D913C9111971296B9
:102890008C9112978917B9F421153105A1F079822D
:1028A0003B832A8380919400909195009D838C8333
:1028B0008E829F82F8018181888782818987C50104
:1028C0000E942F1105C01396F1E0A43ABF07E1F66C
:1028D000F8011382F701808185FF04C0F80180812F
:1028E0008F7D80830894C11CD11C0C5F1F4FF8E0C2
:1028F000CF16D10409F0A2CF8091A8008E7F8093DB
:10290000A8002D960FB6F894DEBF0FBECDBFCF91B5
:10291000DF911F910F91FF90EF90DF90CF90BF90CC
:10292000AF909F908F907F900895DF92EF92FF92EB
:102930000F931F93DF93CF93CDB7DEB72D970FB6CD
:10294000F894DEBF0FBECDBFAC01FC01D0806D2D71
:102950006F70E380F4800091940010919500DC0189
:10296000FE0136969E01260F311D2A5F3F4F04C09F
:1029700014968C91149781931196E217F307C1F77F
:10298000FA018581823009F090C0623009F046C1B9
:102990008E81806C8E8326812223C1F4E199FECF43
:1029A00082E190E09FBB8EBBE09A8DB3882309F44F
:1029B00062C0E199FECF82E190E09FBB8EBB1DBA61
:1029C0000FB6F894E29AE19A0FBE6EC02130C9F4B6
:1029D000E199FECF82E190E09FBB8EBBE09A8DB380
:1029E000813009F461C0E199FECF82E190E09FBBA4
:1029F0008EBB81E08DBB0FB6F894E29AE19A0FBED0
:102A000053C0283009F037C0E199FECF8BE190E048
:102A10009FBB8EBBE09A2DB32F5FE199FECF8BE178
:102A200090E09FBB8EBBE09A8DB3821761F0E19975
:102A3000FECF8BE190E09FBB8EBB2DBB0FB6F89411
:102A4000E29AE19A0FBEE199FECF82E190E09FBB4E
:102A50008EBBE09A8DB3883039F1E199FECF82E1E7
:102A600090E09FBB8EBB88E08DBB0FB6F894E29AD6
:102A7000E19A0FBE19C02930B9F4E199FECF82E185
:102A800090E09FBB8EBBE09A8DB3893069F0E199ED
:102A9000FECF82E190E09FBB8EBB89E08DBB0FB67D
:102AA000F894E29AE19A0FBEFFCF863009F043C056
:102AB000613009F0B3C080919700893009F0AEC051
:102AC00080919600282F30E0A895E199FECF3FBB7A
:102AD0002EBBE09A8DB3882351F0E199FECF3FBB26
:102AE0002EBB1DBA0FB6F894E29AE19A0FBE2F5F83
:102AF0003F4FF2E020303F0738F32CE130E0F9019E
:102B0000EC5BFF4FE081E199FECF3FBB2EBBE09A2B
:102B10008DB38E1751F0E199FECF3FBB2EBBEDBBBD
:102B20000FB6F894E29AE19A0FBE2F5F3F4F203222
:102B3000310529F7FFCF873071F5643008F46EC096
:102B4000FA01978180E02681DC01A20FB11DF2E03D
:102B5000A030BF0708F062C08E81806C8E8340E099
:102B6000262F30E023503040BE01675F7F4F0DC0FD
:102B7000E199FECFCD01840F911D9FBB8EBBE09AE2
:102B80008DB3E60FF71F80834F5FE42FF0E0E2176D
:102B9000F30774F343C0883009F040C0643008F490
:102BA0003DC080919700893009F038C0FA019781C3
:102BB00080E02681DC01A20FB11D8091960090E09B
:102BC000A817B90758F1F2E0A030BF0738F58E8199
:102BD000806C8E8390E0262F30E02350304019C067
:102BE000BF016A0F7B1FE40FF51FE085E199FECF5F
:102BF0007FBB6EBBE09A8DB38E1751F0E199FECF8B
:102C00007FBB6EBBEDBB0FB6F894E29AE19A0FBEA4
:102C10009F5FE92FF0E0E217F30714F38E818064E1
:102C20008E831D830C83FB82EA82D982CE010196BA
:102C30000E942F112D960FB6F894DEBF0FBECDBFA8
:102C4000CF91DF911F910F91FF90EF90DF9008954A
:102C50002091960030E0220F331F820F931F61EF07
:102C600070E00E945417089561EF70E00E945417BD
:102C70000895FF920F931F93DF93CF93CDB7DEB7E5
:102C80002D970FB6F894DEBF0FBECDBF2DE088E1C3
:102C900090E00FB6F894A89581BD0FBE21BDA89510
:102CA00080E190E061EF70E00E94541790939500EE
:102CB0008093940001978F5F9740B8F0E199FECF21
:102CC00082E190E09FBB8EBBE09A8DB3882361F0D8
:102CD000E199FECF82E190E09FBB8EBB1DBA0FB69B
:102CE000F894E29AE19A0FBEFFCF2CE030E0F901B0
:102CF000EC5AFF4FE081E199FECF3FBB2EBBE09A3B
:102D00008DB38E1751F0E199FECF3FBB2EBBEDBBCB
:102D10000FB6F894E29AE19A0FBE2F5F3F4F203131
:102D2000310529F7E199FECF8AE190E09FBB8EBB88
:102D3000E09A8DB380939600E199FECF82E190E016
:102D40009FBB8EBBE09A8DB38093970088508230F2
:102D5000D0F088E080939700E199FECF82E190E087
:102D60009FBB8EBBE09A8DB3883069F0E199FECFAE
:102D700082E190E09FBB8EBB88E08DBB0FB6F894DC
:102D8000E29AE19A0FBE409198002CE130E0E1997F
:102D9000FECF3FBB2EBBE09A8DB3F901EC5BFF4F3A
:102DA0009081891341602F5F3F4F2032310579F7C1
:102DB00040939800442399F48BE083BF12BE8DE7C3
:102DC0008CBF82E089BF0E94B4050E94FB100E9464
:102DD000FE0D0E940F130E9455060E94D50878949C
:102DE00080E00E94D003409194005091950081E2D0
:102DF0008E83FE01379624E030E0E199FECF3FBBA1
:102E00002EBBE09A8DB381932F5F3F4F2830310561
:102E1000A1F7E199FECF82E190E09FBB8EBBE09AE3
:102E20008DB38B87809198008C875D834C8382E083
:102E300090EF9B838A8387E289838E010F5F1F4F08
:102E4000C8010E942F11F02E012FA89580919800A3
:102E5000882331F40E94EC040E940F130E94D508CD
:102E600080E06F2D702F0E94EB03813071F7898114
:102E7000807369F42A813B81809194009091950040
:102E80002817390721F48F2D902F0E9495148981DE
:102E900080738032D1F6809198008823B1F68F2D0F
:102EA000902F0E944411D1CFDF92EF92FF920F93A7
:102EB0001F937B018C01FB010995D82EC801019657
:102EC000F7010995982F8D2D1F910F91FF90EF908D
:082ED000DF900895F894FFCF94
:102ED8001B0001000B013A003700340031000B01E0
:102EE8000B010B010B013B003800350032000B01D0
:102EF8000B010B010B0139003600330030000B01C8
:042F08000B010B01AD
:00000001FF
