:100000000C942A000C9447000C9447000C94470071
:100010000C9447000C9447000C9447000C94470044
:100020000C9447000C9447000C9447000C94470034
:100030000C9447000C9447000C9447000C94470024
:100040000C9447000C9447000C9447000C94470014
:100050000C94470011241FBECFE5D4E0DEBFCDBF16
:1000600010E0A0E6B0E0E4EDF5E002C005900D92EE
:10007000A439B107D9F710E0A4E9B0E001C01D929E
:10008000AA39B107E1F70E9425020C94E8020C940A
:1000900000009C01E199FECF3FBB2EBBE09A8DB3DF
:1000A00008959C01E199FECF3FBB2EBBE09A8DB332
:1000B0000895E199FECF9C019FBB8EBBE09A8DB362
:1000C000861751F0E199FECF3FBB2EBB6DBB0FB63B
:1000D000F894E29AE19A0FBE089520919600E19972
:1000E000FECF820F911D9FBB8EBBE09A8DB308950A
:1000F000AC0180919600282F30E0E199FECFCA0133
:10010000820F931F9FBB8EBBE09A8DB3861761F061
:10011000E199FECF240F351F3FBB2EBB6DBB0FB641
:10012000F894E29AE19A0FBE0895E82FF0E0EE0FFE
:10013000FF1FEC57FF4F0190F081E02D808190E090
:1001400002C0959587956A95E2F78170089591E0D0
:1001500002C0990F61506623E1F7A82FB0E0FD01BE
:10016000EE0FFF1FEC58FF4F0190F081E02D8081D2
:10017000892B41FF89278083AA0FBB1FAC59BF4F32
:10018000ED91FC918081892B40FF89278083089520
:10019000DC013C913F7015968C911597823009F0E7
:1001A0008EC0323009F03DC116962C912223C1F445
:1001B000E199FECF82E190E09FBB8EBBE09A8DB3C8
:1001C000882309F462C0E199FECF82E190E09FBBF1
:1001D0008EBB1DBA0FB6F894E29AE19A0FBE6EC0BC
:1001E0002130C9F4E199FECF82E190E09FBB8EBB44
:1001F000E09A8DB3813009F461C0E199FECF82E1CC
:1002000090E09FBB8EBB81E08DBB0FB6F894E29A65
:10021000E19A0FBE53C0283009F037C0E199FECFF4
:100220008BE190E09FBB8EBBE09A2DB32F5FE199ED
:10023000FECF8BE190E09FBB8EBBE09A8DB382171F
:1002400061F0E199FECF8BE190E09FBB8EBB2DBBAF
:100250000FB6F894E29AE19A0FBEE199FECF82E1DF
:1002600090E09FBB8EBBE09A8DB3883039F1E19965
:10027000FECF82E190E09FBB8EBB88E08DBB0FB6C6
:10028000F894E29AE19A0FBE19C02930B9F4E199C5
:10029000FECF82E190E09FBB8EBBE09A8DB38930A8
:1002A00069F0E199FECF82E190E09FBB8EBB89E0CF
:1002B0008DBB0FB6F894E29AE19A0FBEFFCF86305D
:1002C00009F043C0313009F0ACC08091970089300B
:1002D00009F0A7C080919600282F30E0A895E199F9
:1002E000FECF3FBB2EBBE09A8DB3882351F0E1993E
:1002F000FECF3FBB2EBB1DBA0FB6F894E29AE19A2F
:100300000FBE2F5F3F4F82E02030380738F32CE1DB
:1003100030E0F901EC5BFF4FE081E199FECF3FBB9C
:100320002EBBE09A8DB38E1751F0E199FECF3FBB03
:100330002EBBEDBB0FB6F894E29AE19A0FBE2F5F89
:100340003F4F2032310529F7FFCF873039F5343060
:1003500008F467C017969C91179780E016962C9129
:10036000BC01620F711D82E06030780708F059C04F
:1003700040E0232F30E0235030400AC0E199FECF07
:10038000CB01840F911D9FBB8EBBE09A8DB34F5F55
:10039000842F90E0821793078CF30895883009F03A
:1003A00040C0343008F43DC080919700893009F096
:1003B00038C017969C91179780E016962C91169747
:1003C000AC01420F511D8091960090E048175907EB
:1003D00040F182E04030580720F590E0232F30E0D4
:1003E0002350304019C0BF01640F751FEA0FFB1F77
:1003F000E085E199FECF7FBB6EBBE09A8DB38E178F
:1004000051F0E199FECF7FBB6EBBEDBB0FB6F89408
:10041000E29AE19A0FBE9F5FE92FF0E0E217F3073F
:1004200014F30895FFCF08952091960030E0220F35
:10043000331F820F931F69E470E00E94D202089577
:1004400069E470E00E94D20208952DE088E190E016
:100450000FB6F894A89581BD0FBE21BDA89580E187
:1004600090E069E470E00E94D2029093950080933E
:10047000940001978F5F9740B8F0E199FECF82E139
:1004800090E09FBB8EBBE09A8DB3882361F0E19929
:10049000FECF82E190E09FBB8EBB1DBA0FB6F894F1
:1004A000E29AE19A0FBEFFCF2CE030E0F901EC5A5E
:1004B000FF4FE081E199FECF3FBB2EBBE09A8DB3A9
:1004C0008E1751F0E199FECF3FBB2EBBEDBB0FB6AF
:1004D000F894E29AE19A0FBE2F5F3F4F2031310529
:1004E00029F7E199FECF8AE190E09FBB8EBBE09AAD
:1004F0008DB380939600E199FECF82E190E09FBB9F
:100500008EBBE09A8DB3809397008850823068F05C
:1005100088E080939700E199FECF82E190E09FBB55
:100520008EBBE09A8DB3883029F4409198002CE17D
:1005300030E00EC0E199FECF82E190E09FBB8EBB20
:1005400088E08DBB0FB6F894E29AE19A0FBEEDCF2A
:10055000E199FECF3FBB2EBBE09A8DB3F901EC5B76
:10056000FF4F9081891341602F5F3F4F203231054B
:1005700079F740939800789484E090E0E199FECF79
:100580009FBB8EBBE09A2DB3019688309105B1F7E1
:10059000E199FECF82E190E09FBB8EBBE09A8DB3E4
:1005A000A895FECFDF92EF92FF920F931F937B01EE
:1005B0008C01FB010995D82EC8010196F701099518
:1005C000982F8D2D1F910F91FF90EF90DF90089540
:0405D000F894FFCFCD
:1005D4000E00010099003A00370034003100990000
:1005E4009900990099003B003800350032009900C9
:1005F40099009900990039003600330030009900C1
:0406040099009900C0
:00000001FF
