:103800000C94341C0C946E1C0C946E1C0C946E1C4A
:103810000C946E1C0C946E1C0C946E1C0C946E1C00
:103820000C946E1C0C946E1C0C946E1C0C946E1CF0
:103830000C946E1C0C946E1C0C946E1C0C946E1CE0
:103840000C946E1C0C946E1C0C946E1C0C946E1CD0
:103850000C946E1C0C946E1C0C946E1C0C946E1CC0
:103860000C946E1C0C946E1C11241FBECFEFD4E080
:10387000DEBFCDBF88E10FB6F89480936000109250
:1038800060000FBEF999FECF83E190E092BD81BD4B
:10389000F89A90B584B78F70892B898314BE89817B
:1038A00087FD198283E190E069810E947C1C11E010
:1038B000A0E0B1E0E4E3FFE302C005900D92A43084
:1038C000B107D9F711E0A4E0B1E001C01D92A63024
:1038D000B107E1F70E94FC1C0C94981F0C94001C8B
:1038E000DF93CF9300D0CDB7DEB7982F862F0F9000
:1038F0000F90CF91DF910895F999FECF9C0192BD71
:1039000081BDF89A80B5861759F0F999FECF1FBA94
:1039100032BD21BD60BD0FB6F894FA9AF99A0FBE78
:10392000089584B1877C886284B98CB581658CBD2B
:1039300008958EBD0DB407FEFDCF8EB508950F938B
:103940001F93182F062F289882E00E94991C812F20
:103950000E94991C802F0E94991C289A1F910F91F8
:1039600008950F931F93CF93DF93EC01289880E481
:103970000E94991C9A81969596958881880F880F48
:10398000807C892B0E94991C29813A813695279544
:1039900036952795822F807E93E0369527959A95C8
:1039A000E1F72370822B88600E94991C8C818770BC
:1039B0009981990F990F990F892B0E94991C8B81DE
:1039C0000E94991C08810F70802F0E94991C10E0A2
:1039D00007C0FE01E10FF11D85810E94991C1F5F48
:1039E0001017B8F3289A80E368E00E949F1CDF91CB
:1039F000CF911F910F9108952F923F924F925F9216
:103A00006F927F928F929F92AF92BF92CF92DF92EE
:103A1000EF92FF920F931F93DF93CF93CDB7DEB753
:103A200069970FB6F894DEBF0FBECDBF2DE088E1D9
:103A300090E00FB6F894A895809360000FBE209395
:103A40006000A8953898409AFE01349624E030E052
:103A5000F999FECF32BD21BDF89A80B581932F5FD1
:103A60003F4F28303105A1F708E010E0F801E85099
:103A7000FF4FC80160810E947C1C0F5F1F4F0C30FC
:103A80001105A1F7F999FECF82E190E092BD81BDC9
:103A9000F89A60B4F999FECF83E190E092BD81BDC0
:103AA000F89AE0B4F999FECF80E190E092BD81BD33
:103AB000F89A30B5F999FECF81E190E092BD81BDD1
:103AC000F89A20B5A32EBB24922F80E0A82AB92A09
:103AD00030E0A31638E0B30630F06624FF24F394F8
:103AE000AA24BB2401C0FF24309904C052E0F52A67
:103AF00066241FC081E06816E1F40CE010E0C80104
:103B000060E00E947C1C0F5F1F4F00311105B9F768
:103B100080E090E023E0A895FC0120935700E89511
:103B200007B600FCFDCF80589F4FA7E380389A0767
:103B300091F7209A289A84B1877C886284B98CB5E1
:103B400081658CBD289880EC0E94991C289A80EA97
:103B50009FE00197F1F78AE261E00E949F1C89E2F1
:103B600066EB0E949F1C88E264E00E949F1C80E636
:103B700060E60E949F1C8CE068E00E949F1C8FE022
:103B800060E00E949F1CB7E0B61538F5F999FECFAA
:103B900088E190E092BD81BDF89A20B5F999FECFF9
:103BA00089E190E092BD81BDF89A60B540E050E0B7
:103BB000E0E0F0E08491480F511D319638E3E030A9
:103BC000F307C1F730E0962F80E0822B932B481744
:103BD000590719F054E0F52A662488E2888781E0C5
:103BE00090EF9A878987BC86AB8680E28D878C812F
:103BF0009D81AE81BF818E879F87A88BB98B6A8A92
:103C0000EB8AFC8ACE0108960E94B11C10928500B6
:103C10001092840084E89EE190938900809388004C
:103C20008DE080938100CC24DD241D8A44244A94B5
:103C3000542CF2E08F2E912C8C0E9D1ECE010E96F0
:103C40008E8B9F8BCE010496888F998FA895B19B00
:103C50000AC01092810087E0861528F4E0910401E3
:103C6000F09105010995289880EB0E94991C8FEF2F
:103C70000E94991C8983289A898186FFE7CF28981A
:103C800080E90E94991C80E00E94991CE82E80E047
:103C90000E94991C082F80E00E94991CF82E8E2DFE
:103CA0008695869580738887000F000F10E08F2D12
:103CB00086958695869590E03E2C330C330C222415
:103CC00082299329980120783370822B932BE3E08B
:103CD000000F111FEA95E1F700761070802B912BF1
:103CE0009A87898780E00E94991CD4018C93B7E061
:103CF000FB22F401F1828A819B819C878B8780E083
:103D00000E94991C7FE0772E7822888587298887F2
:103D10006DE0E62EF12CEC0EFD1E072D10E00B5F82
:103D20001F4F88E090E08C0F9D1F080F191F06C0E1
:103D300080E00E94991CD7018D937D01E016F10669
:103D4000B9F7289A5885852F807309F07FCF298588
:103D50003A85C9018070987F892B09F077CF377039
:103D60002A153B0509F072CF8D858130D9F48E89F3
:103D70009F89688D798D44E050E00E948B1F0097E9
:103D800009F064CF80E190E06A890E947C1C81E1A7
:103D900090E06B890E947C1C83E190E060E80E94C7
:103DA0007C1CFFCFA114B10409F450CF823059F428
:103DB00082E190E06E850E947C1C83E190E060E8E7
:103DC0000E947C1CFFCFB1E06B1609F06BC0833002
:103DD00059F488E190E06E850E947C1C89E190E0B6
:103DE0006F850E947C1C89C0843091F49F858E85EC
:103DF000F401808391834A805B80F0E74F16510481
:103E000008F479C083E190E060E80E947C1CFFCF59
:103E1000853009F047C03FEF43163FEF530609F4E2
:103E200068C0B2017695762F6627779567958E895B
:103E30009F89DC0141E01BC08C91C0FE12C03D890E
:103E4000F40130838183C6018E7F860F971F2A81FC
:103E50003B8151E00901FC0150935700E895112482
:103E600001C08D8B4F5F0894C11CD11C1196471562
:103E700020F480E8C816D104F8F290E8C916D104FD
:103E800009F03BC0A5E0FB01A0935700E89507B6F9
:103E900000FCFDCFB1E1B0935700E89544244A946B
:103EA000542C2BC0873029F55F709F858E85F401D7
:103EB000808391836A817B8140E0252F30E023500D
:103EC000304011C0F999FECFCB01840F911D92BDF6
:103ED00081BDF89A80B5A0E1B0E0AC0FBD1FEA0F3C
:103EE000FB1F80834F5FE42FF0E0E217F30754F3EA
:103EF00004C0806404C0CC24DD248D85806C8D8753
:103F00008B859C859A878987BC86AB86CE0108966F
:103F10000E94B11C9BCEFB01DC0104C08D9101907D
:103F2000801921F441505040C8F7881B990B08951F
:043F3000F894FFCF33
:043F34001000010078
:0400000300003800C1
:00000001FF
