:100000000C9434000C9451000C9451000C94510049
:100010000C9451000C9451000C9451000C9451001C
:100020000C9451000C9451000C9451000C9451000C
:100030000C9451000C9451000C9451000C945100FC
:100040000C9451000C9451000C9451000C945100EC
:100050000C9451000C9451000C9451000C945100DC
:100060000C9451000C94510011241FBECFEFD4E02A
:10007000DEBFCDBF11E0A0E0B1E0E6E0F6E002C0F7
:1000800005900D92A433B107D9F711E0A4E3B1E0D4
:1000900001C01D92AA33B107E1F70E9439020C9406
:1000A00001030C9400009C01F999FECF32BD21BDE3
:1000B000F89A80B508959C01F999FECF32BD21BD13
:1000C000F89A80B50895F999FECF9C0192BD81BD43
:1000D000F89A80B5861759F0F999FECF1FBA32BD4C
:1000E00021BD60BD0FB6F894FA9AF99A0FBE089533
:1000F00020913601F999FECF820F911D92BD81BDED
:10010000F89A80B50895AC0180913601282F30E02F
:10011000F999FECFCA01820F931F92BD81BDF89A53
:1001200080B5861769F0F999FECF1FBA240F351FE5
:1001300032BD21BD60BD0FB6F894FA9AF99A0FBE90
:100140000895E82FF0E0EE0FFF1FEC5DFE4F0190E9
:10015000F081E02D808190E002C0959587956A95A9
:10016000E2F78170089591E002C0990F6150662313
:10017000E1F7A82FB0E0FD01EE0FFF1FEC5EFE4F90
:100180000190F081E02D8081892B41FF89278083B8
:10019000AA0FBB1FAC5FBE4FED91FC918081892BF4
:1001A00040FF892780830895DC013C913F701596BC
:1001B0008C911597823009F093C0323009F045C117
:1001C00016962C912223C9F4F999FECF82E190E092
:1001D00092BD81BDF89A80B5882309F466C0F9996B
:1001E000FECF1FBA82E190E092BD81BD10BC0FB678
:1001F000F894FA9AF99A0FBE72C02130D1F4F999A5
:10020000FECF82E190E092BD81BDF89A80B5813049
:1002100009F465C0F999FECF1FBA82E190E092BD62
:1002200081BD81E080BD0FB6F894FA9AF99A0FBEAD
:1002300056C0283009F039C0F999FECF8BE190E023
:1002400092BD81BDF89A20B52F5FF999FECF8BE161
:1002500090E092BD81BDF89A80B5821769F0F99956
:10026000FECF1FBA8BE190E092BD81BD20BD0FB6DD
:10027000F894FA9AF99A0FBEF999FECF82E190E0CC
:1002800092BD81BDF89A80B5883049F1F999FECFC9
:100290001FBA82E190E092BD81BD88E080BD0FB6BB
:1002A000F894FA9AF99A0FBE1AC02930C1F4F99954
:1002B000FECF82E190E092BD81BDF89A80B5893091
:1002C00071F0F999FECF1FBA82E190E092BD81BD35
:1002D00089E080BD0FB6F894FA9AF99A0FBEFFCF65
:1002E000863009F045C0313009F0AFC08091370148
:1002F000893009F0AAC080913601282F30E0A895F6
:10030000F999FECF32BD21BDF89A80B5882359F006
:10031000F999FECF1FBA32BD21BD10BC0FB6F894BB
:10032000FA9AF99A0FBE2F5F3F4F82E020303807CC
:1003300030F32CE130E0F901EC51FF4FE081F99905
:10034000FECF32BD21BDF89A80B58E1759F0F999CC
:10035000FECF1FBA32BD21BDE0BD0FB6F894FA9AA8
:10036000F99A0FBE2F5F3F4F2032310521F7FFCFA3
:10037000873039F5343008F468C017969C91179788
:1003800080E016962C91BC01620F711D82E06030F6
:10039000780708F05AC040E0232F30E02350304067
:1003A0000AC0F999FECFCB01840F911D92BD81BD8A
:1003B000F89A80B54F5F842F90E0821793078CF3F3
:1003C0000895883009F041C0343008F43EC080916F
:1003D0003701893009F039C017969C91179780E052
:1003E00016962C911697AC01420F511D8091360143
:1003F00090E04817590748F182E04030580728F547
:1004000090E0232F30E0235030401AC0BF01640F2A
:10041000751FEA0FFB1FE085F999FECF72BD61BD24
:10042000F89A80B58E1759F0F999FECF1FBA72BDB0
:1004300061BDE0BD0FB6F894FA9AF99A0FBE9F5FBE
:10044000E92FF0E0E217F3070CF30895FFCF0895CA
:100450002091360130E0220F331F820F931F63E596
:1004600070E00E94EB02089563E570E00E94EB02E9
:1004700008952DE088E190E00FB6F894A895809358
:1004800060000FBE20936000A89580E190E063E5D6
:1004900070E00E94EB029093350180933401019744
:1004A0008F5F9740C0F0F999FECF82E190E092BD56
:1004B00081BDF89A80B5882369F0F999FECF1FBAFB
:1004C00082E190E092BD81BD10BC0FB6F894FA9A1B
:1004D000F99A0FBEFFCF2CE030E0F901EC50FF4F4E
:1004E000E081F999FECF32BD21BDF89A80B58E1713
:1004F00059F0F999FECF1FBA32BD21BDE0BD0FB64C
:10050000F894FA9AF99A0FBE2F5F3F4F20313105C8
:1005100021F7F999FECF8AE190E092BD81BDF89A6A
:1005200080B580933601F999FECF82E190E092BDCB
:1005300081BDF89A80B5809337018850823068F089
:1005400088E080933701F999FECF82E190E092BD77
:1005500081BDF89A80B5883029F4409138012CE1AA
:1005600030E00FC0F999FECF1FBA82E190E092BD52
:1005700081BD88E080BD0FB6F894FA9AF99A0FBE53
:10058000ECCFF999FECF32BD21BDF89A80B5F901C3
:10059000EC51FF4F9081891341602F5F3F4F203214
:1005A000310579F740933801789484E090E0F99927
:1005B000FECF92BD81BDF89A20B501968830910595
:1005C000B1F7F999FECF82E190E092BD81BDF89A32
:1005D00080B5A895FECFDF92EF92FF920F931F9305
:1005E0007B018C01FB010995D82EC8010196F7010A
:1005F0000995982F8D2D1F910F91FF90EF90DF900F
:060600000895F894FFCFFD
:100606000600010039013901240027002A003901BA
:100616003901390139013901250028002B0039013A
:100626003901390139013901230026002900390130
:04063600390139014C
:00000001FF
