:103800000C942A1C0C94621C0C94621C0C94621C78
:103810000C94621C0C94621C0C94621C0C94621C30
:103820000C94621C0C94621C0C94621C0C94621C20
:103830000C94621C0C94621C0C94621C0C94621C10
:103840000C94621C0C94621C0C94621C0C94621C00
:103850000C94621C11241FBECFE5D4E0DEBFCDBFA7
:1038600088E10FB6F89481BD11BC0FBEE199FECF7F
:1038700083E190E09FBB8EBBE09A9DB384B78F70CD
:10388000892B898314BE898187FD198283E190E0A9
:1038900069810E94B91C10E0A0E6B0E0E0E9FFE316
:1038A00002C005900D92A436B107D9F710E0A4E646
:1038B000B0E001C01D92A636B107E1F70E94261DB7
:1038C0000C94C61F0C94001CDC0140E020E030E0AA
:1038D00007C0FD01E20FF31F8081480F2F5F3F4FAC
:1038E00026173707B0F3842F819508950F931F9300
:1038F000CF93DF938C01EC01FB0120E030E040E04E
:1039000050E0E230F10550F089919991A0E0B0E0EB
:10391000280F391F4A1F5B1F3297F3CFFB01EE7F41
:10392000E00FF11F60FF0BC08081280F311D411D8A
:10393000511D05C0620F731F9B0140E050E0CA019A
:10394000AA27BB27BC01892BA9F720953095C9016F
:10395000DF91CF911F910F910895DF93CF9300D006
:10396000CDB7DEB7982F862F0F900F90CF91DF91B4
:103970000895E199FECF9C019FBB8EBBE09A8DB369
:10398000861751F0E199FECF3FBB2EBB6DBB0FB642
:10399000F894E29AE19A0FBE0895DC0181E08CB9B7
:1039A0005E9BFECF5E9A2C912CB95E9BFECF5E9AF9
:1039B00011968C91119712969C9112978CB95E9BDF
:1039C000FECF5E9A9CB95E9BFECF5E9A13968C9159
:1039D000139714969C9114978CB95E9BFECF5E9AB8
:1039E0009CB95E9BFECF5E9A90E030E02F70307005
:1039F00008C0EA0FFB1F85818CB95E9BFECF5E9AE3
:103A00009F5FE92FF0E0E217F3079CF31CB85E9B81
:103A1000FECF5E9AA9014B5F5F4F20E030E090E05F
:103A200007C0FD01E20FF31F8081980F2F5F3F4F0A
:103A300024173507B0F391959CB95E9BFECF5E9A33
:103A40008DE08CB95E9BFECF5E9A08952F923F92D7
:103A50004F925F926F927F928F929F92AF92BF929E
:103A6000CF92DF92EF92FF920F931F93DF93CF934A
:103A7000CDB7DEB769970FB6F894DEBF0FBECDBFE6
:103A80002DE088E190E00FB6F894A89581BD0FBEB7
:103A900021BDA895B898C09AFE01339624E030E085
:103AA000E199FECF3FBB2EBBE09A8DB381932F5F90
:103AB0003F4F28303105A1F708E010E0F801E85A3F
:103AC000FF4FC80160810E94B91C0F5F1F4F0C306F
:103AD0001105A1F7E199FECF82E190E09FBB8EBB7B
:103AE000E09AEDB2E199FECF83E190E09FBB8EBBFF
:103AF000E09ADDB2E199FECF80E190E09FBB8EBB02
:103B0000E09A3DB3E199FECF81E190E09FBB8EBB8F
:103B1000E09A2DB3A32EBB24922F80E0A82AB92AC5
:103B200030E0A31638E0B30630F0EE24FF24F3941F
:103B3000AA24BB2401C0FF24B09904C052E0F52A96
:103B4000EE241FC081E0E816E1F40CE010E0C801AB
:103B500060E00E94B91C0F5F1F4F00311105B9F7DB
:103B600080E090E023E0A895FC0120935700E895C1
:103B700007B600FCFDCF80589F4FA7E380389A0717
:103B800091F783E08BB910BC80E189B986E880BDEC
:103B900088EB8AB9B7E0BE1538F5E199FECF88E128
:103BA00090E09FBB8EBBE09A2DB3E199FECF89E1F7
:103BB00090E09FBB8EBBE09A6DB340E050E0E0E048
:103BC000F0E08491480F511D319638E3E030F3075F
:103BD000C1F730E0962F80E0822B932B48175907CE
:103BE00019F054E0F52AEE2488E28F8381E090EF0B
:103BF00099878887BB86AA8680E28C878E01095FB9
:103C00001F4F8B819C81AD81BE818D879E87AF8741
:103C1000B88BE98ADA8AFB8AC8010E94CD1C1DBCD8
:103C20001CBC89E09DE39BBD8ABD88E08FBD85E01B
:103C30008EBDFF243324CC24DD241C8A88248A945E
:103C4000982C2E010894411C511CCE010D96282E53
:103C50009D8BCE0103968E8B9F8BCE014496998FC0
:103C6000888F04C0FF24F39401C0FF24A89508B6F0
:103C700004FE09C01EBC97E09E1528F4E091640084
:103C8000F091650009955F9BF1CF6CB1FF2061F465
:103C9000613009F052C0FE013C961192A88DB98D99
:103CA000EA17FB07D1F7DECFB1E0FB1639F46F83DB
:103CB0007FE0372E362262E0F62ED8CFE2E0FE1605
:103CC00029F46887198653E0F52ED0CFF3E0FF166C
:103CD00059F4162F00E088859985802B912B9987C0
:103CE000888744E0F42EC2CF34E0F31629F46A87C3
:103CF0001B8635E0F32EBACF55E0F51659F4762E33
:103D000066248A859B85862997299B878A8726E052
:103D1000F22EACCF85E08F1580F4EF2DF0E0832DEF
:103D200090E005968E179F0744F0A6E0B0E0AC0F38
:103D3000BD1FEA0FFB1F608324C04F2D50E0232DD1
:103D400030E0C901069648175907D9F0C90107960E
:103D500048175907C1F4D901159620E030E040E03A
:103D6000E7E0F0E0EC0FFD1FE20FF31F8081480F4A
:103D70002F5F3F4F2A173B0798F34195641709F0CF
:103D800074CFF39473CF285F3F4F4217530721F44A
:103D90006D3009F06ACFFF245F81852F807309F0B1
:103DA00065CF28853985C9018070987F892B09F0F6
:103DB0005DCF37702A153B0509F058CF8C858130CF
:103DC000D9F4822D9D896E897F8944E050E00E945C
:103DD000B91F009709F04ACF80E190E069890E94FD
:103DE000B91C81E190E06A890E94B91C83E190E0EE
:103DF00060E80E94B91CFFCFA114B10409F436CFCA
:103E0000823059F482E190E06D850E94B91C83E113
:103E100090E060E80E94B91CFFCFB1E0EB1609F01A
:103E20006BC0833059F488E190E06D850E94B91C25
:103E300089E190E06E850E94B91C8BC0843091F4BA
:103E40009E858D85F2018083918389809A80F0E739
:103E50008F16910408F47AC083E190E060E80E9434
:103E6000B91CFFCF853009F047C03FEF83163FEF05
:103E7000930609F468C0B4017695762F6627779586
:103E80006795822D9D89DC0141E01BC08C91C0FEAD
:103E900012C03C89F20130838183C6018E7F860F78
:103EA000971F29813A8151E00901FC015093570085
:103EB000E895112401C08C8B4F5F0894C11CD11C64
:103EC0001196431520F480E8C816D104F8F2960143
:103ED0002038310509F03DC095E0FB019093570073
:103EE000E89507B600FCFDCFA1E1A0935700E89547
:103EF00088248A94982C2EC0873029F55F709E857F
:103F00008D85F2018083918369817A8140E0252F3C
:103F100030E02350304011C0E199FECFCB01840F37
:103F2000911D9FBB8EBBE09A8DB3AFE0B0E0AC0FAC
:103F3000BD1FEA0FFB1F80834F5FE42FF0E0E21705
:103F4000F30754F306C080648C8708C020E030E09B
:103F500001C096018C85806C8C8769018A859B8560
:103F600099878887BB86AA86CE0107960E94CD1CBA
:103F70007DCEFB01DC0104C08D910190801921F4FC
:103F800041505040C8F7881B990B0895F894FFCF13
:043F9000010000002C
:0400000300003800C1
:00000001FF
