:100000000C943D000C945A000C945A000C945A0025
:100010000C945A000C945A000C945A000C945A00F8
:100020000C945A000C945A000C945A000C945A00E8
:100030000C945A000C945A000C945A000C945A00D8
:100040000C945A000C945A000C945A000C944C05D1
:100050000C945A0000000001010102020202030395
:100060000303000150510003010402050203060AC4
:10007000070B080C090D1E1F505111241FBECFE5A0
:10008000D4E0DEBFCDBF10E0A0E6B0E0E0E1F2E3F7
:1000900002C005900D92A03AB107D9F711E0A0EA8D
:1000A000B0E001C01D92A43BB107E1F70E94BE176A
:1000B0000C9406190C9400009C01E199FECF3FBB03
:1000C0002EBBE09A8DB308959C01E199FECF3FBB12
:1000D0002EBBE09A8DB30895E199FECF9C019FBBA2
:1000E0008EBBE09A8DB3861751F0E199FECF3FBBEE
:1000F0002EBB6DBB0FB6F894E29AE19A0FBE08953D
:100100002091A700E199FECF820F911D9FBB8EBB6E
:10011000E09A8DB30895AC018091A700282F30E0BC
:10012000E199FECFCA01820F931F9FBB8EBBE09A5D
:100130008DB3861761F0E199FECF240F351F3FBBC9
:100140002EBB6DBB0FB6F894E29AE19A0FBE0895EC
:10015000E82FF0E0EE0FFF1FEC57FF4F0190F0810A
:10016000E02D808190E002C0959587956A95E2F731
:100170008170089591E002C0990F61506623E1F704
:10018000A82FB0E0FD01EE0FFF1FEC58FF4F0190CC
:10019000F081E02D8081892B41FF89278083AA0F80
:1001A000BB1FAC59BF4FED91FC918081892B40FF63
:1001B000892780830895DF93CF930F92CDB7DEB761
:1001C0008983898186FF0CC0898184FF05C087B33C
:1001D000806A87BBBE9807C0BE9A87B38F7502C07E
:1001E00087B38F7187BB89818DB91EB80F90CF916E
:1001F000DF9108951FB8779BFECF8FB108958FB917
:10020000779BFECF08958FB9779BFECF8FB108956E
:10021000FF920F931F93082FF62E142F41E00E9498
:10022000BA0083E08FB9779BFECF8FB11FB9779B60
:10023000FECF8FB18FEF8FB9779BFECF1FB1802F8D
:100240006F2D43E00E94BA00812F1F910F91FF9004
:100250000895EF92FF920F931F93082FF62E142FFD
:10026000E22E41E00E94BA0082E08FB9779BFECF78
:100270008FB11FB9779BFECF8FB1EFB8779BFECFC1
:100280008FB1802F6F2D43E00E94BA001F910F9114
:10029000FF90EF900895DF92EF92FF920F931F93DC
:1002A000E82ED62E142FF22E41E00E94BA0085E0EF
:1002B0008FB9779BFECF8FB11FB9779BFECF8FB1E0
:1002C000FFB8779BFECF8FB10FB9779BFECF8FB171
:1002D0008E2D6D2D43E00E94BA001F910F91FF906B
:1002E000EF90DF9008958F929F92AF92BF92CF923E
:1002F000DF92EF92FF920F931F93DF93CF93CDB7CF
:10030000DEB7F82ED62E142FB22E902E0C2D43E0F1
:100310000E94BA00812F0E94DB008F2D6D2D41E0DD
:100320000E94BA0080EC8FB9779BFECF8FB18F2DE2
:100330006D2D43E00E94BA0080E49FE10197F1F740
:100340008F2D6D2D4AE22B2D0E9429018F2D6D2DB1
:1003500049E2292D0E9429018F2D6D2D48E22E2D75
:100360000E9429018F2D6D2D40E624E60E9429016F
:100370008F2D6D2D40E720E60E9429018F2D6D2DD8
:100380004BE223E00E9429010023C9F0083030F439
:10039000802F6A2D41E00E94BA0011C00C3F31F459
:1003A0008F2D6D2D4CE024E104E007C00D3F39F4A2
:1003B0008F2D6D2D4CE028E208E00E944B018F2D1F
:1003C0006D2D4CE02CE00E9429018F2D6D2D4FE00A
:1003D00020EE082D0E944B018F2D6D2D4FE00E94C5
:1003E000080140E090E0807E9070282D30E0821778
:1003F000930709F441E0842FCF91DF911F910F9172
:10040000FF90EF90DF90CF90BF90AF909F908F9034
:100410000895DF92EF92FF920F931F93DF93CF9394
:100420000F92CDB7DEB7082FD62E142F198243E0D6
:100430000E94BA00812F0E94DB00802F6D2D41E0C9
:100440000E94BA0080EB8FB9779BFECF8FEF8FB9F8
:10045000779BFECF9FB18FEF8FB9779BFECF8FB188
:100460009983802F6D2D43E00E94BA00898186FF19
:1004700002C010E906C0898187FD02C080E047C044
:1004800014E9802F6D2D41E00E94BA001FB9779BBF
:10049000FECF1FB8779BFECF8FB1F70181831FB8C6
:1004A000779BFECF8FB1F70180831FB8779BFECF7C
:1004B0008FB1F70183831FB8779BFECF8FB1F70110
:1004C00082831FB8779BFECF8FB1F701848384812D
:1004D00086FD10C090E009C01FB8779BFECF8FB19A
:1004E000F701E90FF11D85839F5FF701848198175C
:1004F00098F307C0F70180E015828F5F319688304E
:10050000D9F7802F6D2D43E00E94BA0081E00F9053
:10051000CF91DF911F910F91FF90EF90DF900895A1
:10052000CF92DF92EF92FF920F931F93DF93CF93BF
:100530000F92CDB7DEB7082FD62E142F198243E0C5
:100540000E94BA00812F0E94DB00802F6D2D41E0B8
:100550000E94BA0080EA8FB9779BFECF8FEF8FB9E8
:10056000779BFECF9FB18FEF8FB9779BFECF8FB177
:100570009983802F6D2D43E00E94BA00898182FD0E
:1005800004C010E461E8C62E0FC0898184FD04C058
:1005900012E452E8C52E08C0898186FF02C080E0BF
:1005A00048C014E444E8C42E802F6D2D41E00E9421
:1005B000BA001FB9779BFECFF70181818FB9779B76
:1005C000FECFF70180818FB9779BFECFF701838142
:1005D0008FB9779BFECFF70182818FB9779BFECFD2
:1005E000F70124812FB9779BFECFF701848186FD27
:1005F0000CC090E008C0F701E90FF11D85818FB9AB
:10060000779BFECF9F5F9217B0F3802F6D2D43E055
:100610000E94BA000000802F6D2D41E00E94BA00B8
:10062000CFB8779BFECF802F6D2D43E00E94BA009C
:1006300081E00F90CF91DF911F910F91FF90EF908C
:10064000DF90CF9008958F92AF92CF92EF920F9359
:10065000882311F080E00DC082E064E041E521E0F4
:1006600006EBE4E0EE2E7CEFC72EAA2488240E943D
:1006700073010F91EF90CF90AF908F900895AF924C
:10068000BF92CF92DF92EF92FF920F93DF93CF93BF
:10069000CDB7DEB72D970FB6F894DEBF0FBECDBF36
:1006A0006B01882309F066C082E064E041E52CEF2D
:1006B00000E05E010894A11CB11C75010E940902B2
:1006C000813009F057C0EA818E2F90E0807C9070D5
:1006D00095958795959587950D81F02FFF70F82B4F
:1006E000D601FC936C81498150E03E2F330F330FCC
:1006F00020E0862F869586958695280F311DCA01A4
:100700008370907075E0880F991F7A95E1F7280F34
:10071000391F407E5070440F551F440F551F240F42
:10072000351F12963C932E93119770E0677070708E
:10073000762F66278B81680F711D14967C936E93BC
:1007400013978D8186FD0AC0DE011696F601202FD3
:1007500030E02B5F3F4F2A0D3B1D06C0F064D601F1
:10076000FC9306C08D9184833196A217B307D1F70D
:1007700081E001C080E02D960FB6F894DEBF0FBE79
:10078000CDBFCF91DF910F91FF90EF90DF90CF9091
:10079000BF90AF900895EF92FF920F93DF93CF93A6
:1007A000CDB7DEB72D970FB6F894DEBF0FBECDBF25
:1007B000FB01882311F090E04EC0928196959695AA
:1007C0006081862F880F880F807C892B8A834181E6
:1007D0005281CA019695879596958795807E9A0154
:1007E000A5E036952795AA95E1F72370822B8860BE
:1007F000898384818770440F440F440F842B8C833A
:1008000083818B836F706D83808186FD0AC0DF01D9
:10081000FE013696CE01860F911DBC016A5F7F4FA7
:1008200007C060646D8308C014968C9114978193FF
:100830001196E617F707C1F782E064E041E52CEF77
:1008400000E07E010894E11CF11C0E94900290E0FF
:10085000813009F491E0892F2D960FB6F894DEBF10
:100860000FBECDBFCF91DF910F91FF90EF90089514
:100870008BE083BF12BE8AEF8CBF82E089BF1092EB
:100880008101109282011092830181E080938501A1
:1008900080938401809386011092880110928701D1
:1008A00008951F938091A00080FFCAC08091A1008D
:1008B0009091A200885E934008F472C01092A2004A
:1008C0001092A100809181018F5F809381018C3310
:1008D00009F066C010928101809182018F5F809340
:1008E00082018C3309F05CC01092820180918301F7
:1008F0008F5F80938301883109F052C01092830189
:10090000409184014F5F40938401809185018F5F06
:1009100080938501883019F481E0809385011091DE
:1009200086011230E1F42091870130918801C901DC
:1009300083709070892B81F4C90164E670E00E9495
:10094000F218892B09F076C0C90160E971E00E94B4
:10095000F218892B09F46EC0403211F50DC0842FB6
:1009600090E0E12FF0E0EC56FF4F208130E02F5F68
:100970003F4F82179307A1F491E090938401812F58
:100980008F5F809386018D3059F49093860180911A
:100990008701909188010196909388018093870147
:1009A0008091A00086FD13C02091A3003091A40087
:1009B00083E0283E380729F48091A000806480936A
:1009C000A0002F5F3F4F3093A4002093A30080919D
:1009D000AD009091AE000A9748F01092AE001092D0
:1009E000AD008091AC0081608093AC008091AF003D
:1009F0009091B0000A9748F01092B0001092AF00AA
:100A00008091AB0081608093AB008091B1009091A8
:100A1000B2000A9748F01092B2001092B100809193
:100A2000AA0081608093AA008091A0008E7F8093AD
:100A3000A00006C0842F90E081970CF4B1CF9CCF2A
:100A40001F9108958091A00081608093A000809103
:100A5000A1009091A20001969093A2008093A10022
:100A60008091AD009091AE0001969093AE0080937E
:100A7000AD008091AF009091B00001969093B000CE
:100A80008093AF008091B1009091B2000196909355
:100A9000B2008093B10008951F920F920FB60F928B
:100AA00011248F939F938091A00081608093A00078
:100AB0008091A1009091A20001969093A200809352
:100AC000A1008091AD009091AE0001969093AE0090
:100AD0008093AD008091AF009091B000019690930B
:100AE000B0008093AF008091B1009091B200019668
:100AF0009093B2008093B1009F918F910F900FBEA1
:100B00000F901F9018950895FB019183808308959D
:100B1000FB01880F991F918380830895DF93CF9302
:100B200000D0CDB7DEB79A8389839C018981C90142
:100B300080709C77892F869586958695337002C044
:100B4000220F331F8A95E2F740E050E05095409520
:100B5000309521953F4F4F4F5F4FB901CA010F901C
:100B60000F90CF91DF91089597FD03C040E050E8CA
:100B700002C040E050E020E030E006C02F5F3F4F71
:100B800095958795779567956030E8E07E07E0E07A
:100B90008E07E0E09E0794F7322F2227330F330FA2
:100BA000330F262B372B242B352BC90108952F9279
:100BB0003F924F925F926F927F928F929F92AF92ED
:100BC000BF92CF92DF92EF92FF920F931F93DF932A
:100BD000CF93CDB7DEB7E9970FB6F894DEBF0FBE5F
:100BE000CDBF8091AB0080FFD6C52BEB30E039AF95
:100BF00028AF8824992455245394282DF401EE59C4
:100C0000FF4F9491F401EC59FF4F34913FA7F40149
:100C1000EA59FF4F44914EA7F401E859FF4F449021
:100C2000F401E659FF4F54915DA7A92FB0E0BFAB87
:100C3000AEABAA0FBB1FAD54BF4FBDABACAB8C91DD
:100C400086FD07C2882019F0213059F545C061E0C2
:100C500070E0A2E0B0E003E010E034E0E32EF12C1D
:100C600025E0C22ED12C86E0A82EB12CE7E0F0E0E2
:100C7000FCA7EBA7FCE06F2E712CEDE02E2E312CA3
:100C80002EE030E03AA729A743E150E058A74FA350
:100C9000E4E1F0E0FEA3EDA325E130E03CA32BA3CB
:100CA00044C060E070E0A0E0B0E000E010E0EE24BE
:100CB000FF24CC24DD24AA24BB241CA61BA6662466
:100CC0007724222433241AA619A618A61FA21EA22E
:100CD0001DA21CA21BA229C06CE170E0ADE1B0E036
:100CE0000EE110E05FE1E52EF12C40E2C42ED12CA4
:100CF00031E2A32EB12C42E250E05CA74BA727E2E1
:100D0000622E712C88E2282E312CE9E2F0E0FAA75D
:100D1000E9A72EE230E038A72FA34FE250E05EA310
:100D20004DA3E0E3F0E0FCA3EBA3913061F0913040
:100D300028F0923069F09330B9F40FC04AE150E0E6
:100D400080E090E00EC045E350E08BE190E009C008
:100D50004EE550E086E390E004C047E850E08FE5C0
:100D600090E08417950710F080E012C09C0102C04B
:100D70002F5F3F4F42175307D8F72091A700E19903
:100D8000FECF820F911D9FBB8EBBE09A8DB38F73F8
:100D90002EA93FA9220F331F2D543F4FF901808305
:100DA0001182ECA9FDA9808180FF48C18091A70034
:100DB000E199FECF680F711D7FBB6EBBE09A8DB3CA
:100DC000E8ADF9AD80838091A700E199FECFA80F2F
:100DD000B11DBFBBAEBBE09A8DB3A8ADB9AD119646
:100DE0008C938091A700E199FECF080F111D1FBBC6
:100DF0000EBBE09A8DB3E8ADF9AD82838091A70078
:100E0000E199FECFE80EF11CFFBAEEBAE09A8DB37D
:100E1000A8ADB9AD13968C93BFA52B2F30E0C901B7
:100E200088739070E3E095958795EA95E1F78823BC
:100E300049F06B2F6770B6FD02C040E001C042E090
:100E40000E94BA00EEA54E2F50E08091A700E199D4
:100E5000FECFC80ED11CDFBACEBAE09A8DB3FA012C
:100E600073E0EE0FFF1F7A95E1F7E40FF51FED5FDA
:100E7000FE4F808351828091A700E199FECFA80E9A
:100E8000B11CBFBAAEBAE09A8DB39A0163E0220FEB
:100E9000331F6A95E1F7240F351FF901ED5FFE4F0F
:100EA0008283F901EA5FFE4F20E030E06091A70005
:100EB000E199FECF8BA59CA5820F931F860F911DF4
:100EC0009FBB8EBBE09A8DB381932F5F3F4F253040
:100ED000310561F7FA0133E0EE0FFF1F3A95E1F7B4
:100EE000E40FF51FED5FFE4F1086442D50E080911A
:100EF000A700E199FECF680E711C7FBA6EBAE09A26
:100F00008DB3FA0123E0EE0FFF1F2A95E1F7E40FFE
:100F1000F51FED5FFE4F808351828091A700E1991C
:100F2000FECF280E311C3FBA2EBAE09A8DB39A013B
:100F300093E0220F331F9A95E1F7240F351FF90133
:100F4000ED5FFE4F8283F901EA5FFE4F20E030E063
:100F50006091A700E199FECF89A59AA5820F931F02
:100F6000860F911D9FBB8EBBE09A8DB381932F5F3F
:100F70003F4F2530310561F7FA0183E0EE0FFF1F87
:100F80008A95E1F7E40FF51FED5FFE4F1086FDA592
:100F90004F2F50E08091A700E199FECF2FA138A5F7
:100FA000280F311D3FBB2EBBE09A8DB3FA0103E041
:100FB000EE0FFF1F0A95E1F7E40FF51FED5FFE4FFF
:100FC000808351828091A700E199FECFADA1BEA19F
:100FD000A80FB11DBFBBAEBBE09A8DB39A0113E061
:100FE000220F331F1A95E1F7240F351FF901ED5F2A
:100FF000FE4F8283F901EA5FFE4F20E030E060910E
:10100000A700E199FECF8BA19CA1820F931F860FB1
:10101000911D9FBB8EBBE09A8DB381932F5F3F4F95
:101020002530310561F7FA01B3E0EE0FFF1FBA95E5
:10103000E1F7E40FF51FED5FFE4F1086EEA9FFA963
:10104000EE0FFF1FED54FF4F8081918180649183EB
:101050008083ECA9FDA9808180FF8BC3A8ADB9ADC9
:101060008C9190E083709070892B09F04EC0BFA5E1
:101070008B2F90E088739070E3E095958795EA95C3
:10108000E1F7982F882309F440C02B2F2770F40133
:1010900073E0EE0FFF1F7A95E1F7E554FF4F808173
:1010A000E92FF0E082FD19C0EE0FFF1FEC57FF4F54
:1010B0000190F081E02D808190E002C095958795A8
:1010C0002A95E2F780FF04C0E8ADF9AD54821DC057
:1010D000A8ADB9AD14961C9218C0EE0FFF1FEC57C7
:1010E000FF4F0190F081E02D808190E002C0959546
:1010F00087952A95E2F780FF04C0E8ADF9AD148228
:1011000004C0A8ADB9AD14965C92E8ADF9AD848188
:10111000882321F187818F5F8783843019F485814B
:1011200080618583A8ADB9AD17968C9117978832E9
:1011300031F415968C911597806415968C93E8ADD3
:10114000F9AD8781843629F48AE5878385818068B3
:101150008583A8ADB9AD16961C921CC0E8ADF9AD5B
:1011600086818F5F8683843019F4858181608583D1
:10117000A8ADB9AD17968C911797882341F08832A6
:1011800030F415968C911597806215968C93E8AD86
:10119000F9AD1782A8ADB9AD11968C91282F30E02A
:1011A000C90187709070892B09F0E3C2C901887367
:1011B00090708830910509F4BEC0893091051CF407
:1011C000892B49F0D6C28031910509F462C1489754
:1011D00009F0CFC212C2D40143E0AA0FBB1F4A9547
:1011E000E1F7A054BF4F8C9184FF50C0E8ADF9AD3A
:1011F00082818F70813071F4842D90E0FC0133E0A6
:10120000EE0FFF1F3A95E1F7E80FF91FED5FFE4F74
:1012100013825086E8ADF9AD82818F70823071F40F
:10122000842D90E0FC0123E0EE0FFF1F2A95E1F7EB
:10123000E80FF91FED5FFE4F53825086E8ADF9AD20
:1012400082818F708330E9F4242D30E0F90103E0CE
:10125000EE0FFF1F0A95E1F7E20FF31FED5FFE4F60
:101260008381882311F4538201C01382F90113E0B2
:10127000EE0FFF1F1A95E1F7E20FF31FED5FFE4F30
:101280005086E8ADF9AD85818F7E85838C9180FF96
:1012900070C2A8ADB9AD12968C91807F803171F487
:1012A000842D90E0FC01A3E0EE0FFF1FAA95E1F76B
:1012B000E80FF91FED5FFE4F13825086E8ADF9ADE0
:1012C0008281807F803271F4842D90E0FC0173E094
:1012D000EE0FFF1F7A95E1F7E80FF91FED5FFE4F64
:1012E00053825086A8ADB9AD12968C91807F803321
:1012F000E9F4242D30E0F90163E0EE0FFF1F6A9559
:10130000E1F7E20FF31FED5FFE4F8381882311F4B5
:10131000538201C01382F90153E0EE0FFF1F5A956B
:10132000E1F7E20FF31FED5FFE4F5086E8ADF9AD38
:1013300085818E7F60C1D40143E0AA0FBB1F4A950F
:10134000E1F7A054BF4F8C9184FF50C0E8ADF9ADD8
:1013500082818F70813071F4842D90E0FC0133E044
:10136000EE0FFF1F3A95E1F7E80FF91FED5FFE4F13
:1013700013825086E8ADF9AD82818F70823071F4AE
:10138000842D90E0FC0123E0EE0FFF1F2A95E1F78A
:10139000E80FF91FED5FFE4F53825086E8ADF9ADBF
:1013A00082818F708330E9F4242D30E0F90183E0ED
:1013B000EE0FFF1F8A95E1F7E20FF31FED5FFE4F7F
:1013C0008381882311F4538201C01382F90103E061
:1013D000EE0FFF1F0A95E1F7E20FF31FED5FFE4FDF
:1013E0005086E8ADF9AD85818F7E85838C9180FF35
:1013F000B5C1E8ADF9AD8281807F803171F4842D73
:1014000090E0FC0113E0EE0FFF1F1A95E1F7E80FE3
:10141000F91FED5FFE4F13825086E8ADF9AD828172
:10142000807F803271F4842D90E0FC0173E0EE0F38
:10143000FF1F7A95E1F7E80FF91FED5FFE4F53822A
:101440005086E8ADF9AD8281807F8033E9F4242DA8
:1014500030E0F90163E0EE0FFF1F6A95E1F7E20F5C
:10146000F31FED5FFE4F8381882311F4538201C087
:101470001382F90153E0EE0FFF1F5A95E1F7E20FD7
:10148000F31FED5FFE4F5086E8ADF9AD85818E7F8D
:1014900064C1D40143E0AA0FBB1F4A95E1F7A054F1
:1014A000BF4F8C9185FF50C0E8ADF9AD82818F7040
:1014B000813071F4842D90E0FC0133E0EE0FFF1FCA
:1014C0003A95E1F7E80FF91FED5FFE4F1382508662
:1014D000E8ADF9AD82818F70823071F4842D90E097
:1014E000FC0123E0EE0FFF1F2A95E1F7E80FF91F3B
:1014F000ED5FFE4F53825086E8ADF9AD82818F706B
:101500008330E9F4242D30E0F90103E0EE0FFF1FF2
:101510000A95E1F7E20FF31FED5FFE4F8381882309
:1015200011F4538201C01382F90113E0EE0FFF1F83
:101530001A95E1F7E20FF31FED5FFE4F5086E8AD1D
:10154000F9AD85818F7D85838C9186FF12C1A8AD11
:10155000B9AD12968C91807F803179F4BDA58B2F27
:1015600090E0FC01A3E0EE0FFF1FAA95E1F7E80F62
:10157000F91FED5FFE4F13825086E8ADF9AD828111
:10158000807F803279F4FDA58F2F90E0FC0173E01D
:10159000EE0FFF1F7A95E1F7E80FF91FED5FFE4FA1
:1015A00053825086A8ADB9AD12968C91807F80335E
:1015B000F1F4BDA52B2F30E0F90163E0EE0FFF1F22
:1015C0006A95E1F7E20FF31FED5FFE4F83818823F9
:1015D00011F4538201C01382F90153E0EE0FFF1F93
:1015E0005A95E1F7E20FF31FED5FFE4F5086E8AD2D
:1015F000F9AD85818F7B8583BCC0D40143E0AA0F00
:10160000BB1F4A95E1F7A054BF4F8C9185FF50C096
:10161000E8ADF9AD82818F70813071F4842D90E056
:10162000FC0133E0EE0FFF1F3A95E1F7E80FF91FD9
:10163000ED5FFE4F13825086E8ADF9AD82818F7069
:10164000823071F4842D90E0FC0123E0EE0FFF1F47
:101650002A95E1F7E80FF91FED5FFE4F53825086A0
:10166000E8ADF9AD82818F708330E9F4242D30E04C
:10167000F90103E0EE0FFF1F0A95E1F7E20FF31FF8
:10168000ED5FFE4F8381882311F4538201C01382E2
:10169000F90113E0EE0FFF1F1A95E1F7E20FF31FB8
:1016A000ED5FFE4F5086E8ADF9AD85818F7D858376
:1016B0008C9186FF53C0E8ADF9AD8281807F803187
:1016C00079F4FDA58F2F90E0FC0173E0EE0FFF1F72
:1016D0007A95E1F7E80FF91FED5FFE4F1382508610
:1016E000E8ADF9AD8281807F803279F4FDA58F2F3E
:1016F00090E0FC0163E0EE0FFF1F6A95E1F7E80F51
:10170000F91FED5FFE4F53825086E8ADF9AD82813F
:10171000807F8033F1F4FDA52F2F30E0F90153E0F5
:10172000EE0FFF1F5A95E1F7E20FF31FED5FFE4F3B
:101730008381882311F4538201C01382F90143E0AD
:10174000EE0FFF1F4A95E1F7E20FF31FED5FFE4F2B
:101750005086E8ADF9AD85818F7B85838C9187FFBD
:1017600008C0A8ADB9AD15968C9115978F771596D1
:101770008C930894811C911CE8ADF9AD3896F9AFB3
:10178000E8AFF2E08F16910409F037CA8091AB0000
:101790008E7F8093AB008091AC0080FF5FC72BEC05
:1017A00030E039AF28AF3A832983CC24DD242C2DB7
:1017B000F601E459FF4F9491F601E259FF4F34913D
:1017C0003AA3F601E059FF4F449149A3F601EE58C0
:1017D000FF4F549158A3F601EC58FF4F84918F8F1F
:1017E000A92FB0E0BBABAAABAA0FBB1FAD54BF4F34
:1017F000B9ABA8AB8C9186FD1FC3CC2021F0213062
:1018000009F052C080C067E370E0A8E3B0E009E3EC
:1018100010E0EAE3F0E0FE8FED8F2FE3E22EF12CF3
:1018200080E4A82EB12CF1E48F2E912C22E430E03C
:101830003C8F2B8FE7E46E2E712C58E4452E512CF3
:1018400049E4242E312C4AE450E05A8F498FEFE4CA
:10185000F0E0F88FEF8B20E530E03E8B2D8B41E5FB
:1018600050E05C8B4B8BE2E5F0E0FA8BE98B23E5F3
:1018700030E0388B2F8744E550E05E874D87E5E503
:10188000F0E0FC87EB8726E530E03A87298747E5DB
:1018900050E058874F83E8E5F0E0FE83ED8329E5CB
:1018A00030E03C832B837FC060E070E0A0E0B0E0DC
:1018B00000E010E01E8E1D8EEE24FF24AA24BB241F
:1018C000882499241C8E1B8E662477244424552456
:1018D000222433241A8E198E188E1F8A1E8A1D8A7E
:1018E0001C8A1B8A1A8A198A188A1F861E861D86D8
:1018F0001C861B861A86198618861F821E821D82E8
:101900001C821B8250C060E670E0A1E6B0E002E6F7
:1019100010E043E650E05E8F4D8F38E6E32EF12C69
:1019200029E6A22EB12C8AE6882E912CEBE6F0E077
:10193000FC8FEB8FF0E76F2E712CE1E74E2E512CD0
:1019400052E7252E312C23E730E03A8F298F48E7E4
:1019500050E0588F4F8BE9E7F0E0FE8BED8B2AE7E4
:1019600030E03C8B2B8B4BE750E05A8B498BECE7FC
:10197000F0E0F88BEF872DE730E03E872D874EE7CC
:1019800050E05C874B87EFE7F0E0FA87E98720E8D3
:1019900030E038872F8341E850E05E834D83E2E8F2
:1019A000F0E0FC83EB83913061F0913028F09230CD
:1019B00069F09330B9F40FC04AE150E080E090E064
:1019C0000EC045E350E08BE190E009C04EE550E0E9
:1019D00086E390E004C047E850E08FE590E084178C
:1019E000950710F080E012C09C0102C02F5F3F4FAE
:1019F00042175307D8F72091A700E199FECF820F35
:101A0000911D9FBB8EBBE09A8DB38F732AA93BA912
:101A1000220F331F2D543F4FF90180831182E8A913
:101A2000F9A9808180FFFDC18091A700E199FECFD7
:101A3000680F711D7FBB6EBBE09A8DB3E981FA819F
:101A40008083FAA14F2F50E08091A700E199FECF4B
:101A5000A80FB11DBFBBAEBBE09A8DB3FA0123E066
:101A6000EE0FFF1F2A95E1F7E40FF51FED5FFE4F24
:101A7000808321E021838091A700E199FECF080FA8
:101A8000111D1FBB0EBBE09A8DB39A0193E0220F8C
:101A9000331F9A95E1F7240F351FF901ED5FFE4FD3
:101AA0008283F901EA5FFE4F20E030E06091A700F9
:101AB000E199FECF8D8D9E8D820F931F860F911D14
:101AC0009FBB8EBBE09A8DB381932F5F3F4F253034
:101AD000310561F7FA0103E0EE0FFF1F0A95E1F708
:101AE000E40FF51FED5FFE4F10868091A700E1998E
:101AF000FECFE80EF11CFFBAEEBAE09A8DB3A8ADA6
:101B0000B9AD15968C93B9A14B2F50E08091A700E9
:101B1000E199FECFA80EB11CBFBAAEBAE09A8DB360
:101B2000FA0113E0EE0FFF1F1A95E1F7E40FF51F1E
:101B3000ED5FFE4F808321E021838091A700E19932
:101B4000FECF880E911C9FBA8EBAE09A8DB39A018F
:101B5000B3E0220F331FBA95E1F7240F351FF901C7
:101B6000ED5FFE4F8283F901EA5FFE4F20E030E037
:101B70006091A700E199FECF8B8D9C8D820F931F02
:101B8000860F911D9FBB8EBBE09A8DB381932F5F13
:101B90003F4F2530310561F7FA01A3E0EE0FFF1F3B
:101BA000AA95E1F7E40FF51FED5FFE4F10868091D7
:101BB000A700E199FECF680E711C7FBA6EBAE09A59
:101BC0008DB3A8ADB9AD16968C93B8A14B2F50E04C
:101BD0008091A700E199FECF480E511C5FBA4EBA22
:101BE000E09A8DB3FA0173E0EE0FFF1F7A95E1F7EB
:101BF000E40FF51FED5FFE4F808321E0218380918C
:101C0000A700E199FECF280E311C3FBA2EBAE09A08
:101C10008DB39A0163E0220F331F6A95E1F7240F19
:101C2000351FF901ED5FFE4F8283F901EA5FFE4F38
:101C300020E030E06091A700E199FECF898D9A8D78
:101C4000820F931F860F911D9FBB8EBBE09A8DB3B1
:101C500081932F5F3F4F2530310561F7FA0123E073
:101C6000EE0FFF1F2A95E1F7E40FF51FED5FFE4F22
:101C700010868091A700E199FECF4F89588D480FBB
:101C8000511D5FBB4EBBE09A8DB3A8ADB9AD19969F
:101C90008C938091A700E199FECFED89FE89E80F32
:101CA000F11DFFBBEEBBE09A8DB3A8ADB9AD1A969E
:101CB0008C938091A700E199FECFEB89FC89E80F16
:101CC000F11DFFBBEEBBE09A8DB3A8ADB9AD1B967D
:101CD0008C938091A700E199FECFE989FA89E80FFA
:101CE000F11DFFBBEEBBE09A8DB3A8ADB9AD1C965C
:101CF0008C938091A700E199FECFEF85F889E80FDA
:101D0000F11DFFBBEEBBE09A8DB3A8ADB9AD1D963A
:101D10008C938091A700E199FECFED85FE85E80FB9
:101D2000F11DFFBBEEBBE09A8DB3A8ADB9AD1E9619
:101D30008C938091A700E199FECFEB85FC85E80F9D
:101D4000F11DFFBBEEBBE09A8DB3A8ADB9AD1F96F8
:101D50008C938091A700E199FECFE985FA85E80F81
:101D6000F11DFFBBEEBBE09A8DB3A8ADB9AD5A969D
:101D70008C93BF8D4B2F50E08091A700E199FECF4F
:101D8000EF81F885E80FF11DFFBBEEBBE09A8DB344
:101D9000FA0193E0EE0FFF1F9A95E1F7E40FF51FAC
:101DA000ED5FFE4F808321E021838091A700E199C0
:101DB000FECFAD81BE81A80FB11DBFBBAEBBE09A07
:101DC0008DB39A0103E0220F331F0A95E1F7240F28
:101DD000351FF901ED5FFE4F8283F901EA5FFE4F87
:101DE00020E030E06091A700E199FECF8B819C81DB
:101DF000820F931F860F911D9FBB8EBBE09A8DB300
:101E000081932F5F3F4F2530310561F7FA0113E0D1
:101E1000EE0FFF1F1A95E1F7E40FF51FED5FFE4F80
:101E20001086EAA9FBA9EE0FFF1FED54FF4F80813A
:101E30009181806491838083E8A9F9A9808180FFE2
:101E4000F4C3A8ADB9AD16968C9190E087709070F0
:101E50008130910539F0BAA12B2F30E0029709F0BB
:101E600062C014C0EAA12E2F30E0F8A14F2F50E03D
:101E7000F901A3E0EE0FFF1FAA95E1F7E20FF31FB0
:101E8000ED5FFE4F8381882369F110C0F8A14F2FC9
:101E900050E0F90173E0EE0FFF1F7A95E1F7E20FD2
:101EA000F31FED5FFE4F8381882369F4FA0163E03D
:101EB000EE0FFF1F6A95E1F7E40FF51FED5FFE4F90
:101EC0008381882379F0A8ADB9AD17968C911797C7
:101ED0008130A9F0E1E01796EC931797F1E018969E
:101EE000FC930DC0A8ADB9AD17968C9117978823B8
:101EF00031F017961C921797E1E01896EC93F901D0
:101F000093E0EE0FFF1F9A95E1F7E20FF31FED5FED
:101F1000FE4F1086FA0183E0EE0FFF1F8A95E1F76E
:101F2000E40FF51F20C0F90103E0EE0FFF1F0A9533
:101F3000E1F7E20FF31FED5FFE4F9381A8ADB9AD5E
:101F400017968C911797891731F017969C931797CE
:101F5000E1E01896EC93F90113E0EE0FFF1F1A95DC
:101F6000E1F7E20FF31FED5FFE4F1086A8ADB9ADAC
:101F700017961C91179718960C91189719968C9193
:101F800090E0837090708130910521F0029709F004
:101F900035C170C08CE190E0C89EB001C99E700D43
:101FA000D89E700D11246C527F4FFB01808182FFFF
:101FB00046C0113099F4E8ADF9AD80899189A289C4
:101FC000B3890097A105B105D1F10197A109B10924
:101FD000808B918BA28BB38B10E031C0A8ADB9ADD3
:101FE0001C968C911C9790E020E13EE0F9018E9FB9
:101FF00090018F9F300D9E9F300D11241B968C9168
:102000001B974CE3849FC0011124280F391F1A9697
:102010008C91280F311D84E690E0AC01249FC00113
:10202000259F900D349F900D1124AA2797FDA09510
:10203000BA2FE8ADF9AD808B918BA28BB38BDB010E
:102040008C9183FFDBC0112309F0A7C0E8ADF9AD87
:1020500084899589A689B7890097A105B10509F4F6
:10206000CDC00197A109B109848B958BA68BB78B45
:1020700011E0C4C0112309F090C0E8ADF9AD848926
:102080009589A689B7890097A105B10541F0019707
:10209000A109B109848B958BA68BB78B11E08CE1DC
:1020A00090E0C89EF001C99EF00DD89EF00D11245D
:1020B000EC52FF4F8081A8ADB9AD50964D915D9126
:1020C0006D917C91539790E08470907020E030E0A7
:1020D000411551056105710511F421E030E0822BB5
:1020E000932B892B09F48AC08081E8ADF9AD248552
:1020F000E385A8ADB9AD1A96FC9183FF26C030E008
:1021000080E19EE0D901A89F9001A99F300DB89F62
:10211000300D11248CE3E89FC0011124280F391FD2
:102120002F0F311D84E690E0FC012E9FC0012F9FF0
:10213000900D3E9F900D1124AA2797FDA095BA2FD0
:10214000840F951FA61FB71F21C030E080E19EE0DD
:10215000A901489F9001499F300D589F300D1124CF
:102160008CE3E89FC0011124280F391F2F0F311D68
:1021700084E690E0DC012A9FC0012B9F900D3A9FDE
:10218000900D1124AA2797FDA095BA2FE8ADF9ADBF
:10219000808B918BA28BB38B31C0A8ADB9AD1F964C
:1021A0008C911F9790E020E13EE0F9018E9F900115
:1021B0008F9F300D9E9F300D11241E968C911E977F
:1021C0004CE3849FC0011124280F391F1D968C9168
:1021D000280F311D84E690E0AC01249FC001259FAB
:1021E000900D349F900D1124AA2797FDA095BA2F2A
:1021F000E8ADF9AD848B958BA68BB78BA8ADB9AD47
:1022000058968C915897811731F058961C9358978F
:10221000E1E05996EC93FF8D6F2F70E0FB01B3E086
:10222000EE0FFF1FBA95E1F7E60FF71FED5FFE4FC8
:102230008085813009F0D5C0A8ADB9AD5A968C9192
:10224000282F30E0C901837090708130910521F012
:10225000029709F0B8C070C043818CE190E0C89E3D
:10226000F001C99EF00DD89EF00D1124EB51FF4FE7
:102270008081E08190E0413009F491E08695869577
:1022800080958923E82FF0E0EF2B41F12871307021
:10229000232B21F48BE0E8ADF9AD838FA8ADB9AD68
:1022A0005A968C915A978871883019F48CE05B9615
:1022B0008C93E8ADF9AD828D8871803111F48DE099
:1022C000838FA8ADB9AD5A968C915A978871883191
:1022D00009F07CC08EE05B968C9378C0822F807E64
:1022E00021F421E0E8ADF9AD238FA8ADB9AD5A9640
:1022F0008C915A97807E803219F482E05B968C93A1
:10230000E8ADF9AD828D807E803411F483E0838F57
:10231000A8ADB9AD5A968C915A97807E803611F44B
:102320005B961C92E8ADF9AD828D807E803809F015
:102330004DC084E0838F4AC043818CE190E0C89E09
:10234000F001C99EF00DD89EF00D1124EB51FF4F06
:102350008081E08190E0413009F491E08695869596
:1023600080958923E82FF0E0EF2B31F0E1E0A8AD74
:10237000B9AD5B96EC932AC028713070232B29F4F9
:10238000E1E0A8ADB9AD5B96EC93A8ADB9AD5A96B6
:102390008C915A978871883019F482E05B968C93FF
:1023A000E8ADF9AD828D8871803111F483E0838FBF
:1023B000A8ADB9AD5A968C915A978871883131F48D
:1023C0005B961C9203C0E8ADF9AD138EFB01A3E050
:1023D000EE0FFF1FAA95E1F7E60FF71FED5FFE4F27
:1023E0001086A8ADB9AD5B968C91843069F18530CB
:1023F00040F48230C1F08330F0F4813009F049C0FC
:102400000DC08C3079F18D3020F48B3009F041C053
:1024100021C08D3079F18E30E1F536C0E8ADF9ADEF
:102420001381048136C0111101E0E1E0A8ADB9AD1E
:102430005B96EC931DC0113009F001E0E1E0A8AD1E
:10244000B9AD5B96EC931EC0E1E0A8ADB9AD5B966B
:10245000EC931EC0A8ADB9AD13961C9113971496BA
:102460000C9117C0111101E08BE0E8ADF9AD838F3D
:1024700010E00FC0113009F001E08BE0A8ADB9AD5C
:102480005B968C9311E005C08BE0E8ADF9AD838FCE
:1024900001E0A8ADB9AD13961C93139714960C9355
:1024A000F601EA58FF4F6491F601E858FF4FF490A7
:1024B000E981FA81808190E087709070892B09F022
:1024C0003FC00130E9F58CE190E0C89EA001C99EB3
:1024D000500DD89E500D1124FA01E253FF4F808118
:1024E000262F30E080FF11C028733070E3E035956F
:1024F0002795EA95E1F72223F9F06770FA01E55391
:10250000FF4F808184FD11C013C02873307073E0C9
:10251000359527957A95E1F7222371F06770FA01D6
:10252000E553FF4F808184FD03C0822F43E002C04A
:10253000822F41E00E94BA00A8ADB9AD14961C925A
:102540008CE190E0C89EF001C99EF00DD89EF00D80
:1025500011248F0105531F4FD8018C9185FF38C07E
:102560002F2D30E02873307093E0359527959A959C
:10257000E1F7E22EB7E0FB22F801808187FF04C07B
:10258000822F6F2D42E003C0822F6F2D40E00E940A
:10259000BA008E2D6F2D42E00E94BA00EE2DF0E0C1
:1025A000EE0FFF1FEC57FF4F0190F081E02D80816F
:1025B00090E002C095958795FA94E2F7E82FE170D4
:1025C000D8018C9186FF19C0EE23B1F0E0E015C070
:1025D000A8ADB9AD13962C91E053FF4F8081E081F7
:1025E000222311F4E0FD08C090E0213009F491E0CD
:1025F000E82FE095E92301C0E1E0B9A18B2F90E03D
:10260000DC0113E0AA0FBB1F1A95E1F7A80FB91F51
:10261000AD5FBE4F13968C9113978E1731F01396C2
:10262000EC931397E1E01896EC930894C11CD11C2D
:1026300028AD39AD245E3F4F39AF28AF49815A816B
:10264000445E5F4F5A83498352E0C516D10409F0B6
:10265000AEC88091AC008E7F8093AC00E9960FB637
:10266000F894DEBF0FBECDBFCF91DF911F910F91C8
:10267000FF90EF90DF90CF90BF90AF909F908F90A2
:102680007F906F905F904F903F902F90089585308E
:1026900071F0863018F4813041F405C0863049F07D
:1026A000873019F408C084E0089580E0089585E03B
:1026B000089586E0089588E008958091A700282F66
:1026C00030E026573F4FEAE8F1E0E199FECF225093
:1026D00030403FBB2EBB2E5F3F4FE09A9DB3E19948
:1026E000FECF215030403FBB2EBB2F5F3F4FE09AC3
:1026F0008DB3582F40E0892F90E0842B952B918348
:102700008083E199FECF3FBB2EBBE09A8DB38283DD
:102710002D5F3F4F339681E0E43BF807B1F6089513
:10272000FFCFCF93DF93EC0180E0BE010E94CB038B
:1027300088818073803239F48091A900882319F44C
:10274000CE010E94A613DF91CF9108952F923F9260
:102750004F925F926F927F928F929F92AF92BF92B1
:10276000CF92DF92EF92FF920F931F93DF93CF935D
:10277000CDB7DEB72D970FB6F894DEBF0FBECDBF35
:102780005C012090A5003090A6000AE8402E01E0F0
:10279000502EF50121813281F2018081918128172B
:1027A000390709F0F0C0232B09F4EDC013E0E12E46
:1027B00011E0F12E00E010E06801B3E0CC0CDD1C6C
:1027C000BA95E1F7C00ED11E23E031E0C20ED31E50
:1027D000F601808180FFCDC0F2018281081709F0E7
:1027E000C8C0F7012181253069F0263018F4213066
:1027F00029F406C0263041F0273041F040E007C000
:1028000044E005C045E003C046E001C048E0F501F2
:10281000808190E08F709070842E9924881599059E
:1028200009F0A7C08581821709F0A3C0868190E0D6
:1028300083709070892BB9F5F601808181FF33C0D8
:10284000F501618072802E83F1E0FF83F7018281C0
:10285000888790E0B401635070409801A3E0220F94
:10286000331FAA95E1F7200F311F2D5F3E4F0CC09B
:10287000E9E0F0E0EC0FFD1FEA0FFB1FA20FB31F12
:1028800013968C9180839F5FA92FB0E0A617B7079E
:102890007CF33D822C827B826A8240624983CE0136
:1028A00001960E949113F50186818370813059F55C
:1028B000F601808184FF27C0F5019781F7018281AD
:1028C000981709F590E0A401435050409801F3E0B7
:1028D000220F331FFA95E1F7200F311F2D5F3E4F76
:1028E00009C0F901EA0FFB1FAA0DBB1D18968C91B8
:1028F00083839F5FA92FB0E0A417B50794F3F70176
:1029000080818F7D8083F50186818370823089F597
:10291000F601808182FF2DC0F5019781F701828148
:10292000981739F550E0B401635070409801E3E026
:10293000220F331FEA95E1F7200F311F2D5F3E4F25
:102940000FC0F501E80FF91F4085F901E80FF91FE5
:102950008381841721F0438381E0F70180875F5FE3
:10296000852F90E08617970764F3F70180818F7DAC
:1029700080830F5F1F4F29E030E0E20EF31E0E3020
:10298000110509F019CF83E090E0480E591E94EB31
:10299000491691E0590609F0FCCE2D960FB6F89431
:1029A000DEBF0FBECDBFCF91DF911F910F91FF9082
:1029B000EF90DF90CF90BF90AF909F908F907F90DF
:1029C0006F905F904F903F902F9008952F923F927D
:1029D0004F925F926F927F928F929F92AF92BF922F
:1029E000CF92DF92EF92FF920F931F93DF93CF93DB
:1029F000CDB7DEB72D970FB6F894DEBF0FBECDBFB3
:102A00008091AA0080FFFDC08090A5009090A60054
:102A100003E0C02E01E0D02EEE24FF2419E0212E89
:102A2000312C2C0E3D1E2E010894411C511CB2E08D
:102A30006B2E7E2CF701EC5AFF4FE491F0E0EE0F85
:102A4000FF1FED54FF4F808180FFCAC08701E3E084
:102A5000000F111FEA95E1F70E0D1F1D0D5F1E4FB0
:102A6000F801808180FFBCC0808183FF5CC0F601DB
:102A70008085813009F057C0EAE8F1E0A080B1809C
:102A80008281871509F047C0A114B10409F443C03D
:102A9000F6018181853069F0863018F4813029F49F
:102AA00006C0863041F0873041F090E007C094E0E6
:102AB00005C095E003C096E001C098E08E836F8268
:102AC000F6018281888760E0492F50E043505040F2
:102AD000970173E0220F331F7A95E1F72E0D3F1D0A
:102AE0002D5F3E4F09C0F101EA0FFB1FA20FB31F7C
:102AF00013968C9180836F5FA62FB0E0A417B50763
:102B000094F39D828C82BB82AA8290629983C201D7
:102B10000E94911306C0339681E0E43BF80709F068
:102B2000ADCFF6011086F801808185FF59C0EAE833
:102B3000F1E0008111818281871509F04BC00115F8
:102B4000110509F447C0F6018181853069F08630AE
:102B500018F4813029F406C0863041F0873041F006
:102B600090E007C094E005C095E003C096E001C086
:102B700098E08E831F82F6018281888760E0492F6A
:102B800050E043505040970183E0220F331F8A9555
:102B9000E1F72E0D3F1D2D5F3E4F09C0F101EA0FF9
:102BA000FB1FA20FB31F13968C9180836F5FA62F1C
:102BB000B0E0A417B50794F39D828C821B830A832F
:102BC00090629983C2010E949113F60180818F7DEA
:102BD000808306C0339681E0E43BF80709F0A9CF73
:102BE0000894E11CF11CE9E0F0E0CE0EDF1EFEE0EF
:102BF000EF16F10409F01DCF8091AA008E7F80931B
:102C0000AA002D960FB6F894DEBF0FBECDBFCF91B0
:102C1000DF911F910F91FF90EF90DF90CF90BF90C9
:102C2000AF909F908F907F906F905F904F903F906C
:102C30002F900895DF92EF92FF920F931F93DF93EF
:102C4000CF93CDB7DEB72D970FB6F894DEBF0FBE8A
:102C5000CDBFAC01FC01D0806D2D6F70E380F4809E
:102C60000091A5001091A600DC01FE0136969E01A0
:102C7000260F311D2A5F3F4F04C014968C91149784
:102C800081931196E217F307C1F7FA01858182302B
:102C900009F090C0623009F046C18E81806C8E834D
:102CA00026812223C1F4E199FECF82E190E09FBB0F
:102CB0008EBBE09A8DB3882309F462C0E199FECF00
:102CC00082E190E09FBB8EBB1DBA0FB6F894E29AEA
:102CD000E19A0FBE6EC02130C9F4E199FECF82E1C6
:102CE00090E09FBB8EBBE09A8DB3813009F461C048
:102CF000E199FECF82E190E09FBB8EBB81E08DBB6E
:102D00000FB6F894E29AE19A0FBE53C0283009F04A
:102D100037C0E199FECF8BE190E09FBB8EBBE09A7C
:102D20002DB32F5FE199FECF8BE190E09FBB8EBB6F
:102D3000E09A8DB3821761F0E199FECF8BE190E0CC
:102D40009FBB8EBB2DBB0FB6F894E29AE19A0FBEE3
:102D5000E199FECF82E190E09FBB8EBBE09A8DB3FC
:102D6000883039F1E199FECF82E190E09FBB8EBBC4
:102D700088E08DBB0FB6F894E29AE19A0FBE19C0B5
:102D80002930B9F4E199FECF82E190E09FBB8EBB80
:102D9000E09A8DB3893069F0E199FECF82E190E04D
:102DA0009FBB8EBB89E08DBB0FB6F894E29AE19A87
:102DB0000FBEFFCF863009F043C0613009F0B3C0C9
:102DC0008091A800893009F0AEC08091A700282F1B
:102DD00030E0A895E199FECF3FBB2EBBE09A8DB3C2
:102DE000882351F0E199FECF3FBB2EBB1DBA0FB631
:102DF000F894E29AE19A0FBE2F5F3F4FF2E0203045
:102E00003F0738F32CE130E0F901EC5BFF4FE08144
:102E1000E199FECF3FBB2EBBE09A8DB38E1751F0E8
:102E2000E199FECF3FBB2EBBEDBB0FB6F894E29A03
:102E3000E19A0FBE2F5F3F4F2032310529F7FFCFB8
:102E4000873071F5643008F46EC0FA01978180E034
:102E50002681DC01A20FB11DF2E0A030BF0708F00F
:102E600062C08E81806C8E8340E0262F30E023503C
:102E70003040BE01675F7F4F0DC0E199FECFCD01AD
:102E8000840F911D9FBB8EBBE09A8DB3E60FF71F99
:102E900080834F5FE42FF0E0E217F30774F343C041
:102EA000883009F040C0643008F43DC08091A8002B
:102EB000893009F038C0FA01978180E02681DC0171
:102EC000A20FB11D8091A70090E0A817B90758F193
:102ED000F2E0A030BF0738F58E81806C8E8390E0E1
:102EE000262F30E02350304019C0BF016A0F7B1FEE
:102EF000E40FF51FE085E199FECF7FBB6EBBE09A42
:102F00008DB38E1751F0E199FECF7FBB6EBBEDBB49
:102F10000FB6F894E29AE19A0FBE9F5FE92FF0E0B6
:102F2000E217F30714F38E8180648E831D830C8374
:102F3000FB82EA82D982CE0101960E9491132D96DE
:102F40000FB6F894DEBF0FBECDBFCF91DF911F91BA
:102F50000F91FF90EF90DF9008952091A70030E04F
:102F6000220F331F820F931F6CE570E00E94DC1864
:102F700008956CE570E00E94DC180895CF92DF920E
:102F8000EF92FF920F931F93DF93CF93CDB7DEB7EE
:102F90002D970FB6F894DEBF0FBECDBF8DE028E1B0
:102FA00030E00FB6F894A89521BD0FBE81BDA8955D
:102FB00080E190E06CE570E00E94DC186C01909379
:102FC000A6008093A50001978F5F9740B8F0E19924
:102FD000FECF82E190E09FBB8EBBE09A8DB3882349
:102FE00061F0E199FECF82E190E09FBB8EBB1DBAFC
:102FF0000FB6F894E29AE19A0FBEFFCF2CE030E0D2
:10300000F901EC5AFF4FE081E199FECF3FBB2EBBA7
:10301000E09A8DB38E1751F0E199FECF3FBB2EBBE6
:10302000EDBB0FB6F894E29AE19A0FBE2F5F3F4FC7
:103030002031310529F7E199FECF8AE190E09FBB6D
:103040008EBBE09A8DB38093A700E199FECF82E119
:1030500090E09FBB8EBBE09A8DB38093A800885010
:103060008230D0F088E08093A800E199FECF82E121
:1030700090E09FBB8EBBE09A8DB3883069F0E199F8
:10308000FECF82E190E09FBB8EBB88E08DBB0FB688
:10309000F894E29AE19A0FBEF090A9002CE130E09A
:1030A000E199FECF3FBB2EBBE09A8DB3F901EC5BFB
:1030B000FF4F9081891711F081E0F82A2F5F3F4F71
:1030C0002032310569F7F092A900FF20F1F48BE07E
:1030D00083BF12BE8AEF8CBF82E089BF109281014C
:1030E000109282011092830181E080938501809388
:1030F00084018093860110928801109287010E94BA
:103100005D130E94E6140E94D705789480E00E9427
:10311000230381E28E83FE01379624E030E0E199BB
:10312000FECF3FBB2EBBE09A8DB381932F5F3F4F05
:1031300028303105A1F7E199FECF82E190E09FBBF5
:103140008EBBE09A8DB38B87FC86DD82CC8282E0D9
:1031500090EF9B838A8387E289838E010F5F1F4FE5
:10316000C8010E949113E02E012FA895FF2031F491
:103170000E9451040E94E6140E94D70580E06E2D43
:10318000702F0E943F03813081F78981807349F459
:103190008A819B818C159D0521F48E2D902F0E9494
:1031A0001A1689818073803201F7FF20F1F68E2D87
:1031B000902F0E94A613D9CFDF92EF92FF920F9328
:1031C0001F937B018C01FB010995D82EC801019644
:1031D000F7010995982F8D2D1F910F91FF90EF907A
:1031E000DF900895AA1BBB1B51E107C0AA1FBB1F9C
:1031F000A617B70710F0A61BB70B881F991F5A9583
:10320000A9F780959095BC01CD010895F894FFCF62
:103210001800000089013A003700340031008901AC
:103220008901890189013B0038003500320089019C
:103230008901890189013900360033003000890194
:10324000890189011F1C1F1E1F1E1F1F1E1F1E1FFD
:00000001FF
