:100000000C9456000C9473000C9473000C947300C1
:100010000C9473000C9473000C9473000C94730094
:100020000C9473000C9473000C9473000C94730084
:100030000C9473000C9473000C9473000C94730074
:100040000C9473000C9473000C9473000C944C0586
:100050000C94730000000000010101010202020281
:100060000303030304040404050505050606060648
:100070000707070700010203040506070004080C30
:100080001014181C0105090D1115191D02060A0E80
:1000900012161A1E03070B0F13171B1F10111A1B22
:1000A0001C1D1E1F48494A4B4C4D4E4F11241FBE6C
:1000B000CFE5D4E0DEBFCDBF10E0A0E6B0E0E0EDDC
:1000C000FBE202C005900D92A03AB107D9F713E008
:1000D000A0EAB0E001C01D92A932B107E1F70E9489
:1000E0009E140C94E6150C9400009C01E199FECF3F
:1000F0003FBB2EBBE09A8DB308959C01E199FECFE2
:100100003FBB2EBBE09A8DB30895E199FECF9C01D1
:100110009FBB8EBBE09A8DB3861751F0E199FECF5D
:100120003FBB2EBB6DBB0FB6F894E29AE19A0FBEAF
:1001300008952091A700E199FECF820F911D9FBBEA
:100140008EBBE09A8DB30895AC018091A700282F53
:1001500030E0E199FECFCA01820F931F9FBB8EBB97
:10016000E09A8DB3861761F0E199FECF240F351F19
:100170003FBB2EBB6DBB0FB6F894E29AE19A0FBE5F
:100180000895E82FF0E0EE0FFF1FEC57FF4F0190AE
:10019000F081E02D808190E002C0959587956A9569
:1001A000E2F78170089591E002C0990F61506623D3
:1001B000E1F7A82FB0E0FD01EE0FFF1FEC58FF4F55
:1001C0000190F081E02D8081892B41FF8927808378
:1001D000AA0FBB1FAC59BF4FED91FC918081892BB9
:1001E00040FF892780830895DF93CF930F92CDB787
:1001F000DEB78983898186FF0CC0898184FF05C0B1
:1002000087B3806A87BBBE9807C0BE9A87B38F75D5
:1002100002C087B38F7187BB89818DB91EB80F90DB
:10022000CF91DF9108951FB8779BFECF8FB10895CE
:100230008FB9779BFECF08958FB9779BFECF8FB193
:100240000895FF920F931F93082FF62E142F41E06D
:100250000E94D30083E08FB9779BFECF8FB11FB987
:10026000779BFECF8FB18FEF8FB9779BFECF1FB1FA
:10027000802F6F2D43E00E94D300812F1F910F919B
:10028000FF900895EF92FF920F931F93082FF62E81
:10029000142FE22E41E00E94D30082E08FB9779BB9
:1002A000FECF8FB11FB9779BFECF8FB1EFB8779B91
:1002B000FECF8FB1802F6F2D43E00E94D3001F919E
:1002C0000F91FF90EF900895DF92EF92FF920F93BE
:1002D0001F93E82ED62E142FF22E41E00E94D30059
:1002E00085E08FB9779BFECF8FB11FB9779BFECF8B
:1002F0008FB1FFB8779BFECF8FB10FB9779BFECF41
:100300008FB18E2D6D2D43E00E94D3001F910F9170
:10031000FF90EF90DF9008958F929F92AF92BF92DF
:10032000CF92DF92EF92FF920F931F93DF93CF93C1
:10033000CDB7DEB7F82ED62E142FB22E902E0C2D60
:1003400043E00E94D300812F0E94F4008F2D6D2D79
:1003500041E00E94D30080EC8FB9779BFECF8FB134
:100360008F2D6D2D43E00E94D30080EA9FE001971E
:10037000F1F78F2D6D2D4AE22B2D0E9442018F2D1A
:100380006D2D49E2292D0E9442018F2D6D2D48E2ED
:100390002E2D0E9442018F2D6D2D40E624E60E94F5
:1003A00042018F2D6D2D40E720E60E9442018F2DE6
:1003B0006D2D4BE223E00E9442010023C9F008307A
:1003C00030F4802F6A2D41E00E94D30011C00C3F11
:1003D00031F48F2D6D2D4CE024E104E007C00D3F7A
:1003E00039F48F2D6D2D4CE028E208E00E94640165
:1003F0008F2D6D2D4CE02CE00E9442018F2D6D2D34
:100400004FE020EE082D0E9464018F2D6D2D4FE0EE
:100410000E94210140E090E0807E9070282D30E025
:100420008217930709F441E0842FCF91DF911F9148
:100430000F91FF90EF90DF90CF90BF90AF909F9083
:100440008F900895DF92EF92FF920F931F93DF93A7
:10045000CF930F92CDB7DEB7082FD62E142F198267
:1004600043E00E94D300812F0E94F400802F6D2D65
:1004700041E00E94D30080EB8FB9779BFECF8FEFD6
:100480008FB9779BFECF9FB18FEF8FB9779BFECF50
:100490008FB19983802F6D2D43E00E94D300898115
:1004A00086FF02C010E906C0898187FD02C080E096
:1004B00047C014E9802F6D2D41E00E94D3001FB981
:1004C000779BFECF1FB8779BFECF8FB1F70181835B
:1004D0001FB8779BFECF8FB1F70180831FB8779B42
:1004E000FECF8FB1F70183831FB8779BFECF8FB10B
:1004F000F70182831FB8779BFECF8FB1F70184830A
:10050000848186FD10C090E009C01FB8779BFECFA4
:100510008FB1F701E90FF11D85839F5FF70184819A
:10052000981798F307C0F70180E015828F5F319626
:100530008830D9F7802F6D2D43E00E94D30081E0F1
:100540000F90CF91DF911F910F91FF90EF90DF906F
:100550000895CF92DF92EF92FF920F931F93DF9354
:10056000CF930F92CDB7DEB7082FD62E142F198256
:1005700043E00E94D300812F0E94F400802F6D2D54
:1005800041E00E94D30080EA8FB9779BFECF8FEFC6
:100590008FB9779BFECF9FB18FEF8FB9779BFECF3F
:1005A0008FB19983802F6D2D43E00E94D300898104
:1005B00082FD04C010E461E8C62E0FC0898184FD6D
:1005C00004C012E452E8C52E08C0898186FF02C02B
:1005D00080E048C014E444E8C42E802F6D2D41E033
:1005E0000E94D3001FB9779BFECFF70181818FB99D
:1005F000779BFECFF70180818FB9779BFECFF70104
:1006000083818FB9779BFECFF70182818FB9779B6A
:10061000FECFF70124812FB9779BFECFF7018481AC
:1006200086FD0CC090E008C0F701E90FF11D85813F
:100630008FB9779BFECF9F5F9217B0F3802F6D2D00
:1006400043E00E94D3000000802F6D2D41E00E9406
:10065000D300CFB8779BFECF802F6D2D43E00E9453
:10066000D30081E00F90CF91DF911F910F91FF9008
:10067000EF90DF90CF9008958F92AF92CF92EF924C
:100680000F93882311F080E00CC082E064E041E524
:1006900023E006EB74E0E72ECC24AA2488240E94F1
:1006A0008C010F91EF90CF90AF908F900895AF9203
:1006B000BF92CF92DF92EF92FF920F93DF93CF938F
:1006C000CDB7DEB72D970FB6F894DEBF0FBECDBF06
:1006D0006B01882309F066C082E064E041E520E018
:1006E00000E05E010894A11CB11C75010E94220269
:1006F000813009F057C0EA818E2F90E0807C9070A5
:1007000095958795959587950D81F02FFF70F82B1E
:10071000D601FC936C81498150E03E2F330F330F9B
:1007200020E0862F869586958695280F311DCA0173
:100730008370907075E0880F991F7A95E1F7280F04
:10074000391F407E5070440F551F440F551F240F12
:10075000351F12963C932E93119770E0677070705E
:10076000762F66278B81680F711D14967C936E938C
:1007700013978D8186FD0AC0DE011696F601202FA3
:1007800030E02B5F3F4F2A0D3B1D06C0F064D601C1
:10079000FC9306C08D9184833196A217B307D1F7DD
:1007A00081E001C080E02D960FB6F894DEBF0FBE49
:1007B000CDBFCF91DF910F91FF90EF90DF90CF9061
:1007C000BF90AF900895EF92FF920F93DF93CF9376
:1007D000CDB7DEB72D970FB6F894DEBF0FBECDBFF5
:1007E000FB01882311F090E04EC09281969596957A
:1007F0006081862F880F880F807C892B8A834181B6
:100800005281CA019695879596958795807E9A0123
:10081000A5E036952795AA95E1F72370822B88608D
:10082000898384818770440F440F440F842B8C8309
:1008300083818B836F706D83808186FD0AC0DF01A9
:10084000FE013696CE01860F911DBC016A5F7F4F77
:1008500007C060646D8308C014968C9114978193CF
:100860001196E617F707C1F782E064E041E520E062
:1008700000E07E010894E11CF11C0E94A90290E0B6
:10088000813009F491E0892F2D960FB6F894DEBFE0
:100890000FBECDBFCF91DF910F91FF90EF900895E4
:1008A0008BE083BF12BE8DE78CBF82E089BF1092C0
:1008B000C0021092C1021092C20281E08093C40271
:1008C0008093C3028093C5021092C7021092C602A1
:1008D00008951F938091A00080FFBBC08091A1006C
:1008E0009091A200885E934008F472C01092A2001A
:1008F0001092A1008091C0028F5F8093C0028C3360
:1009000009F066C01092C0028091C1028F5F80938F
:10091000C1028C3309F05CC01092C1028091C20206
:100920008F5F8093C202883109F052C01092C202D8
:100930004091C3024F5F4093C3028091C4028F5F16
:100940008093C402883019F481E08093C40210912E
:10095000C5021230E1F42091C6023091C702C901EC
:1009600083709070892B81F4C90164E670E00E9465
:10097000D215892B09F067C0C90160E971E00E94B6
:10098000D215892B09F45FC0403211F50DC0842FB8
:1009900090E0E12FF0E0EC56FF4F208130E02F5F38
:1009A0003F4F82179307A1F491E09093C302812FE8
:1009B0008F5F8093C5028D3059F49093C50280916A
:1009C000C6029091C70201969093C7028093C60217
:1009D0008091A00086FD13C02091A3003091A40057
:1009E00083E0283E380729F48091A000806480933A
:1009F000A0002F5F3F4F3093A4002093A30080916D
:100A0000AC009091AD000A9748F01092AD001092A2
:100A1000AC008091AB0081608093AB008091AE0010
:100A20009091AF000A9748F01092AF001092AE007C
:100A30008091AA0081608093AA008091A0008E7F9F
:100A40008093A00006C0842F90E081970CF4C0CF63
:100A5000ABCF1F9108958091A00081608093A0008A
:100A60008091A1009091A20001969093A2008093A2
:100A7000A1008091AC009091AD0001969093AD00E3
:100A80008093AC008091AE009091AF00019690935E
:100A9000AF008093AE0008951F920F920FB60F9291
:100AA00011248F939F938091A00081608093A00078
:100AB0008091A1009091A20001969093A200809352
:100AC000A1008091AC009091AD0001969093AD0093
:100AD0008093AC008091AE009091AF00019690930E
:100AE000AF008093AE009F918F910F900FBE0F903B
:100AF0001F9018950895FB01918380830895FB0151
:100B0000880F991F918380830895DF93CF9300D03E
:100B1000CDB7DEB79A8389839C018981C901807032
:100B20009C77892F869586958695337002C0220F13
:100B3000331F8A95E2F740E050E05095409530959C
:100B400021953F4F4F4F5F4FB901CA010F900F9052
:100B5000CF91DF91089597FD03C040E050E802C0B7
:100B600040E050E020E030E006C02F5F3F4F959519
:100B70008795779567956030E8E07E07E0E08E071F
:100B8000E0E09E0794F7322F2227330F330F330F05
:100B9000262B372B242B352BC90108952F923F92FA
:100BA0004F925F926F927F928F929F92AF92BF927D
:100BB000CF92DF92EF92FF920F931F93DF93CF9329
:100BC000CDB7DEB7AC970FB6F894DEBF0FBECDBF82
:100BD0008091AB0080FD02C00C940E108091A700A4
:100BE000282F30E03E832D8340EC50E05CA74BA7DC
:100BF0005A8349831C821B829B81EB81FC81EC58C8
:100C0000FF4F2491EB81FC81E458FF4F54915CA38A
:100C1000EB81FC81EC57FF4F84918BA3EB81FC812E
:100C2000E457FF4FA491AAA3EB81FC81EC56FF4F40
:100C3000B491B9A3E22FF0E0FAA7E9A7EE0FFF1FE6
:100C4000E055FF4FF8A7EFA3808186FD1BC59330C9
:100C500009F42FC1943038F4913009F48EC09230E9
:100C600008F0D9C00DC0953009F4C1C1953008F421
:100C700070C1963009F40BC2973009F04FC058C2CA
:100C800061E070E0F2E0CF2ED12CE3E0AE2EB12C8B
:100C900044E050E058A34F8F89E090E09E8F8D8F05
:100CA0005AE0452E512C4BE0242E312CACE0B0E024
:100CB000BC8FAB8FE1E1F0E0FA8FE98F42E150E0C9
:100CC000588F4F8B83E190E09E8B8D8BA4E1B0E039
:100CD000BC8BAB8BE9E1F0E0FA8BE98B4AE150E0A9
:100CE000588B4F878BE190E09E878D87ACE1B0E019
:100CF000BC87AB87EDE1F0E0FA87E9873EE1632E40
:100D0000712C9FE1892E912C80E2E82EF12CA1E23A
:100D1000B0E002E210E043E250E018C160E070E0B1
:100D2000CC24DD24AA24BB2418A21F8E1E8E1D8E67
:100D300044245524222433241C8E1B8E1A8E198E93
:100D4000188E1F8A1E8A1D8A1C8A1B8A1A8A198A73
:100D5000188A1F861E861D861C861B861A86198683
:100D60006624772488249924EE24FF24A0E0B0E0B0
:100D700000E010E018861F8231C26AE270E00BE2E8
:100D8000C02ED12C1CE2A12EB12C8DE290E098A3B4
:100D90008F8FA2E3B0E0BE8FAD8FB3E34B2E512C0B
:100DA000A4E32A2E312CE5E3F0E0FC8FEB8F4AE33D
:100DB00050E05A8F498F8BE390E0988F8F8BACE394
:100DC000B0E0BE8BAD8BEDE3F0E0FC8BEB8B42E44F
:100DD00050E05A8B498B83E490E0988B8F87A4E492
:100DE000B0E0BE87AD87E5E4F0E0FC87EB8746E442
:100DF00050E05A874987F7E46F2E712CE8E48E2E75
:100E0000912C59E4E52EF12CAAE4B0E00BE410E0BB
:100E10008CE490E0E1C163E570E044E5C42ED12CA0
:100E200035E5A32EB12CA6E5B0E0B8A3AF8FEBE576
:100E3000F0E0FE8FED8F9CE5492E512C8DE5282E9C
:100E4000312C4EE550E05C8F4B8F83E690E09A8F1B
:100E5000898FA4E6B0E0B88FAF8BE5E6F0E0FE8BBB
:100E6000ED8B46E650E05C8B4B8B8BE690E09A8BEB
:100E7000898BACE6B0E0B88BAF87EDE6F0E0FE879B
:100E8000ED874EE650E05C874B878FE690E09A87CF
:100E9000898700E7602E712C11E7812E912CB2E733
:100EA000EB2EF12CA3E7B0E004E710E0E5E7F0E07B
:100EB000EBC06CE770E0ADE7CA2ED12CFEE7AF2E99
:100EC000B12C4FE750E058A34F8F84E890E09E8FFD
:100ED0008D8FE5E84E2E512C56E8252E312CA7E8B3
:100EE000B0E0BC8FAB8FECE8F0E0FA8FE98F4DE813
:100EF00050E0588F4F8B8EE890E09E8B8D8BAFE843
:100F0000B0E0BC8BAB8BE4E9F0E0FA8BE98B45E910
:100F100050E0588B4F8786E990E09E878D87A7E940
:100F2000B0E0BC87AB87E8E9F0E0FA87E98749E9F8
:100F3000642E712C3AE9832E912C9BE9E92EF12C39
:100F4000ACE9B0E00DE910E04EE950E058874F837E
:100F500045C165EA70E086EAC82ED12C07EAA02ECA
:100F6000B12C88EA90E098A38F8FADEAB0E0BE8FF5
:100F7000AD8F1EEA412E512CBFEA2B2E312CE0EB17
:100F8000F0E0FC8FEB8F45EB50E05A8F498F86EBFA
:100F900090E0988F8F8BA7EBB0E0BE8BAD8BE8EB2A
:100FA000F0E0FC8BEB8B4DEB50E05A8B498B8EEBDA
:100FB00090E0988B8F87AFEBB0E0BE87AD87E0EC19
:100FC000F0E0FC87EB8741EC50E05A874987A2ECC0
:100FD0006A2E712CF3EC8F2E912CE4ECEE2EF12C7A
:100FE000A5ECB0E006EC10E087EC90E0F5C06EEC0C
:100FF00070E05FECC52ED12C40EDA42EB12CA1EDFC
:10100000B0E0B8A3AF8FE6EDF0E0FE8FED8F37EDE7
:10101000432E512C98ED292E312C49ED50E05C8F58
:101020004B8F8EED90E09A8F898FAFEDB0E0B88F47
:10103000AF8BE0EEF0E0FE8BED8B41EE50E05C8B91
:101040004B8B86EE90E09A8B898BA7EEB0E0B88B45
:10105000AF87E8EEF0E0FE87ED8749EE50E05C8771
:101060004B878AEE90E09A8789878BEE682E712CE9
:101070000CEE802E912C1DEEE12EF12CAEEEB0E0A8
:101080000FEE10E0E0EFF0E0F887EF83A7C067EF26
:1010900070E0B8EFCB2ED12CA9EFAA2EB12C4AEFDD
:1010A00050E058A34F8F8FEF90E09E8F8D8F412C93
:1010B000F1E05F2EE1E02E2E3E2EA2E0B1E0BC8FEB
:1010C000AB8FE7E0F1E0FA8FE98F48E051E0588F0D
:1010D0004F8B89E091E09E8B8D8BAAE0B1E0BC8BB9
:1010E000AB8BEFE0F1E0FA8BE98B40E151E0588BFC
:1010F0004F8781E191E09E878D87A2E1B1E0BC87B7
:10110000AB87E3E1F1E0FA87E98754E1652E51E02E
:10111000752E45E1842E41E0942E36E1E32E31E038
:10112000F32EA7E1B1E008E111E049E151E00ECF73
:1011300060E271E091E2C92E91E0D92E82E2A82E00
:1011400081E0B82E83E291E098A38F8FA8E2B1E00E
:10115000BE8FAD8F09E2402E01E0502E1AE2212E03
:1011600011E0312EEBE2F1E0FC8FEB8F40E351E038
:101170005A8F498F81E391E0988F8F8BA2E3B1E082
:10118000BE8BAD8BE3E3F1E0FC8BEB8B48E351E0EE
:101190005A8B498B89E391E0988B8F87AAE3B1E062
:1011A000BE87AD87EBE3F1E0FC87EB874CE351E0D2
:1011B0005A874987BDE36B2EB1E07B2EAEE38A2EC2
:1011C000A1E09A2EFFE3EF2EF1E0FF2EA0E4B1E0C4
:1011D00001E411E082E491E098878F832330F9F0F5
:1011E000243028F4213089F02230A0F409C02530C1
:1011F00001F12530C8F0263009F1273059F523C018
:1012000040E050E088E290E022C049E250E081E511
:1012100090E01DC042E550E08AE790E018C04BE73F
:1012200050E083EA90E013C044EA50E08CEC90E098
:101230000EC04DEC50E085EF90E009C046EF50E065
:101240008EE191E004C04FE151E087E491E048175E
:10125000590710F080E012C09A0102C02F5F3F4F83
:1012600082179307D8F7E199FECFED81FE814E0FEB
:101270005F1F5FBB4EBBE09A8DB38F73282F30E0AA
:101280003EA32DA329A53AA5220F331F20553F4F7A
:101290004DA15EA1F90151834083EFA1F8A58081A2
:1012A00080FFE5C1E199FECF2D813E81620F731F62
:1012B0007FBB6EBBE09A8DB3E981FA818083FCA18C
:1012C0006F2F70E0E199FECF2D813E81C20ED31EBB
:1012D000DFBACEBAE09A8DB3FB0153E0EE0FFF1FE9
:1012E0005A95E1F7E60FF71FE056FE4F808331E095
:1012F0003183E199FECF4D815E81A40EB51EBFBA48
:10130000AEBAE09A8DB39B0143E0220F331F4A959A
:10131000E1F7260F371FF901E056FE4F82834F8D0C
:1013200058A18D819E81480F591FF901ED55FE4F3F
:1013300090E0E199FECF5FBB4EBBE09A8DB3819305
:101340009F5F4F5F5F4F9530A1F7FB0133E0EE0FDA
:10135000FF1F3A95E1F7E60FF71FE056FE4F1086A4
:10136000E199FECFED8DFE8D2D813E81E20FF31FC1
:10137000FFBBEEBBE09A8DB3EBA5FCA58583FBA17B
:101380006F2F70E0E199FECF2D813E81420E531EFA
:101390005FBA4EBAE09A8DB3FB0123E0EE0FFF1F58
:1013A0002A95E1F7E60FF71FE056FE4F808331E004
:1013B0003183E199FECF4D815E81240E351E3FBA07
:1013C0002EBAE09A8DB39B0193E0220F331F9A95BA
:1013D000E1F7260F371FF901E056FE4F82834B8D50
:1013E0005C8D8D819E81480F591FF901ED55FE4F8F
:1013F00090E0E199FECF5FBB4EBBE09A8DB3819345
:101400009F5F4F5F5F4F9530A1F7FB0183E0EE0FC9
:10141000FF1F8A95E1F7E60FF71FE056FE4F108693
:10142000E199FECFE98DFA8D2D813E81E20FF31F08
:10143000FFBBEEBBE09A8DB3EBA5FCA58683FAA1BA
:101440006F2F70E0E199FECF2F89388D4D815E813D
:10145000240F351F3FBB2EBBE09A8DB3FB0153E039
:10146000EE0FFF1F5A95E1F7E60FF71FE056FE4F0C
:10147000808351E05183E199FECF8D899E89ED8172
:10148000FE818E0F9F1F9FBB8EBBE09A8DB39B0189
:1014900043E0220F331F4A95E1F7260F371FF9016A
:1014A000E056FE4F82834B895C898D819E81480F77
:1014B000591FF901ED55FE4F90E0E199FECF5FBB5A
:1014C0004EBBE09A8DB381939F5F4F5F5F4F953026
:1014D000A1F7FB0133E0EE0FFF1F3A95E1F7E60FAE
:1014E000F71FE056FE4F1086E199FECFE989FA8991
:1014F0002D813E81E20FF31FFFBBEEBBE09A8DB35F
:10150000EBA5FCA58187E199FECF2F8538894D8118
:101510005E81240F351F3FBB2EBBE09A8DB3EBA538
:10152000FCA58287E199FECF2D853E854D815E81A8
:10153000240F351F3FBB2EBBE09A8DB3EBA5FCA556
:101540008387E199FECF2B853C854D815E81240FF9
:10155000351F3FBB2EBBE09A8DB3EBA5FCA584875E
:10156000E199FECF29853A854D815E81240F351F93
:101570003FBB2EBBE09A8DB3EBA5FCA58587E19917
:10158000FECF2D813E81620E731E7FBA6EBAE09A45
:101590008DB3EBA5FCA58687E199FECF2D813E8119
:1015A000820E931E9FBA8EBAE09A8DB3EBA5FCA56E
:1015B0008787E199FECF2D813E81E20EF31EFFBAAF
:1015C000EEBAE09A8DB3EBA5FCA5828FF9A16F2F3F
:1015D00070E0E199FECF2D813E81A20FB31FBFBB0A
:1015E000AEBBE09A8DB3FB0123E0EE0FFF1F2A95FF
:1015F000E1F7E60FF71FE056FE4F808331E03183BD
:10160000E199FECF4D815E81040F151F1FBB0EBBFC
:10161000E09A8DB39B0193E0220F331F9A95E1F777
:10162000260F371FF901E056FE4F82834F81588500
:101630008D819E81480F591FF901ED55FE4F90E0B5
:10164000E199FECF5FBB4EBBE09A8DB381939F5F64
:101650004F5F5F4F9530A1F7FB0183E0EE0FFF1F57
:101660008A95E1F7E60FF71FE056FE4F1086A9A511
:10167000BAA5AA0FBB1FA055BF4FEDA1FEA1E06404
:10168000ED93FC93AFA1B8A58C9180FFACC4EBA502
:10169000FCA5868190E0877090708130910539F0CB
:1016A000FCA12F2F30E0029709F062C014C04CA1BA
:1016B000242F30E08AA1482F50E0F90113E0EE0F0B
:1016C000FF1F1A95E1F7E20FF31FE056FE4F8381EB
:1016D000882369F110C0FAA14F2F50E0F901B3E05F
:1016E000EE0FFF1FBA95E1F7E20FF31FE056FE4F32
:1016F0008381882369F4FA01A3E0EE0FFF1FAA9506
:10170000E1F7E40FF51FE056FE4F8381882379F05F
:10171000ABA5BCA517968C9117978130A9F0E1E095
:101720001796EC931797F1E01896FC930DC0ABA5B4
:10173000BCA517968C911797882331F017961C92A9
:101740001797E1E01896EC93F90173E0EE0FFF1F95
:101750007A95E1F7E20FF31FE056FE4F1086FA018B
:1017600063E0EE0FFF1F6A95E1F7E40FF51F20C05D
:10177000F90143E0EE0FFF1F4A95E1F7E20FF31F77
:10178000E056FE4F9381ABA5BCA517968C91179799
:10179000891731F017969C931797E1E01896EC9310
:1017A000F90193E0EE0FFF1F9A95E1F7E20FF31FA7
:1017B000E056FE4F1086ABA5BCA517961C91179757
:1017C00018960C91189719968C9190E083709070F0
:1017D0008130910521F0029709F039C172C08CE186
:1017E00090E0EB81FC81E89FB001E99F700DF89FCC
:1017F000700D112467537F4FDB018C9182FF46C02F
:10180000113099F4EBA5FCA580899189A289B3894F
:101810000097A105B105D1F10197A109B109808B0C
:10182000918BA28BB38B10E031C0ABA5BCA51C96ED
:101830008C911C9790E020E13EE0F9018E9F900191
:101840008F9F300D9E9F300D11241B968C911B97FE
:101850004CE3849FC0011124280F391F1A968C91E4
:10186000280F311D84E690E0AC01249FC001259F24
:10187000900D349F900D1124AA2797FDA095BA2FA3
:10188000EBA5FCA5808B918BA28BB38BDB018C919C
:1018900083FFDDC0112309F0A9C0EBA5FCA5848955
:1018A0009589A689B7890097A105B10509F4CFC02C
:1018B0000197A109B109848B958BA68BB78B11E099
:1018C000C6C0112309F092C0EBA5FCA584899589B7
:1018D000A689B7890097A105B10541F00197A10933
:1018E000B109848B958BA68BB78B11E08CE190E0CE
:1018F0002B813C81289FF001299FF00D389FF00D2E
:101900001124E753FF4F8081ABA5BCA550964D91A4
:101910005D916D917C91539790E08470907020E080
:1019200030E0411551056105710511F421E030E009
:10193000822B932B892B09F48AC08081EBA5FCA50F
:101940002485E385ABA5BCA51A96FC9183FF26C030
:1019500030E080E19EE0D901A89F9001A99F300D61
:10196000B89F300D11248CE3E89FC0011124280F8B
:10197000391F2F0F311D84E690E0FC012E9FC0011E
:101980002F9F900D3E9F900D1124AA2797FDA095A3
:10199000BA2F840F951FA61FB71F21C030E080E12A
:1019A0009EE0A901489F9001499F300D589F300D3E
:1019B00011248CE3E89FC0011124280F391F2F0F39
:1019C000311D84E690E0DC012A9FC0012B9F900D21
:1019D0003A9F900D1124AA2797FDA095BA2FEBA549
:1019E000FCA5808B918BA28BB38B31C0ABA5BCA522
:1019F0001F968C911F9790E020E13EE0F9018E9FA9
:101A000090018F9F300D9E9F300D11241E968C915A
:101A10001E974CE3849FC0011124280F391F1D9687
:101A20008C91280F311D84E690E0AC01249FC00109
:101A3000259F900D349F900D1124AA2797FDA09506
:101A4000BA2FEBA5FCA5848B958BA68BB78BABA58A
:101A5000BCA558968C915897811731F058961C93D5
:101A60005897E1E05996EC93F9A16F2F70E0FB01D4
:101A700083E0EE0FFF1F8A95E1F7E60FF71FE056B0
:101A8000FE4F8085813009F0D8C0ABA5BCA55A9621
:101A90008C91282F30E0C9018370907081309105BE
:101AA00021F0029709F0BBC072C043818CE190E045
:101AB000AB81BC81A89FF001A99FF00DB89FF00DEC
:101AC0001124E652FF4F8081E08190E0413009F41B
:101AD00091E08695869580958923E82FF0E0EF2B9D
:101AE00041F128713070232B21F48BE0EBA5FCA58C
:101AF000838FABA5BCA55A968C915A978871883074
:101B000019F48CE05B968C93EBA5FCA5828D887113
:101B1000803111F48DE0838FABA5BCA55A968C91D2
:101B20005A978871883109F07DC08EE05B968C935E
:101B300079C0822F807E21F421E0EBA5FCA5238FC4
:101B4000ABA5BCA55A968C915A97807E803219F429
:101B500082E05B968C93EBA5FCA5828D807E803421
:101B600011F483E0838FABA5BCA55A968C915A974C
:101B7000807E803611F45B961C92EBA5FCA5828DCD
:101B8000807E803809F04EC084E0838F4BC0438153
:101B90008CE190E0AB81BC81A89FF001A99FF00D82
:101BA000B89FF00D1124E652FF4F8081E08190E054
:101BB000413009F491E08695869580958923E82F38
:101BC000F0E0EF2B29F021E0EBA5FCA5238F2AC044
:101BD00028713070232B29F4E1E0ABA5BCA55B96FE
:101BE000EC93ABA5BCA55A968C915A978871883016
:101BF00019F482E05B968C93EBA5FCA5828D88712D
:101C0000803111F483E0838FABA5BCA55A968C91EB
:101C10005A978871883131F45B961C9203C0EBA50A
:101C2000FCA5138EFB01B3E0EE0FFF1FBA95E1F7A1
:101C3000E60FF71FE056FE4F1086ABA5BCA55B96DE
:101C40008C91843069F1853040F48230C1F083306A
:101C5000F0F4813009F049C00DC08C3079F18D303D
:101C600020F48B3009F041C021C08D3079F18E30E5
:101C7000E1F536C0EBA5FCA51381048136C0111136
:101C800001E0E1E0ABA5BCA55B96EC931DC0113073
:101C900009F001E0E1E0ABA5BCA55B96EC931EC0AA
:101CA000E1E0ABA5BCA55B96EC931EC0ABA5BCA5C3
:101CB00013961C91139714960C9117C0111101E003
:101CC0008BE0EBA5FCA5838F10E00FC0113009F06D
:101CD00001E08BE0ABA5BCA55B968C9311E005C041
:101CE0008BE0EBA5FCA5838F01E0ABA5BCA513960B
:101CF0001C93139714960C93EB81FC81E456FF4FD1
:101D0000D490EB81FC81EC55FF4FC490E981FA81BE
:101D1000808190E087709070009721F0019709F022
:101D2000EBC045C0013009F0E7C08CE190E02B81A9
:101D30003C81289FA001299F500D389F500D1124F0
:101D4000FA01ED53FF4F80812D2D30E080FF12C04E
:101D500028733070A3E035952795AA95E1F72223E3
:101D600009F16D2D6770FA01E054FF4F808184FD09
:101D700012C014C028733070F3E035952795FA959A
:101D8000E1F7222379F06D2D6770FA01E054FF4FDF
:101D9000808184FD03C0822F43E002C0822F41E096
:101DA0000E94D300ABA5BCA514961C92A5C001301F
:101DB00019F58CE190E02B813C81289FF001299F4F
:101DC000F00D389FF00D1124E054FF4F808185FD08
:101DD00009C084E690E0ABA5BCA512969C938E93B7
:101DE000119706C084EF91E0EBA5FCA59283818357
:101DF000ABA5BCA514961C92EBA5FCA58181928194
:101E0000009709F479C00197928381838CE190E077
:101E10002B813C81289F8001299F100D389F100D38
:101E2000112400541F4FD8018C9185FF3FC02C2DE9
:101E300030E028733070E3E035952795EA95E1F7B7
:101E4000E22E77E0F72EFC208C9187FF04C0822FD2
:101E50006F2D42E003C0822F6F2D40E00E94D3001F
:101E6000EE2DF0E0EE0FFF1FEC57FF4F0190F081D9
:101E7000E02D808190E002C095958795FA94E2F775
:101E8000E82FE170D8018C9186FF05C080E0EE2339
:101E900009F481E0E82FABA5BCA513968C911397AC
:101EA000E81721F412961C921E9211972D2D30E006
:101EB0002873307053E0359527955A95E1F74D2DED
:101EC0004770EBA5FCA58181928162E370E00E94DE
:101ED000D21560FF0CC0D8018C9184FD04C0822F04
:101EE000642F41E007C0822F642F43E003C0822F9C
:101EF000642F40E00E94D3008CE190E02B813C8174
:101F0000289FF001299FF00D389FF00D11248F01BB
:101F100000541F4FD8018C9185FF38C02C2D30E024
:101F20002873307043E0359527954A95E1F7E22E06
:101F300097E0F92EFC208C9187FF04C0822F6F2D33
:101F400042E003C0822F6F2D40E00E94D3008E2D0F
:101F50006F2D42E00E94D300EE2DF0E0EE0FFF1F48
:101F6000EC57FF4F0190F081E02D808190E002C09E
:101F700095958795FA94E2F7E82FE170D8018C9156
:101F800086FF19C0EE23B1F0E0E015C0ABA5BCA5FB
:101F900013962C91EB53FF4F8081E081222311F4A3
:101FA000E0FD08C090E0213009F491E0E82FE095D1
:101FB000E92301C0E1E0BBA18B2F90E0DC0113E03D
:101FC000AA0FBB1F1A95E1F7A80FB91FA056BE4F65
:101FD00013968C9113978E1731F01396EC931397F9
:101FE000E1E01896EC932B813C812F5F3F4F3C83BF
:101FF0002B834BA55CA5445E5F4F5CA74BA78981F3
:102000009A814C969A8389832830310511F00C947B
:10201000FC058091AB008E7F8093AB00AC960FB631
:10202000F894DEBF0FBECDBFCF91DF911F910F910E
:10203000FF90EF90DF90CF90BF90AF909F908F90E8
:102040007F906F905F904F903F902F9008958530D4
:1020500071F0863018F4813041F405C0863049F0C3
:10206000873019F408C084E0089580E0089585E081
:10207000089586E0089588E008958091A700282FAC
:1020800030E0265B3E4FE9ECF2E0E199FECF2250D2
:1020900030403FBB2EBB2E5F3F4FE09A9DB3E1998E
:1020A000FECF215030403FBB2EBB2F5F3F4FE09A09
:1020B0008DB3582F40E0892F90E0842B952B91838E
:1020C0008083E199FECF3FBB2EBBE09A8DB3828324
:1020D0002D5F3F4F339683E0E932F807B1F608955C
:1020E000FFCFCF93DF93EC0180E0BE010E94E303BA
:1020F00088818073803239F48091A900882319F493
:10210000CE010E948610DF91CF9108952F923F92C9
:102110004F925F926F927F928F929F92AF92BF92F7
:10212000CF92DF92EF92FF920F931F93DF93CF93A3
:10213000CDB7DEB72D970FB6F894DEBF0FBECDBF7B
:102140005C012090A5003090A600E9EC4E2EE2E064
:102150005E2EF50121813281F20180819181281763
:10216000390709F0F0C0232B09F4EDC070EAE72E1F
:1021700071E0F72E00E010E0680163E0CC0CDD1C9C
:102180006A95E1F7C00ED11E20EA31E0C20ED31EDF
:10219000F601808180FFCDC0F2018281081709F02D
:1021A000C8C0F7012181253069F0263018F42130AC
:1021B00029F406C0263041F0273041F040E007C046
:1021C00044E005C045E003C046E001C048E0F50139
:1021D000808190E08F709070842E992488159905E5
:1021E00009F0A7C08581821709F0A3C0868190E01D
:1021F00083709070892BB9F5F601808181FF33C01F
:10220000F501618072802E83F1E0FF83F701828106
:10221000888790E0B40163507040980153E0220F2A
:10222000331F5A95E1F7200F311F20563E4F0CC047
:10223000E9E0F0E0EC0FFD1FEA0FFB1FA20FB31F58
:1022400013968C9180839F5FA92FB0E0A617B707E4
:102250007CF33D822C827B826A8240624983CE017C
:1022600001960E947110F50186818370813059F5C5
:10227000F601808184FF27C0F5019781F7018281F3
:10228000981709F590E0A40143505040980183E06D
:10229000220F331F8A95E1F7200F311F20563E4F42
:1022A00009C0F901EA0FFB1FAA0DBB1D18968C91FE
:1022B00083839F5FA92FB0E0A417B50794F3F701BC
:1022C00080818F7D8083F50186818370823089F5DE
:1022D000F601808182FF2DC0F5019781F70182818F
:1022E000981739F550E0B401635070409801B3E09D
:1022F000220F331FBA95E1F7200F311F20563E4FB2
:102300000FC0F501E80FF91F4085F901E80FF91F2B
:102310008381841721F0438381E0F70180875F5F29
:10232000852F90E08617970764F3F70180818F7DF2
:1023300080830F5F1F4F29E030E0E20EF31E003272
:10234000110509F019CF83E090E0480E591E99E27B
:10235000491693E0590609F0FCCE2D960FB6F89475
:10236000DEBF0FBECDBFCF91DF911F910F91FF90C8
:10237000EF90DF90CF90BF90AF909F908F907F9025
:102380006F905F904F903F902F9008952F923F92C3
:102390004F925F926F927F928F929F92AF92BF9275
:1023A000CF92DF92EF92FF920F931F93DF93CF9321
:1023B000CDB7DEB72D970FB6F894DEBF0FBECDBFF9
:1023C0008091AA0080FFFDC08090A5009090A6009B
:1023D00090EAC92E91E0D92EEE24FF2489E0282E20
:1023E000312C2C0E3D1E2E010894411C511C02E084
:1023F000602E7E2CF701EC5AFF4FE491F0E0EE0FD7
:10240000FF1FE055FF4F808180FFCAC08701B3E006
:10241000000F111FBA95E1F70E0D1F1D00561E4F3C
:10242000F801808180FFBCC0808183FF5CC0F60121
:102430008085813009F057C0E9ECF2E0A080B180DE
:102440008281871509F047C0A114B10409F443C083
:10245000F6018181853069F0863018F4813029F4E5
:1024600006C0863041F0873041F090E007C094E02C
:1024700005C095E003C096E001C098E08E836F82AE
:10248000F6018281888760E0492F50E04350504038
:102490009701A3E0220F331FAA95E1F72E0D3F1DF0
:1024A00020563E4F09C0F101EA0FFB1FA20FB31FD8
:1024B00013968C9180836F5FA62FB0E0A417B507A9
:1024C00094F39D828C82BB82AA8290629983C2011E
:1024D0000E94711006C0339683E0E932F80709F0D4
:1024E000ADCFF6011086F801808185FF59C0E9EC77
:1024F000F2E0008111818281871509F04BC001153E
:10250000110509F447C0F6018181853069F08630F4
:1025100018F4813029F406C0863041F0873041F04C
:1025200090E007C094E005C095E003C096E001C0CC
:1025300098E08E831F82F6018281888760E0492FB0
:1025400050E0435050409701F3E0220F331FFA95BB
:10255000E1F72E0D3F1D20563E4F09C0F101EA0F55
:10256000FB1FA20FB31F13968C9180836F5FA62F62
:10257000B0E0A417B50794F39D828C821B830A8375
:1025800090629983C2010E947110F60180818F7D53
:10259000808306C0339683E0E932F80709F0A9CFBB
:1025A0000894E11CF11CE9E0F0E0CE0EDF1EF0E241
:1025B000EF16F10409F01DCF8091AA008E7F809361
:1025C000AA002D960FB6F894DEBF0FBECDBFCF91F7
:1025D000DF911F910F91FF90EF90DF90CF90BF9010
:1025E000AF909F908F907F906F905F904F903F90B3
:1025F0002F900895DF92EF92FF920F931F93DF9336
:10260000CF93CDB7DEB72D970FB6F894DEBF0FBED0
:10261000CDBFAC01FC01D0806D2D6F70E380F480E4
:102620000091A5001091A600DC01FE0136969E01E6
:10263000260F311D2A5F3F4F04C014968C911497CA
:1026400081931196E217F307C1F7FA018581823071
:1026500009F090C0623009F046C18E81806C8E8393
:1026600026812223C1F4E199FECF82E190E09FBB55
:102670008EBBE09A8DB3882309F462C0E199FECF46
:1026800082E190E09FBB8EBB1DBA0FB6F894E29A30
:10269000E19A0FBE6EC02130C9F4E199FECF82E10C
:1026A00090E09FBB8EBBE09A8DB3813009F461C08E
:1026B000E199FECF82E190E09FBB8EBB81E08DBBB4
:1026C0000FB6F894E29AE19A0FBE53C0283009F091
:1026D00037C0E199FECF8BE190E09FBB8EBBE09AC3
:1026E0002DB32F5FE199FECF8BE190E09FBB8EBBB6
:1026F000E09A8DB3821761F0E199FECF8BE190E013
:102700009FBB8EBB2DBB0FB6F894E29AE19A0FBE29
:10271000E199FECF82E190E09FBB8EBBE09A8DB342
:10272000883039F1E199FECF82E190E09FBB8EBB0A
:1027300088E08DBB0FB6F894E29AE19A0FBE19C0FB
:102740002930B9F4E199FECF82E190E09FBB8EBBC6
:10275000E09A8DB3893069F0E199FECF82E190E093
:102760009FBB8EBB89E08DBB0FB6F894E29AE19ACD
:102770000FBEFFCF863009F043C0613009F0B3C00F
:102780008091A800893009F0AEC08091A700282F61
:1027900030E0A895E199FECF3FBB2EBBE09A8DB308
:1027A000882351F0E199FECF3FBB2EBB1DBA0FB677
:1027B000F894E29AE19A0FBE2F5F3F4FF2E020308B
:1027C0003F0738F32CE130E0F901EC5BFF4FE0818B
:1027D000E199FECF3FBB2EBBE09A8DB38E1751F02F
:1027E000E199FECF3FBB2EBBEDBB0FB6F894E29A4A
:1027F000E19A0FBE2F5F3F4F2032310529F7FFCFFF
:10280000873071F5643008F46EC0FA01978180E07A
:102810002681DC01A20FB11DF2E0A030BF0708F055
:1028200062C08E81806C8E8340E0262F30E0235082
:102830003040BE01675F7F4F0DC0E199FECFCD01F3
:10284000840F911D9FBB8EBBE09A8DB3E60FF71FDF
:1028500080834F5FE42FF0E0E217F30774F343C087
:10286000883009F040C0643008F43DC08091A80071
:10287000893009F038C0FA01978180E02681DC01B7
:10288000A20FB11D8091A70090E0A817B90758F1D9
:10289000F2E0A030BF0738F58E81806C8E8390E027
:1028A000262F30E02350304019C0BF016A0F7B1F34
:1028B000E40FF51FE085E199FECF7FBB6EBBE09A88
:1028C0008DB38E1751F0E199FECF7FBB6EBBEDBB90
:1028D0000FB6F894E29AE19A0FBE9F5FE92FF0E0FD
:1028E000E217F30714F38E8180648E831D830C83BB
:1028F000FB82EA82D982CE0101960E9471102D9648
:102900000FB6F894DEBF0FBECDBFCF91DF911F9100
:102910000F91FF90EF90DF9008952091A70030E095
:10292000220F331F820F931F65E770E00E94BC15D2
:10293000089565E770E00E94BC150895CF92DF927C
:10294000EF92FF920F931F93DF93CF93CDB7DEB734
:102950002D970FB6F894DEBF0FBECDBF8DE028E1F6
:1029600030E00FB6F894A89521BD0FBE81BDA895A3
:1029700080E190E065E770E00E94BC156C019093E7
:10298000A6008093A50001978F5F9740B8F0E1996A
:10299000FECF82E190E09FBB8EBBE09A8DB388238F
:1029A00061F0E199FECF82E190E09FBB8EBB1DBA42
:1029B0000FB6F894E29AE19A0FBEFFCF2CE030E018
:1029C000F901EC5AFF4FE081E199FECF3FBB2EBBEE
:1029D000E09A8DB38E1751F0E199FECF3FBB2EBB2D
:1029E000EDBB0FB6F894E29AE19A0FBE2F5F3F4F0E
:1029F0002031310529F7E199FECF8AE190E09FBBB4
:102A00008EBBE09A8DB38093A700E199FECF82E15F
:102A100090E09FBB8EBBE09A8DB38093A800885056
:102A20008230D0F088E08093A800E199FECF82E167
:102A300090E09FBB8EBBE09A8DB3883069F0E1993E
:102A4000FECF82E190E09FBB8EBB88E08DBB0FB6CE
:102A5000F894E29AE19A0FBEF090A9002CE130E0E0
:102A6000E199FECF3FBB2EBBE09A8DB3F901EC5B41
:102A7000FF4F9081891711F081E0F82A2F5F3F4FB7
:102A80002032310569F7F092A900FF20F1F48BE0C4
:102A900083BF12BE8DE78CBF82E089BF1092C00257
:102AA0001092C1021092C20281E08093C40280930E
:102AB000C3028093C5021092C7021092C6020E9400
:102AC0003D100E94C6110E94CE05789480E00E94BD
:102AD0003C0381E28E83FE01379624E030E0E199E9
:102AE000FECF3FBB2EBBE09A8DB381932F5F3F4F4C
:102AF00028303105A1F7E199FECF82E190E09FBB3C
:102B00008EBBE09A8DB38B87FC86DD82CC8282E01F
:102B100090EF9B838A8387E289838E010F5F1F4F2B
:102B2000C8010E947110E02E012FA895FF2031F4FA
:102B30000E9469040E94C6110E94CE0580E06E2D9D
:102B4000702F0E945703813081F78981807349F487
:102B50008A819B818C159D0521F48E2D902F0E94DA
:102B6000FA1289818073803201F7FF20F1F68E2DF1
:102B7000902F0E948610D9CFDF92EF92FF920F9391
:102B80001F937B018C01FB010995D82EC80101968A
:102B9000F7010995982F8D2D1F910F91FF90EF90C0
:102BA000DF900895AA1BBB1B51E107C0AA1FBB1FE2
:102BB000A617B70710F0A61BB70B881F991F5A95C9
:102BC000A9F780959095BC01CD010895F894FFCFA9
:102BD0001B000000C8023A00370034003100C80270
:102BE000C802C802C8023B00380035003200C802E3
:102BF000C802C802C8023900360033003000C802DB
:102C0000C802C8021F1C1F1E1F1E1F1F1E1F1E1FC3
:00000001FF
